:020000040C00EE
:100000000008FF1F01020008990200089902000879
:1000100099020008990200089902000800000000F7
:10002000000000000000000000000000990200082D
:1000300099020008000000009902000899020008D7
:100040009902000899020008990200089902000824
:100050009902000899020008990200089902000814
:1000600099020008000000000000000000000000ED
:100070009902000800000000990200089902000897
:1000800099020008990200089902000899020008E4
:1000900099020008990200089902000899020008D4
:1000A000990200089902000800000000000000000A
:1000B0000000000000000000000000000000000040
:1000C0000000000000000000000000000000000030
:1000D0000000000000000000000000000000000020
:1000E00000000000000000009902000899020008CA
:1000F0009902000899020008990200089902000874
:100100009902000899020008990200089902000863
:1001100000000000000000000000000000000000DF
:1001200000000000000000000000000000000000CF
:100130009902000899020008990200089902000833
:1001400000000000000000000000000000000000AF
:10015000000000000000000000000000000000009F
:10016000000000000000000000000000000000008F
:1001700099020008990200089902000899020008F3
:1001800099020008990200089902000899020008E3
:1001900099020008990200089902000899020008D3
:1001A00099020008990200089902000899020008C3
:1001B00099020008990200089902000899020008B3
:1001C000000000000000000000000000000000002F
:1001D000000000000000000099020008000000007C
:1001E00099020008C120000899020008990200083D
:1001F00099020008990200080000000000000000B9
:10020000DFF874D01D4880471D4C1E4DAC4209DA02
:1002100021686268A368043BA2BFC858D050FAE7BF
:100220000C34F3E7184B194CA34208DA19685A68E2
:100230000020043AA4BF8850FBE70833F4E71448D1
:100240008047144880470000C025000C0008FF1FAD
:10025000D0000000C025000C0008FF1F00000000B7
:10026000D008FF1F24000000000000200000000054
:1002700000000020000000000008FF1F9D02000891
:1002800048020008600200086002000878020008C6
:100290006D240008ED230008FEE7000098B500AFCC
:1002A000054A4FF0005314460FCB84E80F0001F0CD
:1002B00053FF01F0CFFF98BDC4FF002080B584B08C
:1002C00000AF2F4BDB6803F48033002B3ED02D4B67
:1002D000DB6803F00103002B02D02B4BFB6002E034
:1002E00001F09AFFF860274B1B6803F00403002B12
:1002F00020D0244B9B6803F070631B0E0133BB605E
:10030000204B9B6803F4FE431B0A01337B601D4BAB
:100310009B6803F4FE031B0C01333B60BB683A6827
:1003200002FB03F3FA68B2FBF3F37A6802FB03F310
:10033000FB600DE0134B9B6803F07F0301333B60D0
:10034000FA683B68B2FBF3F3FB6001E00E4BFB6025
:100350000B4BDB68DBB20133FA68B2FBF3F3FB60F3
:10036000074B1B6903F001030133FA68B2FBF3F397
:10037000FB60064AFB6813601037BD4680BD00BFB6
:10038000004600501047005000366E01C0FF0020AC
:1003900080B485B000AFF8600B467A60FB72FB7AE0
:1003A0009B08DBB21846FB7A9B08DBB21A46FB6857
:1003B000043253F82220FB7A03F00303DB001946D2
:1003C000F8238B40DB4302EA0301FB68021D43F87C
:1003D0002210FB685A6FFB7A5B00194603238B409F
:1003E000DB431A40FB685A67FB683A4A934203D0E2
:1003F000FB68394A93420AD1FB681A6EFB7A0121E5
:1004000001FA03F3DB431A40FB681A6642E07B689B
:100410001B78DBB25BB2002B3CDA7B685A68FB7A54
:100420009A40FB685A60FB7ADB08DBB21846FB7A1D
:10043000DB08DBB21A46FB68103253F82220FB7A45
:1004400003F007039B00194607238B40DB4302EAB6
:100450000301FB6800F1100243F82210FB7ADB086D
:10046000DBB21846FB7ADB08DBB21A46FB681032B7
:1004700053F822207B681B7A1946FB7A03F00703A6
:100480009B0001FA03F342EA0301FB6800F110024A
:1004900043F82210FB7A9B08DBB21846FB7A9B08D4
:1004A000DBB21A46FB68043253F822207B681B78C3
:1004B0001946FB7A03F00303DB0001FA03F342EA77
:1004C0000301FB68021D43F822101437BD465DF896
:1004D000047B7047008E0248008F024880B400AF52
:1004E000034B1B681846BD465DF8047B704700BF90
:1004F000C0FF002080B400AF034BD3F8C4301846CF
:10050000BD465DF8047B70470040005080B584B064
:1005100000AF7860FFF7D2FE0B4B1B680B4AA2FBC3
:1005200003239A0C7B6802FB03F37B600023FB60D0
:1005300003E000BFFB680133FB60FA687B689A4206
:10054000F7D31037BD4680BDC0FF002083DE1B43BC
:1005500080B400AF034B5B681846BD465DF8047B72
:10056000704700BF7440005080B483B000AF786023
:10057000034A7B68D3600C37BD465DF8047B704747
:1005800074400050B0B584B002AF7860002000F035
:10059000C5F800F0B7FA7B68DB79002B0AD000F0D1
:1005A000EFFA00BF00F0DAFA034683F00103DBB292
:1005B000002BF7D17B685B7A184600F029F900BF61
:1005C000FFF798FF0346002BFAD17B681B7A184689
:1005D00000F072FA7B681B7C184600F037F97B68E4
:1005E0005B7C184600F05AF97B689B7C184600F04B
:1005F00041F97B68DB7C184600F064F97B689B79E5
:10060000002B0AD000F0F4FA00BF00F019FB0346FB
:1006100083F00103DBB2002BF7D17B68DB78002B82
:1006200009D17B689B7983F00103DBB2002B17D0E3
:1006300000F02AFB14E000F017FB7B6899887B68C8
:10064000DA787B685B781D467B681B781C467B6884
:100650009B780093084611462A46234600F024FB67
:100660007B68DB68B3F5803F03D14FF4803000F046
:1006700055F8FFF723FE0837BD46B0BD80B485B0FE
:1006800000AF78607B681B0FFB607B6823F07043D2
:10069000BB60FA6813465B0013449B001A46044B88
:1006A0001344BA681A601437BD465DF8047B70477E
:1006B0001444005080B485B000AF78607B681B0F95
:1006C000FB607B6823F07043BB60FA6813465B00F5
:1006D00013449B001A46084B13441A68BB68134026
:1006E000002B14BF01230023DBB218461437BD468C
:1006F0005DF8047B704700BF0C44005080B500AF2C
:10070000FFF7ECFE0246044B5B6903F0010322FA9B
:1007100003F3184680BD00BF0046005080B483B08C
:1007200000AF78600649064BDB6823F480327B68B3
:100730001343CB600C37BD465DF8047B704700BFA8
:100740000046005080B483B000AF78600649064B85
:100750009B6923F480327B6813438B610C37BD4661
:100760005DF8047B704700BF0046005080B483B042
:1007700000AF78600649064B5B6A23F440327B6821
:1007800013434B620C37BD465DF8047B704700BFD6
:100790000046005080B483B000AF0346FB80FB8866
:1007A000002B08D10A4A0A4BDB6823F4807323F03C
:1007B0000103D36007E0064A054BDB6843F480730E
:1007C00043F00103D3600C37BD465DF8047B7047EE
:1007D0001047005080B483B000AF0346FB7100BFE8
:1007E000094BD3F8C43003F00803002BF8D10749B4
:1007F000064BDB6823F04002FB791343CB600C37D8
:10080000BD465DF8047B7047004000500043005037
:1008100080B483B000AF0346FB7100BF094BD3F82F
:10082000C43003F00803002BF8D10749064BDB68FE
:1008300023F08002FB791343CB600C37BD465DF893
:10084000047B7047004000500043005080B483B0E8
:1008500000AF78600649064BDB6823F0FF027B6837
:10086000013B1343CB600C37BD465DF8047B7047FA
:100870000046005080B483B000AF78600649064B54
:100880001B6A23F001027B68013B13430B620C37A8
:10089000BD465DF8047B70470046005080B483B0CD
:1008A00000AF78600649064B1B6923F001027B68A4
:1008B000013B13430B610C37BD465DF8047B704769
:1008C0000046005080B483B000AF78600649064B04
:1008D0005B6923F001027B68013B13434B610C37DA
:1008E000BD465DF8047B70470046005080B483B07D
:1008F00000AF78600649064B9B6923F007027B68CE
:10090000013B13438B610C37BD465DF8047B704798
:100910000046005080B483B000AF78600649064BB3
:100920005B6A23F0FF027B68013B13434B620C3789
:10093000BD465DF8047B70470046005080B483B02C
:1009400000AF78600649064B9B6B23F003027B687F
:10095000013B13438B630C37BD465DF8047B704746
:100960000046005080B485B000AF78607B681B0FF4
:10097000FB607B6823F07043BB60FA6813465B0042
:1009800013449B001A46044B1344BA681A60143788
:10099000BD465DF8047B70474846005080B485B082
:1009A00000AF78607B681B0FFB607B6823F07043AF
:1009B000BB60FA6813465B0013449B001A46084B61
:1009C00013441A68BB681340002B14BF0123002393
:1009D000DBB218461437BD465DF8047B704700BF94
:1009E0004046005080B400AF054A054B5B6923F4D4
:1009F000803323F002035361BD465DF8047B7047EA
:100A00001047005080B483B000AF78603960284A46
:100A1000274B5B6943F00103536100BF244B1B6903
:100A200003F00103002BF9D0214A214B5B6943F00D
:100A3000100353611E493B68013B1A027B68013B6E
:100A40001B0613434B611A4A194B5B6943F0400381
:100A50005361174A164B5B6923F010035361144A24
:100A6000134B5B6943F48023536100BF104B1B6938
:100A700003F00403002BF9D00D4A0D4B5B6923F002
:100A80000103536100BF0A4B1B6903F00103002BF4
:100A9000F9D1074A064B5B6923F040035361054BCC
:100AA0000822DA600C37BD465DF8047B704700BF52
:100AB000104700506041005080B582B000AF03463F
:100AC000FB710F4A0E4B5B6843F480135360FB7954
:100AD000012B0ED10A4A0A4B5B6823F48013536042
:100AE0006420FFF713FD064A054B5B6843F40023BF
:100AF00053606420FFF70AFD0837BD4680BD00BF84
:100B00001047005080B400AF124B1B6803F0010384
:100B1000002B09D10F4B01225A6000BF0D4B1B68FF
:100B200003F00103002BF9D00B4B1B6803F4007397
:100B3000002B0AD0084B4FF400729A6000BF064B9E
:100B40001B6803F40073002BF9D1BD465DF8047BEC
:100B5000704700BF004200500044005080B400AF16
:100B6000064B1B6803F00803002B0CBF0123002376
:100B7000DBB21846BD465DF8047B70470043005069
:100B800080B500AF4FF40000FFF7EEFC174A174B9B
:100B9000DB6923F03003D36100BFFFF7D9FC0346C4
:100BA00003F40003002BF8D04FF40030FFF7DCFC17
:100BB0000E4B08225A6000BFFFF7CAFC034603F43D
:100BC0000033002BF8D04FF40020FFF7CDFC074A8C
:100BD000064BDB6843F00803D36000BFFFF7B8FCA7
:100BE000034603F40023002BF8D080BD00430050DF
:100BF000B0B500AF0F4A0F4B5B6823F480335360EE
:100C00000D4D0D4B5B6823F4702424F0300401F08B
:100C100003FB0246094BA3FB02231B0D013B1B04F4
:100C200023436B60034A034B5B6823F40033536038
:100C3000B0BD00BF10470050004700506BCA5F6B4B
:100C400080B400AF074B1B6803F46073B3F5607F9B
:100C50000CBF01230023DBB21846BD465DF8047BC0
:100C6000704700BF1047005080B400AF054A054BE5
:100C70005B6823F4803323F002035360BD465DF8C4
:100C8000047B70471047005080B400AF054A054B05
:100C90005B6843F4803343F002035360BD465DF864
:100CA000047B70471047005080B586B000AFBA6033
:100CB0007B600346FB810B467B73FB891846FFF77D
:100CC00069FD7B7B012B40F08B80FB89002B09D1D8
:100CD00001F0A2FA0246544BA3FB02239B0C9B0596
:100CE0007B6102E04FF0C0637B617B697A6802FB45
:100CF00003F2BB68B2FBF3F37B617B694B4AA2FB57
:100D000003231B099B0D3B61494A494B5B6843F038
:100D10000103536000BF464B1B6803F00103002B27
:100D2000F9D0434A424B5B6843F01003536040499B
:100D30003F4B9A683F4B13407A68013A12021A43BC
:100D40003B69013B1B041A43BB68013B1B06134371
:100D50008B60374A364B5B6843F040035360344A3C
:100D6000334B5B6823F010035360314A304B5B68B0
:100D700043F48023536000BF2D4B1B6803F0040332
:100D8000002BF9D02A4A2A4B5B6823F001035360F9
:100D900000BF274B1B6803F00103002BF9D17B69CF
:100DA000254AA2FB03235B099B0D3B613A6A3B6921
:100DB0009A4202D2386900F045F87B695B081F4A05
:100DC000A2FB03235B099B0D3B613A6A3B699A4294
:100DD00002D2386900F036F8386A00F033F81CE0C7
:100DE0001349134B9B6823F07F023B6A013B13437B
:100DF0008B6000BF0E4B1B6803F01003002BF9D073
:100E00000B4A0B4B5B6843F00103536000BF084B78
:100E10001B6803F00103002BF9D0094B0522DA60AF
:100E20001837BD4680BD00BF83DE1B43ABAAAAAA0C
:100E300010470050FF8080F089888888B7600BB623
:100E40006041005080B582B000AF78600B490B4B19
:100E50009B6823F4FE027B68013B1B0413438B60F9
:100E600000BF064B1B6803F02003002BF9D0322093
:100E7000FFF74CFB0837BD4680BD00BF1047005050
:100E800080B483B000AF78607B68D3F860331846D5
:100E90000C37BD465DF8047B704700BF80B483B05B
:100EA00000AF78607B68D3F8E83218460C37BD464F
:100EB0005DF8047B704700BF80B483B000AF7860FA
:100EC0007B68D3F8F03218460C37BD465DF8047BDA
:100ED000704700BF80B483B000AF78607B68D3F800
:100EE000F83218460C37BD465DF8047B704700BFEA
:100EF00080B483B000AF78607B68D3F800331846C5
:100F00000C37BD465DF8047B704700BF80B483B0EA
:100F100000AF78607B68D3F8083318460C37BD46BD
:100F20005DF8047B704700BF80B582B000AF786089
:100F3000786800F003F80837BD4680BD80B582B000
:100F400000AF78600648FFF70DFD0548FFF796FBF8
:100F50007B680122C3F898230837BD4680BD00BFD7
:100F60001000002080B584B000AF78601E48FFF705
:100F7000A1FB0346002B14BF01230023DBB283F047
:100F80000103DBB2FB73FB7B03F00103FB73FB7B11
:100F9000002B0AD01448FFF701FD034683F001033C
:100FA000DBB2002B01D0012300E00023FB73FB7BAD
:100FB00003F00103FB73FB7B002B0FD0FB7B002BAB
:100FC00006D07B68D3F89833002B01D0012300E0D2
:100FD0000023FB73FB7B03F00103FB73FB7B1846D1
:100FE0001037BD4680BD00BF1000002080B483B024
:100FF00000AF78600B46FB701346BB700F480F4B79
:101000009A68FB789B0019460F238B40DB431A40FC
:10101000BB78F97889008B40134383600749074BFD
:101020001A69FB7803F00703012000FA03F3134366
:101030000B610C37BD465DF8047B704700490050DA
:1010400080B483B000AF78600B46FB707B68D3F848
:10105000A023FB7822FA03F303F00103002B14BF53
:1010600001230023DBB218460C37BD465DF8047B34
:10107000704700BF80B586B000AFF8600B467A605D
:10108000FB72F868FFF76EFF0346002B00F0DB8170
:10109000FB7AF8681946FFF7D3FF034683F0010394
:1010A000DBB2002B00F0CC81FB7A7A685268F968D9
:1010B000582000FB03F30B441A60FB7A7A689268AD
:1010C000F968582000FB03F30B4408331A60FB7ADD
:1010D0007A68D2681046FA68582101FB03F313447A
:1010E00010331860FB7A7A68128B1046FA68582120
:1010F00001FB03F3134418335860FB7A7A681268D3
:10110000F968582000FB03F30B4418331A60FB7A8C
:101110007A68D27E42F44062F968582000FB03F3FB
:101120000B4440331A60FB68A64A934216D1FB7AFF
:10113000012B13D8FB7A7A681269F968582000FBF2
:1011400003F30B4448331A60FB7A7A685269F968F2
:10115000582000FB03F30B4450331A607B681B8C50
:10116000002B44D17B689B7803F07003DBB2102B1B
:1011700006D07B689B7803F07003DBB2302B36D14E
:101180007B6893F8223003F00703BB757B6893F804
:1011900022301B097B75FB7AFA7AF968582000FB2C
:1011A00002F20A4440325168BA7DD2020A43F96819
:1011B000582000FB03F30B4440335A60BA7D7B7D1B
:1011C000F86811461A46FFF711FFFB7AFA7AF968B8
:1011D000582000FB02F20A444032126822F4806276
:1011E000F968582000FB03F30B4440331A607B6816
:1011F0009B8B002B42D17B689B7803F07003DBB2A2
:10120000202B06D07B689B7803F07003DBB2302B79
:1012100034D17B689B7F03F00703BB757B689B7FA2
:101220001B097B75FB7AFA7AF968582000FB02F2F9
:101230000A4440325168BA7DD2010A43F968582005
:1012400000FB03F30B4440335A60BA7D7B7DF868A2
:1012500011461A46FFF7CAFEFB7AFA7AF968582057
:1012600000FB02F20A444032126822F40062F9687C
:10127000582000FB03F30B4440331A60FB7AF868F4
:1012800019461F2200F00EF97B689B7E082B00F2A6
:10129000D38001A252F823F039140008BD120008CF
:1012A000E3120008091300082F1300085513000863
:1012B0009F130008C913000813140008FB7AFA7A78
:1012C000F968582000FB02F20A444032126842F0EA
:1012D0000042F968582000FB03F30B4440331A60C6
:1012E000ABE0FB7AFA7AF968582000FB02F20A4474
:1012F0004032126842F08042F968582000FB03F344
:101300000B4440331A6098E0FB7AFA7AF968582067
:1013100000FB02F20A444032126842F04042F9688F
:10132000582000FB03F30B4440331A6085E0FB7A3E
:10133000FA7AF968582000FB02F20A44183212685F
:1013400042F00062F968582000FB03F30B441833A5
:101350001A6072E0FB7AFA7AF968582000FB02F210
:101360000A444032126842F08042F968582000FB7B
:1013700003F30B4440331A60FB7AFA7AF968582079
:1013800000FB02F20A441832126842F00062F96867
:10139000582000FB03F30B4418331A604DE0FB7A2E
:1013A000FA7AF968582000FB02F20A4418321268EF
:1013B00042F08052F968582000FB03F30B441833C5
:1013C0001A603AE000400150FB7AFA7AF968582036
:1013D00000FB02F20A444032126842F00042F9680F
:1013E000582000FB03F30B4440331A60FB7AFA7A6F
:1013F000F968582000FB02F20A441832126842F0E1
:101400008052F968582000FB03F30B4418331A602C
:1014100013E0FB7AFA7AF968582000FB02F20A44DA
:101420001832126842F0C052F968582000FB03F3EA
:101430000B4418331A6000E000BF0023FB7504E082
:101440000223FB7501E00123FB75FB7D184618376D
:10145000BD4680BD80B487B000AFF8600B467A60AF
:10146000FB7200237B6114E07B697A6822FA03F344
:1014700003F00103002B09D07B695A00FB7A40F28C
:1014800001119940FB68C43243F822107B69013393
:101490007B617B69042BE7D91C37BD465DF8047B73
:1014A000704700BF80B487B000AFF8600B467A6029
:1014B000FB7200237B6113E07B697A6822FA03F3F5
:1014C00003F00103002B08D07B695A00FB7A01214D
:1014D0009940FB68CE3243F822107B6901337B616F
:1014E0007B69042BE8D91C37BD465DF8047B704747
:1014F00080B485B000AFF8600B467A60FB72FB7A6F
:1015000004497A6841F823201437BD465DF8047B0E
:10151000704700BFD008FF1F80B588B000AF78606B
:101520007F4BBB617868FFF7ABFC78610023FB6100
:101530007B6903F01003002B2BD07868FFF7E6FCE3
:10154000786121E00122FB6902FA03F33B617A69C9
:101550003B691340002B14D0FB69DBB27868194655
:101560001022FFF79FFFFB699B00BA6913441B68B9
:10157000FB60FB68002B03D0FB681020984707E056
:1015800006E0FB690133FB617B69002BDAD1C3E024
:10159000C2E07B6903F00103002B2BD07868FFF7D2
:1015A0007DFC786121E00122FB6902FA03F33B61D3
:1015B0007A693B691340002B14D0FB69DBB2786871
:1015C00019460F22FFF76EFFFB699B00BA691344AF
:1015D0001B68FB60FB68002B03D0FB680120984769
:1015E00007E006E0FB690133FB617B69002BDAD180
:1015F00092E091E07B6903F00203002B2BD0786826
:10160000FFF75AFC786121E00122FB6902FA03F33B
:101610003B617A693B691340002B14D0FB69DBB254
:10162000786819460E22FFF73DFFFB699B00BA69F7
:1016300013441B68FB60FB68002B03D0FB6802208F
:10164000984707E006E0FB690133FB617B69002BEB
:10165000DAD161E060E07B6903F00403002B2BD05A
:101660007868FFF737FC786121E00122FB6902FA14
:1016700003F33B617A693B691340002B14D0FB698B
:10168000DBB2786819460422FFF70CFFFB699B0068
:10169000BA6913441B68FB60FB68002B03D0FB682E
:1016A0000420984707E006E0FB690133FB617B6992
:1016B000002BDAD130E02FE07B6903F00803002B28
:1016C0002AD07868FFF714FC786121E00122FB69D9
:1016D00002FA03F33B617A693B691340002B14D093
:1016E000FB69DBB2786819460822FFF7DBFEFB696D
:1016F0009B00BA6913441B68FB60FB68002B03D096
:10170000FB680820984707E006E0FB690133FB61AE
:101710007B69002BDAD1FFE72037BD4680BD00BFD3
:10172000D008FF1F80B483B000AF78600B46FB7019
:101730001346BB707B685A6FFB785B001946032326
:101740008B40DB431A407B685A677B685A6FBB78D3
:10175000F97849008B401A437B685A670C37BD46BD
:101760005DF8047B704700BF80B584B000AFF860BF
:10177000B9601346FB71F86800F058F8BB685B79F4
:10178000002B15D1FB79002B12D0BB681B79002BE5
:1017900007D0BB681B68F8681946022200F0F2F80F
:1017A00006E0BB681B68F8681946022200F078F86A
:1017B000FB680F4A5A63FB684FF4A2629A63BB68E6
:1017C0005B79002B07D1BB689B7943F00B03DBB23D
:1017D0001A46FB68DA63FB684FF0FF32DA64BB68D5
:1017E0001B891A46FB681A641037BD4680BD00BFCE
:1017F00002013F0780B483B000AF786039607B6836
:101800001A6C3B6803F4FE33DB431A407B681A64AE
:101810007B68DA6B3B685B039BB2DB431A407B68F7
:10182000DA630C37BD465DF8047B704780B582B043
:1018300000AF78607B68144A934203D07B68134AF8
:10184000934203D1124800F039F90AE07B68114A4B
:10185000934203D07B68104A934202D10F4800F0B4
:101860002DF97B680322DA6000BF7B68DB6803F038
:101870000103002BF9D07B681B6C23F00F027B68FF
:101880001A640837BD4680BD0000034000020340D3
:101890000800034000000248000202480800024815
:1018A00080B58EB000AFF860B9607A60BB68632B1A
:1018B0005AD97B68002B57D0FEF720FF02462F4BEA
:1018C000A3FB02235B093B62BB682C4AA2FB0323F8
:1018D0005B09BB604FF48063FB620123BB6240F293
:1018E000FF337B624FF480633B6322E03B6A3A6BD9
:1018F00002FB03F2BB68796801FB03F3B2FBF3F36D
:10190000FB61FB699B0ABB61FB69C3F309037B6154
:10191000BB69B3F5806F09D87A697B6A9A4205D2B0
:101920007B697B62BB69BB623B6BFB623B6B013BD0
:101930003B633B6B002BD9D1FB6A013B43F4004274
:10194000FB681A61FB685A690D4B13407A68013ACB
:1019500092021A43BB6A013B1B041A43FB685A619B
:10196000002387F8373002E0012387F8373097F8F3
:10197000373018463837BD4680BD00BF1F85EB5154
:10198000EF8000FC80B58CB000AFF860B9607A6081
:10199000FEF7B4FE03463B62BB687A6802FB03F3C2
:1019A000FB610123FB623A6AFB699A425FDD3A6A96
:1019B000FB6992FBF3F3BB6210E0FB6A0133FB624D
:1019C000BB687A6802FB03F31A46FB6A03FB02F367
:1019D000FB613A6AFB6992FBF3F3BB62BB6A40F2BC
:1019E000FE329342E9D83A6A7B68B96A01FB03F395
:1019F000F96A01FB03F3B2FBF3F3BB613A6ABB6A1A
:101A00000133796801FB03F3F96A01FB03F3B2FBCD
:101A1000F3F37B61BA687B69D31A83EAE372A2EBC2
:101A2000E372B968BB69CB1A002BB8BF5B429A421C
:101A300002DABB6A0133BB62BB6AC3F58063BB6277
:101A4000BB6A43F48042FB681A61FB685A690C4B1D
:101A500013407A68013A92021A43FB6A013B1B0465
:101A60001A43FB685A61002387F8273002E00123FC
:101A700087F8273097F8273018463037BD4680BDA5
:101A8000EF8000FC80B485B000AFF8600B467A6050
:101A9000FB72FB689A69FB7A072101FA03F3DB43C7
:101AA0001A40FB7A796801FA03F31A43FB689A61DA
:101AB0001437BD465DF8047B704700BF80B582B027
:101AC00000AF78607B681B4A934218D14FF40060E6
:101AD000FEF748FF00BF4FF40060FEF75FFF0346CC
:101AE000002BF8D14FF40060FEF7C8FD00BF4FF4A3
:101AF0000060FEF7DFFD0346002BF8D117E07B689E
:101B00000D4A934213D10D48FEF72CFF00BF0B483E
:101B1000FEF744FF0346002BF9D10848FEF7AEFD5F
:101B200000BF0648FEF7C6FD0346002BF9D1083773
:101B3000BD4680BD08000340080002488000001038
:101B400080B400AFBD465DF8047B704780B584B0BB
:101B500000AF78607B685B685B6898470346FB73FF
:101B6000FB7B18461037BD4680BD00BF80B483B0F4
:101B700000AF78600B46FB701346BB70F878FB78BB
:101B80007A6806339B0013445B6823F00702BB7836
:101B90001A437968831D9B000B445A600C37BD467D
:101BA0005DF8047B704700BF80B483B000AF7860FD
:101BB0000B46FB707B685B6B23F07062FB78013B2C
:101BC0001B061A437B685A630C37BD465DF8047BDD
:101BD000704700BF80B483B000AF78600B46FB70E5
:101BE0007B685B6B23F47C12FB78013B1B041A437C
:101BF0007B685A630C37BD465DF8047B704700BFB5
:101C000080B483B000AF78607B689B6BDBB223F05D
:101C10007F03DBB218460C37BD465DF8047B704786
:101C200080B483B000AF786039603B684FF4803295
:101C30009A407B689A660C37BD465DF8047B704716
:101C400080B485B000AFF860B9607A60FB685B690A
:101C500023F05042BB681A437B681A43FB685A6101
:101C60001437BD465DF8047B704700BF80B483B075
:101C700000AF78600B46FB707B681B6C23F00F0293
:101C8000FB781A437B681A640C37BD465DF8047B09
:101C9000704700BF80B582B000AF78603960786867
:101CA00039680122FFF760FD0837BD4680BD00BFDF
:101CB00080B582B000AF786078680121FFF7D6FF69
:101CC0000837BD4680BD00BF80B483B000AF7860E8
:101CD0007B685B6B43F001027B685A630C37BD463F
:101CE0005DF8047B704700BF80B483B000AF7860BC
:101CF00039607B685B6923F4FE423B68013B9B02D1
:101D0000134343F480727B685A610C37BD465DF81B
:101D1000047B704780B584B000AFF860B9607A602A
:101D2000F868B9687A68FFF78BFF1037BD4680BD49
:101D300080B582B000AF78600B46FB70FB787868A6
:101D40001946FFF731FF0837BD4680BD80B582B028
:101D500000AF78600B46FB70FB7878681946FFF798
:101D600039FF0837BD4680BD80B582B000AF7860CE
:101D70000B46FB701346BB70F878FB787A68063325
:101D80009B0013445B6823F0500343F01002796812
:101D9000831D9B000B445A60FA78BB787868114623
:101DA0001A46FFF7E3FE0837BD4680BD80B582B016
:101DB00000AF0023FB71394800F04CF90346FB717A
:101DC000FB79002B64D136480121364AFFF752F9DE
:101DD000334801210122FFF73DFB31480121324AFE
:101DE000FFF786FB2E480021304AFFF743F92C48C5
:101DF00000210122FFF72EFB294800212C4AFFF782
:101E000077FB2C482C49FFF745FF2A48FFF75CFF7A
:101E100028480821FFF78CFF26483021FFF796FF5E
:101E2000244800210022FFF775FF22480221FFF716
:101E30005BFF22480421224AFEF7AAFA1D4800212E
:101E40000022FFF791FF1B48FFF732FF1B480521D7
:101E50001C4AFEF79DFA19480B211B4AFEF798FA17
:101E6000144804210022FFF70DFE12480821012228
:101E7000FFF708FE0F480C210122FFF703FE0D4873
:101E800010210222FFF7FEFD0A480021FFF7C8FEDD
:101E9000FB7918460837BD4680BD00BFC408FF1F48
:101EA000004001503408FF1FCD1E00085808FF1FD6
:101EB000051F0008000002482808FF1F0080024894
:101EC0001408FF1F0008FF1FD024000880B582B04F
:101ED00000AF0346FB71FB79012B0BD100BF074814
:101EE000FFF78EFE0346802BF9D0054B9B6800223E
:101EF00083F820200837BD4680BD00BF000002489F
:101F0000A008FF1F80B582B000AF0346FB71FB79CC
:101F1000012B12D10A484FF44041FFF76BFC094BEB
:101F20009B68002283F82120064B9B68012283F8DE
:101F30002220044B9B680022DA770837BD4680BD1B
:101F400000000248A008FF1F80B400AF044BDB680C
:101F500003F4E0631B0A1846BD465DF8047B704736
:101F600000ED00E080B483B000AF0346FB7197F949
:101F70000730002B0BDB084997F907305B09FA792A
:101F800002F01F02012000FA02F241F823200C3770
:101F9000BD465DF8047B704700E100E080B483B08B
:101FA00000AF03463960FB7197F90730002B0ADB5D
:101FB0000D4997F907303A68D2B29200D2B20B4479
:101FC00083F800230AE00949FB7903F00F03043B7F
:101FD0003A68D2B29200D2B20B441A760C37BD46A0
:101FE0005DF8047B704700BF00E100E000ED00E019
:101FF00080B489B000AFF860B9607A60FB6803F024
:102000000703FB61FB69C3F10703062B28BF062307
:10201000BB61FB690633062B02D9FB69013B00E07B
:1020200000237B61BB69012202FA03F35A1EBB68DD
:102030001A407B699A407B69012101FA03F3591E1A
:102040007B680B40134318462437BD465DF8047B7C
:10205000704700BF90B583B000AF78607B681B7A93
:1020600083F00103DBB2002B24D07B681B68184689
:10207000FEF75AFF7B685C7AFFF766FF01467B68D4
:102080005B681B781A467B685B685B78084611467C
:102090001A46FFF7ADFF024663B218461146FFF736
:1020A0007DFF7B685B7A5BB21846FFF75BFF7B685E
:1020B00001221A72002318460C37BD4690BD00BF9E
:1020C00080B500AF0148FFF727FA80BD00400150FE
:1020D00080B582B000AF78607B6819687B681A7C35
:1020E0007B680433084611461A46FEF751F97B68AF
:1020F00019687B681A7C7B685B7C084611461A4627
:10210000FFF710FB002318460837BD4680BD00BF0F
:1021100080B485B000AF78607B6803F00703FB6094
:102120000C4BDB68BB60BA684FF6FF031340BB6023
:10213000FB681A02BB68134343F0BF6343F40033E8
:10214000BB60044ABB68D3601437BD465DF8047BAE
:10215000704700BF00ED00E080B582B000AF012005
:10216000FFF7D6FF72B6214B214A9A60BFF34F8F1B
:1021700062B61E4A1D4BD3F8883043F47003C2F890
:1021800088301C4B03F5805314331B687B607B68DD
:1021900023F00F037B607B6843F004037B60154BE7
:1021A00003F5805314337A681A60104A0F4B5B6949
:1021B00023F0100353610D4A0C4B5B6923F00803B5
:1021C00053610A4A094B5B6A23F480335362074A1E
:1021D000064B5B6A23F400335362044A034B5B6A89
:1021E00023F4802353620837BD4680BD00ED00E034
:1021F000000000080010005880B485B000AF78607F
:102200000023FB737B6801221A70FB7B184614378E
:10221000BD465DF8047B704780B400AF024B1846A2
:10222000BD465DF8047B704700366E0180B483B014
:1022300000AF78600649064B9B6B23F480327B68C5
:1022400013438B630C37BD465DF8047B704700BFBA
:1022500000460050B0B586B000AF154B3C1D1D4682
:102260000FCD0FC42B6823603B1D1846FEF78AF97B
:102270000020FEF7AFFA4FF48030FEF763FA062035
:10228000FEF734FBFEF7AEFB03203221FEF7BAFB6C
:102290000020FFF7CBFF0220FEF750FB0020FEF7E7
:1022A00065FA0120FEF736FB1837BD46B0BD00BF0A
:1022B000AC25000880B582B000AF0023FB71154843
:1022C000FFF79AFF0346FB71FB79002B04D11248FC
:1022D000FFF7FEFE0346FB71FB79002B04D10F488C
:1022E000FFF7F6FE0346FB71FB79002B04D10C4887
:1022F000FFF7EEFE0346FB71FB79002B04D1094882
:10230000FFF724FC0346FB71FB7918460837BD46EE
:1023100080BD00BFF008FF1F70250008842500085D
:1023200098250008A008FF1F80B483B000AF786034
:102330000B46FB70FB7801229A407B685A600C3791
:10234000BD465DF8047B704780B483B000AF786011
:102350000B46FB70FB784FF480329A407B685A60E2
:102360000C37BD465DF8047B704700BF80B582B076
:1023700000AF78607B681A687B681B7C1046194642
:10238000FFF7D2FF0837BD4680BD00BF80B582B0E1
:1023900000AF78607B681A687B681B7C1046194622
:1023A000FFF7D2FF0837BD4680BD00BF80B485B0BF
:1023B00000AF78607B68322202FB03F3FB6000BF52
:1023C000FB685A1EFA60002BFAD11437BD465DF83F
:1023D000047B704780B483B000AF0346FB8018468F
:1023E0000C37BD465DF8047B704700BF80B584B0F4
:1023F00000AFFFF75FFF0346FB73FB7B002B00D0B2
:10240000FEE71648FFF7C2FF1548FFF7CFFF134856
:10241000FFF7ACFF1248FFF7C9FF1248FFF7A6FF0E
:102420004FF47A60FFF7C2FF0020FFF7D3FFB860D8
:10243000BB680D4A93420CD00848FFF7A7FF084835
:10244000FFF7B4FF0548FFF791FF0548FFF7AEFF20
:10245000F2E70248FFF79AFFFEE700BF7025000889
:10246000400D0300842500083036343670B50E4B1D
:102470000E4CE41AA41000251E46A54204D056F8BE
:10248000253098470135F8E7FFF75AFB084C094B10
:10249000E41AA41000251E46A54204D056F82530A3
:1024A00098470135F8E770BDD008FF1FD008FF1F1F
:1024B000D008FF1FD008FF1F008002480500000061
:1024C0000080024804000000008002480B00000069
:1024D000900000000100000001000000000000006A
:1024E000000000002808FF1FAD1D0008B8240008E8
:1024F0000008FF1FC02400081408FF1F0000000090
:10250000000000000000000000000000C8240008D7
:10251000D0240008000000000000000000000000BF
:1025200000000000000000000000000000000000AB
:10253000000000000000000000000000000000009B
:10254000000000000000000000000000000000008B
:10255000000000000000000000000000000000007B
:102560000000000000000000010100000200010066
:102570000080024880000000010000000700000009
:1025800002000000008102488000000001000000FD
:10259000000000000B0000000081024880000000E5
:1025A000010000000000000004000000180201010A
:1025B0000000010000000000000001000201010114
:1025C0009000000001000000010000000000000079
:1025D00000000000100000000000000000000000EB
:1025E000000000000000000040420F000000040056
:1025F0000000000001811000000000000000000049
:1026000000000000000000000000000000000000CA
:10261000000000000000B5000114200000000000D0
:1026200000000000000000000000000000000000AA
:10263000000000000000C2000000000008000000D0
:10264000000000000000000000000000000000008A
:102650000000000000000000000000000000010079
:1026600000000248E42400087C08FF1FC408FF1F84
:102670003408FF1F5808FF1F000000000001000081
:102680003F00000000400150C008FF1F006900002B
:0400000508000201EC
:00000001FF
