:020000040C00EE
:100000000008FF1F01020008990200089902000879
:1000100099020008990200089902000800000000F7
:10002000000000000000000000000000990200082D
:1000300099020008000000009902000899020008D7
:100040009902000899020008990200089902000824
:100050009902000899020008990200089902000814
:1000600099020008000000000000000000000000ED
:100070009902000800000000990200089902000897
:1000800099020008990200089902000899020008E4
:1000900099020008990200089902000899020008D4
:1000A000990200089902000800000000000000000A
:1000B0000000000000000000000000000000000040
:1000C0000000000000000000000000000000000030
:1000D0000000000000000000000000000000000020
:1000E00000000000000000009902000899020008CA
:1000F0009902000899020008990200089902000874
:1001000099020008454B020899020008990200086C
:1001100000000000000000000000000000000000DF
:1001200000000000000000000000000000000000CF
:100130009902000899020008990200089902000833
:1001400000000000000000000000000000000000AF
:10015000000000000000000000000000000000009F
:10016000000000000000000000000000000000008F
:1001700099020008990200089902000899020008F3
:1001800099020008990200089902000899020008E3
:1001900099020008990200089902000899020008D3
:1001A00099020008990200089902000899020008C3
:1001B00099020008990200089902000899020008B3
:1001C000000000000000000000000000000000002F
:1001D000000000000000000099020008000000007C
:1001E00099020008453F0208990200089902000898
:1001F00099020008394B02080000000000000000CE
:10020000DFF874D01D4880471D4C1E4DAC4209DA02
:1002100021686268A368043BA2BFC858D050FAE7BF
:100220000C34F3E7184B194CA34208DA19685A68E2
:100230000020043AA4BF8850FBE70833F4E71448D1
:100240008047144880470000705C020C0008FF1FC4
:10025000E00F0000705C020C0008FF1F00000000AF
:10026000E017FF1F901300000000002000000000B6
:1002700000000020000000000008FF1F010002082D
:1002800048020008600200086002000878020008C6
:10029000D150020845500208FEE70000FFFFFFFFB3
:1002A000FFFFFFFFFFFFFFFFFFFFFFFFFFFFFFFF5E
:1002B000FFFFFFFFFFFFFFFFFFFFFFFFFFFFFFFF4E
:1002C000FFFFFFFFFFFFFFFFFFFFFFFFFFFFFFFF3E
:1002D000FFFFFFFFFFFFFFFFFFFFFFFFFFFFFFFF2E
:1002E000FFFFFFFFFFFFFFFFFFFFFFFFFFFFFFFF1E
:1002F000FFFFFFFFFFFFFFFFFFFFFFFFFFFFFFFF0E
:020000040C02EC
:1000000098B500AF054A4FF0005314460FCB84E873
:100010000F0004F015FE04F091FE98BDC4FF00200F
:1000200080B584B000AF2F4BDB6803F48033002B26
:100030003ED02D4BDB6803F00103002B02D02B4B8D
:10004000FB6002E004F05CFEF860274B1B6803F0E5
:100050000403002B20D0244B9B6803F070631B0E1D
:100060000133BB60204B9B6803F4FE431B0A013342
:100070007B601D4B9B6803F4FE031B0C01333B604C
:10008000BB683A6802FB03F3FA68B2FBF3F37A68E1
:1000900002FB03F3FB600DE0134B9B6803F07F034F
:1000A00001333B60FA683B68B2FBF3F3FB6001E0AD
:1000B0000E4BFB600B4BDB68DBB20133FA68B2FB23
:1000C000F3F3FB60074B1B6903F001030133FA688C
:1000D000B2FBF3F3FB60064AFB6813601037BD46C2
:1000E00080BD00BF004600501047005000366E0132
:1000F000C0FF002080B582B000AF78600B467B80E7
:1001000013463B807B8803F1A84303F580333A888C
:100110007868194605F012F80837BD4680BD00BF63
:1001200080B584B000AFBA607B600346FB810B46AC
:100130007B73FB8941F2F802934201D00B2316E056
:100140003B7E002B01D0052311E07B7B002B01D0EF
:1001500011230CE0BB68082B01D90F2307E000F046
:100160000DF878680449BA6804F0E8FF00231846DF
:100170001037BD4680BD00BFE017FF1F80B582B0BD
:1001800000AF204B1B78002B2FD01F4BD3E900234F
:1001900013467B601D4B1B687B601B4BD3E9002320
:1001A0004FF000004FF0FF3100EA020001EA0301C6
:1001B0007B681A464FF0000342EA000243EA01035B
:1001C0001149C1E90023124B1B687A689A4208D290
:1001D0000D4BD3E90023003243F101030A49C1E981
:1001E00000230B4A7B68136005E007484FF4116158
:1001F0000822FFF77FFF074B00221A600837BD4631
:1002000080BD00BFDC29FF1FE017FF1F100901544C
:100210002028FF1F2428FF1F80B400AF144B5B8DE4
:10022000002B05D1124B1A8D124B1B899A4204D90F
:100230000F4B012283F8402003E00D4B002283F88E
:1002400040200D4B5B8D002B05D10B4B1A8D094BBC
:100250001B899A4204D9084B012283F8402003E00D
:10026000054B002283F84020BD465DF8047B7047B3
:10027000D42AFF1FCC13FF1F902AFF1F80B582B026
:1002800000AF434B20221A80414B00225A80404B42
:1002900000225A603E4B44F21F029A813C4B3D4A79
:1002A0001A613B4B00225A61394B00229A83384B2A
:1002B00000221A62364B00221A85354B00225A85DD
:1002C000334B002283F84020334B20221A80324BDC
:1002D00000225A802E4B5B682F4A53602C4B9A8920
:1002E0002D4B9A812C4B2B4A1A612B4B00225A61C1
:1002F000294B00229A83284B00221A62264B0022A7
:100300001A85254B00225A85234B002283F8402072
:10031000224B00221A7000F051F90346FB80FB8843
:10032000002B01D000F00AF91D4B00221A701D4B62
:1003300000221A701C4B00221A801C4B00221A70DB
:100340001B4B00221A601B4B00221A601A4B002222
:100350001A601A4B00221A6000233B60184B1B687E
:100360003B603B6803F00803002B03D0154B0022D1
:100370001A7006E0134B01221A70134B1B68134AC4
:100380001360134B4FF47A621A600837BD4680BD84
:10039000D42AFF1F48E80100902AFF1F182BFF1FD7
:1003A000382BFF1F392BFF1F6A2BFF1F6C2BFF1FE2
:1003B000482BFF1F242BFF1F342BFF1F4C2BFF1F2D
:1003C00008000154DC29FF1F100901542028FF1FD9
:1003D0002428FF1F80B485B000AF78607B68002BB5
:1003E00062D0354B1B68002B0CD1334A7B681360FD
:1003F000314B1B6800225A602F4B1B6800221A6089
:10040000002352E02C4B1B681A897B681B899A4297
:100410000FD97B6800221A60274B1A687B685A60E4
:10042000254B1B687A681A60234A7B681360002397
:100430003BE0214B1B68FB6033E0FB681A897B685B
:100440001B899A4201D101232FE0FB681A897B683E
:100450001B899A4213D9FB681A687B681A607B680B
:10046000FA685A60FB681B68002B03D0FB681B68A6
:100470007A685A60FB687A681A60002315E0FB68A6
:100480005B68002B0AD1FB687A685A607B68FA685F
:100490001A607B6800225A60002306E0FB685B68F4
:1004A000FB60FB68002BC8D1012318461437BD46FA
:1004B0005DF8047B704700BFEC17FF1F80B487B066
:1004C00000AF0346FB801C4B1B687B612BE07B6904
:1004D0001B89FA889A4223D17B691B683B617B693F
:1004E0005B68FB603B69002B02D03B69FA685A608D
:1004F000FB68002B02D0FB683A691A607B69002216
:100500001A607B6900225A607B691A890A4B1B6852
:100510001B899A4203D1084AFB68136006E005E094
:100520007B695B687B617B69002BD0D11C37BD4642
:100530005DF8047B704700BFEC17FF1F80B582B0E9
:1005400000AF0C4B1B687B6000237B8009E07B685D
:100550001B897B807B685B687B607B881846FFF724
:10056000ADFF7B68002BF2D1024B00221A600837E6
:10057000BD4680BDEC17FF1F80B584B000AF78602A
:100580000023FB817B68BB600CE0B868FFF722FFAB
:100590000346FB81FB89002B01D0FB8909E0BB6886
:1005A0002833BB60BB681B894FF6FF729342ECD1C6
:1005B000FB8918461037BD4680BD00BF80B582B0AC
:1005C00000AF0023FB800B4B00221A600A48FFF7A4
:1005D000D3FF0346FB80FB88002B01D0FB8805E09E
:1005E0000648FFF7C9FF0346FB80FB88184608371B
:1005F000BD4680BDEC17FF1FEC09FF1F0008FF1F61
:1006000080B400AF044BD3F820329BB21846BD46ED
:100610005DF8047B704700BF0000015480B582B0D4
:1006200000AF78600B467B8013463B807B8803F1EC
:10063000A84303F580333A887868194604F07EFDB4
:100640000837BD4680BD00BF80B582B000AF78607E
:100650000B467B8013463B807A883B88786811463E
:100660001A46FFF7DBFF0837BD4680BD80B582B074
:1006700000AF78600B467B8013463B807B8803F19C
:10068000A84303F580333A881846796804F056FD8C
:100690000837BD4680BD00BF80B582B000AF78602E
:1006A0000B467B8013463B807A883B8878681146EE
:1006B0001A46FFF7DBFF0837BD4680BD80B500AFA7
:1006C000FFF79EFF0346184680BD00BF80B500AF10
:1006D000FFF7F4FF0346184680BD00BF80B582B027
:1006E00000AF00237B60FFF7F1FF03467B801B4BCD
:1006F0009B8B03F00103002B05D1194B9B8B03F05F
:100700000103002B03D0002000F046F97860154863
:1007100000F06CFE144B1A88144B1B8811481146CC
:100720001A46FFF7B9FF0D4B9B8B03F00103002B1B
:1007300005D10B4B9B8B03F00103002B0BD078688A
:1007400000F02AF97860064B5A697B689A4202D217
:10075000034A7B6853610837BD4680BDD42AFF1F1A
:10076000902AFF1F0029FF1FFA29FF1FE229FF1F00
:1007700080B582B000AF00237B60214B9B8B03F0E0
:100780000103002B05D11F4B9B8B03F00103002BB2
:100790000ED0002000F000F978601B4A7B681360DF
:1007A0001A4B01221A701A4B00221A6000F0B4F89A
:1007B000184B1A88184B1B88184811461A46FFF721
:1007C00043FF164800F01CFE0D4B9B8B03F001030A
:1007D000002B05D10B4B9B8B03F00103002B0BD09F
:1007E000786800F0D9F87860054B5A697B689A42BE
:1007F00002D2034A7B6853610837BD4680BD00BF03
:10080000D42AFF1F902AFF1FFC28FF1F3028FF1F3C
:100810004C28FF1FC229FF1FB629FF1F5028FF1FAA
:1008200080B500AF324B1B78002B0DD0314B1B88AD
:100830001BB2002B08DD2F4B1B889BB29BB2013BE8
:100840009BB29AB22B4B1A8000F01AFC2A4B1B88E1
:10085000002B18D0294B1B8801339AB2274B1A80E2
:10086000254B1A88254B1B889A420CD8224B002214
:100870001A80224B00221A80214B1B68002B02D0C9
:100880001F4B1B6898471F4B1B7883F00103DBB29B
:10089000002B11D11C4BD3E900234FF0FF304FF058
:1008A000000102EA000203EA010318484FF00001C8
:1008B000994208BF90420CD3134BD3E9002314484C
:1008C0004FF00001121843EB01030F49C1E9002367
:1008D00007E00C4B1B78002B03D00E4B4FF47A62D1
:1008E0001A600C4B1B6801330A4A136080BD00BFBD
:1008F000E029FF1FEA29FF1FA829FF1FEC28FF1F7F
:100900002828FF1FDC29FF1FE017FF1F40FBE1FF26
:1009100040420F002428FF1F80B500AF1A4B1B7800
:1009200083F00103DBB2002B2DD0184B1B68002B8A
:1009300023D0164B1B68184600F02EF80246134BC6
:100940001A60134B5B68002B05D0114B5A680F4B94
:100950001B689A4203D90D4B1B680D4A53600D4B1F
:100960005B68002B05D00B4B5A68084B1B689A42FA
:1009700003D9064B1B68074A5360002000F00CF8AF
:100980000246024B1A6080BDEC29FF1F3428FF1F6E
:10099000D42AFF1F902AFF1F80B485B000AF786073
:1009A0000023BB600023FB60154B1B68BB60BB686A
:1009B000002B0DD07A68BB689A4204D8BA687B686D
:1009C000D31AFB6004E0BA687B68D31A013BFB6072
:1009D0007B68002B0CD00B4B1A68FB689A4205D23F
:1009E000084B1B68FA68D31AFB6001E00023FB6028
:1009F000FB6818461437BD465DF8047B704700BF9E
:100A0000100901544428FF1F80B582B000AF0023B5
:100A1000FB71FFF75BFE0346BB80BB8803F0080356
:100A2000002B03D000F074F90123FB714D4B1B78B0
:100A3000002B00F08180BB8803F48063002B39D049
:100A4000494B1B78002B06D0484B1B78002B02D05B
:100A5000474B00221A80474B1B8D002B05D0454B7E
:100A60001B8D013B9AB2434B1A85424B1A8D424B68
:100A70001A85424B01221A70414B1B78002B02D081
:100A8000FFF776FE16E03F4B1B8803F1A84303F502
:100A900080331B78DAB23C4B1A703A4B1B881A46EB
:100AA0003A4B1B8813441A46394B13441B78DAB26D
:100AB000354B1A702F4B5B88012B01D100F0EAF9FE
:100AC000344B1B78002B0DD0334B1B88002B09D0E7
:100AD000294B5B88012B03D0274B5B88222B01D14C
:100AE000FFF7FCFDFFF7F2FD0346BB80BB8803F474
:100AF0008063002B20D01F4B5B8D01339AB21D4BBE
:100B00005A851C4B5A8D1C4B5A851E4B1B8803F172
:100B1000A84303F580331B78DAB21B4B1A70194BCC
:100B20001B881A46194B1B8813441A46184B13444A
:100B30001B78DAB2144B1A70BB8803F00403002B45
:100B400003D000F02DF80123FB71FB79002B04D0BA
:100B500000233B60114B1B683B60FFF75DFB0837D0
:100B6000BD4680BDF329FF1FD029FF1FEC29FF1FC1
:100B7000F629FF1FD42AFF1F902AFF1FE829FF1F15
:100B8000ED29FF1FC229FF1FCC29FF1FB629FF1F18
:100B9000FFFF0054F229FF1FE229FF1F8C090154B7
:100BA00080B582B000AF4E4B00221A804D4B1B78AF
:100BB000002B00F090800023FB714B4B1B78002B27
:100BC0001BD04A4B1B88002B17D0494B1B88002B8E
:100BD00013D0464B1A88474B1B889A4205D9454B80
:100BE0001B8801339AB2434B1A80404B1A88414B01
:100BF0001B889A4201D10123FB713F4B1B88002BBC
:100C00005BD03E4B1A883C4B1B889A4223D93C4B05
:100C10001B88002B0BD03B4B1A8D3B4B1B899A42F8
:100C200005D8384B1B8D03339AB2364B1A85304B9F
:100C30001B88002B0FD0324B1B88002B0BD1334B62
:100C40001A8D314B1B899A4205D8304B1B8D0333CB
:100C50009AB22E4B1A852A4B1B88002B21D1244B8C
:100C60001B88002B1DD0FFF731FD0346BB80BB88DE
:100C700003F40063002B0CD1204B1A881E4B1B88F9
:100C80009A420DD81D4B1B8801339AB21B4B1A8018
:100C900013E01A4B00221A801C4B00221A850CE02C
:100CA0000BE0164B1A88144B1B889A4205D8134B3D
:100CB0001B8801339AB2114B1A8000F0EBF8FB79D4
:100CC000002B08D0FFF70AFD084B1B88012B02D12F
:100CD000084B00221A80FFF79FFA0837BD4680BDF7
:100CE000BC29FF1FEC29FF1FF229FF1FDE29FF1F70
:100CF000E229FF1FBE29FF1FE429FF1FF629FF1F5E
:100D0000B629FF1FD42AFF1FCC13FF1F902AFF1FF5
:100D100080B500AF0C4B00221A800C4B1B78002BC7
:100D20000DD00B4B1B88002B09D00A4B5B88032B83
:100D300005D1094B1B88002B01D1FFF7CFFC074BD6
:100D400000221A8080BD00BFEE29FF1FF229FF1F7D
:100D5000E229FF1F902AFF1FDE29FF1FBE29FF1F68
:100D600080B586B000AF0023FB81394B394A1A6049
:100D7000394B00221A60394B00221A60384B00228E
:100D80001A60384B00221A60374B00221A60374B2A
:100D900000221A60364B00221A6000F005FAFFF7B5
:100DA0006DFA344B01221A70334B00221A70334B08
:100DB00000221A60324B00221A60324B00221A6065
:100DC0000023BB6000237B6100233B6126E02E4BA8
:100DD0001B68BB602C4B1B683B61BA683B699A423D
:100DE00004D83A69BB68D31A3B6104E03A69BB682E
:100DF000D31A013B3B61234B1B68002B03D1214AD3
:100E00003B69136007E01F4B1A683B699A4202D99D
:100E10001C4A3B6913607B6901337B617B69B3F5D5
:100E20007A7FD4D30023FB80184B1B88FB80FB8880
:100E300003F04003002B03DD154B08221A8002E06B
:100E4000134B04221A80FB8918461837BD4680BD13
:100E50009C29FF1FCC0BFF1F3828FF1F3C28FF1FBA
:100E6000A429FF1F2828FF1F2C28FF1FF028FF1F81
:100E7000F428FF1FF017FF1F3028FF1F3428FF1F23
:100E8000FC28FF1F4428FF1F1009015402050154CC
:100E9000EE28FF1F80B500AF0A4B9B8B03F00103C8
:100EA000002B05D1084B9B8B03F00103002B05D0D1
:100EB000064B1B88002B01D1FFF72EFD00F0AAFA8C
:100EC00080BD00BFD42AFF1F902AFF1FB629FF1F35
:100ED00080B400AF044B00221A60044B00221A8039
:100EE000BD465DF8047B7047AC29FF1F402BFF1FF8
:100EF00080B584B000AF0346FB80084B1B88FB81A4
:100F0000FA89FB881340FB8103F036FE034AFB8914
:100F1000138003F023FE1037BD4680BD0402015448
:100F200080B483B000AF0023FB800C4B1B88FB8098
:100F3000FB8803F40063002B04DCFB8803F480537C
:100F4000002B03DD064B00221A7002E0044B012245
:100F50001A700C37BD465DF8047B704702050154DA
:100F6000F117FF1F80B485B000AF0346FB7101236A
:100F70007B73FB799BB2DB009BB203F60703FB811B
:100F8000FB8903F1A84303F580337A7BD2B21A7050
:100F9000FB8903F1A84303F580331B78DBB27B7335
:100FA0007B7BDBB203F00103002BF1D01437BD468D
:100FB0005DF8047B704700BF80B485B000AF034686
:100FC0000A46FB711346BB80BB88FB81264B1B780E
:100FD000FA799A4202D0244AFB791370BB884FF603
:100FE000FF72934202D0214AFB8913801E4B1B786B
:100FF000FB811F4AFB891380BB88002B04D0FB793F
:1010000003F01003002B03D11A4B00221A701AE0D0
:10101000BB882D2B09D0BB881A2B06D0BB88322B5E
:1010200003D0154B1B78002B03D0124B01221A70F2
:1010300009E0BB881B2B03D10E4B02221A7002E081
:101040000C4B0D221A700B4B1B7843F01003DAB2D5
:10105000084B1A70094B074A12781A701437BD46AC
:101060005DF8047B704700BFB529FF1F34010154B0
:1010700030010154F929FF1FBA29FF1F390101541A
:1010800080B400AF3C4B1B78002B71D03B4B1B78DE
:10109000002B6DD03A4B1B88002B09D0394B1A8896
:1010A000374B1B889A4203D3374B00221A700EE04D
:1010B000344B1A88324B1B889A4205D2314B1B881D
:1010C00001339AB22F4B1A802F4B01221A702E4BEC
:1010D0001B78002B13D02D4B1B88002B0FD02C4BD3
:1010E0001A882A4B1B889A4206D2294B1B88013347
:1010F0009AB2274B1A8002E0234B00221A70224B2F
:101100001B78002B2DD0234B1B89002B05D0224BA5
:101110001A8D204B1B899A4212D2204B01221A7041
:101120001F4B1B881BB2002B09DD1E4B1B889BB27B
:101130009BB201339BB29AB21A4B1A8010E00FE0B7
:10114000164B1B78002B13D0144B00221A70144B33
:101150001B881BB2002B0BDD124B00221A8007E00C
:1011600006E00E4B1B78002B02D00C4B00221A70AD
:10117000BD465DF8047B7047EC29FF1FF229FF1F75
:10118000C429FF1FBC29FF1FD029FF1FCA29FF1F29
:10119000EE29FF1FCC13FF1FD42AFF1FE929FF1FD1
:1011A000C829FF1FC029FF1F80B582B000AF394B8F
:1011B0001B78DAB2384B1A70384B1B889AB2384B0E
:1011C0001A80374B1B889B029BB203F6FF739AB2BF
:1011D000334B1A80FFF7A4FE0023FB7106E0FB7976
:1011E0001846FFF7BFFEFB790133FB712A4B1B78D2
:1011F000FA799A42F3D300F07FF82A4B00221A7052
:10120000294B00221A70294B00221A70284B002209
:101210001A70284B00221A70274B00221A70274B95
:1012200000221A80264B00221A80264B00221A80A8
:10123000254B00221A80254B00221A80244B0022C5
:101240001A70244B00221A70234B00221A80234B61
:1012500000221A80224B00221A80224B00221A8080
:10126000214B01221A70204B1B7818460021FFF7F2
:10127000A3FE1E4B00221A801D4B00221A701D4B2C
:1012800000221A70FFF724FE0020FFF731FE083716
:10129000BD4680BD05000154F829FF1F060001541A
:1012A000E629FF1FB429FF1FE029FF1FE829FF1FC0
:1012B000ED29FF1FF229FF1FF429FF1FF029FF1F4F
:1012C000BC29FF1FC429FF1FEE29FF1FCA29FF1FCA
:1012D000EC29FF1FBA29FF1FB829FF1FCE29FF1FC6
:1012E000B629FF1FE229FF1FB529FF1FB229FF1FE3
:1012F000F929FF1FF329FF1F80B483B000AF294BEA
:1013000024221A80284B80221A80284B4FF48052C6
:101310001A80274B4FF480521A80264B00221A80E5
:10132000244B00225A80234B0A229A80224B00220F
:101330001A80214B00225A801F4B0A229A801F4B91
:1013400000221A601E4B00221A601E4B00221A60F7
:101350001D4B00221A601D4B00221A700023FB71E6
:101360001B4B1B78FB71FB7923F00203FB71184ABE
:10137000FB791370174B00221A70174B00221A705A
:10138000164B00221A70164B00221A70154B0022C1
:101390001A70154B00221A700C37BD465DF8047B9D
:1013A000704700BF862AFF1F742AFF1F6C2AFF1F89
:1013B0007E2AFF1F342AFF1F002AFF1F802AFF1FDB
:1013C0008C2AFF1F782AFF1F702AFF1F882AFF1F01
:1013D0000F0801546A2AFF1F692AFF1F7C2AFF1F7A
:1013E000852AFF1F842AFF1FFC29FF1F80B483B0BA
:1013F00000AF78600C37BD465DF8047B704700BFD6
:1014000080B483B000AF78600C37BD465DF8047BD4
:10141000704700BF80B400AFBD465DF8047B7047E5
:1014200080B485B000AFBA607B600346FB810B4699
:101430007B73002318461437BD465DF8047B704764
:1014400080B483B000AF054B7B607B6850221A608C
:101450000C37BD465DF8047B704700BF5455000C47
:1014600080B485B000AF78603960074BFB60FB68E3
:101470007A681A60054BFB60FB683A681A6014379B
:10148000BD465DF8047B7047F055000CF455000C28
:1014900080B485B000AF78600C4BFB60FB68AA227B
:1014A0001A600B4BFB60FB6855221A60074BFB6010
:1014B000FB68A0221A607B68FB60FB68AA221A60A6
:1014C0001437BD465DF8047B704700BF5455000CCF
:1014D000A8AA000C80B485B000AF7860114BFB6007
:1014E000FB68AA221A60104BFB60FB6855221A6049
:1014F0000C4BFB60FB6880221A600A4BFB60FB68A8
:10150000AA221A60084BFB60FB6855221A607B68B0
:10151000FB60FB6830221A601437BD465DF8047B1F
:10152000704700BF5455000CA8AA000C80B483B0CB
:1015300000AF054B7B607B68F5221A600C37BD4617
:101540005DF8047B704700BF5455000C80B500AFB8
:10155000FFF7ECFF80BD00BF80B400AF044B03F584
:10156000805310331B681846BD465DF8047B7047F6
:101570000010005880B584B000AF78603960FFF784
:10158000D5FFFFF75DFF0023FB6011E0FB689B00C8
:101590003A6813441968FB6801339B003A681344A6
:1015A0001B6808461946FFF75BFFFB680233FB60C8
:1015B000FB683F2BEAD97868FFF76AFF00BF064B4C
:1015C00003F5805310331B6803F00103002BF6D1A1
:1015D0001037BD4680BD00BF0010005880B582B0F6
:1015E00000AF7860FFF7A2FF7868FFF773FF00BFD6
:1015F000054B03F5805310331B6803F00103002BE8
:10160000F6D10837BD4680BD0010005880B485B0C3
:1016100000AFF8600B467A60FB72FB7A9B08DBB286
:101620001846FB7A9B08DBB21A46FB68043253F873
:101630002220FB7A03F00303DB001946F8238B40DA
:10164000DB4302EA0301FB68021D43F82210FB683A
:101650005A6FFB7A5B00194603238B40DB431A4029
:10166000FB685A67FB683A4A934203D0FB68394AE1
:1016700093420AD1FB681A6EFB7A012101FA03F347
:10168000DB431A40FB681A6642E07B681B78DBB2DA
:101690005BB2002B3CDA7B685A68FB7A9A40FB68A5
:1016A0005A60FB7ADB08DBB21846FB7ADB08DBB258
:1016B0001A46FB68103253F82220FB7A03F0070326
:1016C0009B00194607238B40DB4302EA0301FB68BA
:1016D00000F1100243F82210FB7ADB08DBB2184657
:1016E000FB7ADB08DBB21A46FB68103253F8222083
:1016F0007B681B7A1946FB7A03F007039B0001FA0B
:1017000003F342EA0301FB6800F1100243F82210E0
:10171000FB7A9B08DBB21846FB7A9B08DBB21A46C1
:10172000FB68043253F822207B681B781946FB7A49
:1017300003F00303DB0001FA03F342EA0301FB6851
:10174000021D43F822101437BD465DF8047B704734
:10175000008E0248008F024880B400AF034B1B6824
:101760001846BD465DF8047B704700BFC0FF0020EF
:1017700080B400AF034BD3F8C4301846BD465DF8C3
:10178000047B70470040005080B584B000AF7860A3
:10179000FEF746FC0B4B1B680B4AA2FB03239A0C7B
:1017A0007B6802FB03F37B600023FB6003E000BF68
:1017B000FB680133FB60FA687B689A42F7D3103705
:1017C000BD4680BDC0FF002083DE1B4380B400AF58
:1017D000034B5B681846BD465DF8047B704700BF4D
:1017E0007440005080B483B000AF7860034A7B68D7
:1017F000D3600C37BD465DF8047B704774400050E1
:10180000B0B584B002AF7860002000F0C5F800F0F9
:10181000C7FA7B68DB79002B0AD000F0FFFA00BF23
:1018200000F0EAFA034683F00103DBB2002BF7D1A4
:101830007B685B7A184600F029F900BFFFF798FF34
:101840000346002BFAD17B681B7A184600F082FA17
:101850007B681B7C184600F037F97B685B7C184678
:1018600000F05AF97B689B7C184600F041F97B68D0
:10187000DB7C184600F064F97B689B79002B0AD06A
:1018800000F004FB00BF00F029FB034683F00103D6
:10189000DBB2002BF7D17B68DB78002B09D17B68AA
:1018A0009B7983F00103DBB2002B17D000F03AFBE9
:1018B00014E000F027FB7B6899887B68DA787B6806
:1018C0005B781D467B681B781C467B689B78009381
:1018D000084611462A46234600F034FB7B68DB6845
:1018E000B3F5803F03D14FF4803000F055F8FEF798
:1018F00097FB0837BD46B0BD80B485B000AF7860B7
:101900007B681B0FFB607B6823F07043BB60FA6849
:1019100013465B0013449B001A46044B1344BA68F9
:101920001A601437BD465DF8047B704714440050BC
:1019300080B485B000AF78607B681B0FFB607B686C
:1019400023F07043BB60FA6813465B0013449B00AE
:101950001A46084B13441A68BB681340002B14BF87
:1019600001230023DBB218461437BD465DF8047B23
:10197000704700BF0C44005080B500AFFFF7ECFE8D
:101980000246044B5B6903F0010322FA03F3184695
:1019900080BD00BF0046005080B483B000AF7860C7
:1019A0000649064BDB6823F480327B681343CB6027
:1019B0000C37BD465DF8047B704700BF0046005001
:1019C00080B483B000AF78600649064B9B6923F46E
:1019D00080327B6813438B610C37BD465DF8047B16
:1019E000704700BF0046005080B483B000AF7860FD
:1019F0000649064B5B6A23F440327B6813434B6213
:101A00000C37BD465DF8047B704700BF00460050B0
:101A100080B483B000AF0346FB80FB88002B08D165
:101A20000A4A0A4BDB6823F4807323F00103D36076
:101A300007E0064A054BDB6843F4807343F001037B
:101A4000D3600C37BD465DF8047B704710470050EB
:101A500080B483B000AF0346FB7100BF094BD3F8DD
:101A6000C43003F00803002BF8D10749064BDB68AC
:101A700023F04002FB791343CB600C37BD465DF881
:101A8000047B7047004000500043005080B483B096
:101A900000AF0346FB7100BF094BD3F8C43003F01D
:101AA0000803002BF8D10749064BDB6823F08002BE
:101AB000FB791343CB600C37BD465DF8047B704760
:101AC000004000500043005080B483B000AF786005
:101AD0000649064BDB6823F0FF027B68013B13439A
:101AE000CB600C37BD465DF8047B70470046005064
:101AF00080B483B000AF78600649064B1B6A23F0C0
:101B000001027B68013B13430B620C37BD465DF855
:101B1000047B70470046005080B483B000AF78600B
:101B20000649064B1B6923F001027B68013B134306
:101B30000B610C37BD465DF8047B704700460050D2
:101B400080B483B000AF78600649064B5B6923F030
:101B500001027B68013B13434B610C37BD465DF8C6
:101B6000047B70470046005080B483B000AF7860BB
:101B70000649064B9B6923F007027B68013B134330
:101B80008B610C37BD465DF8047B70470046005002
:101B900080B483B000AF78600649064B5B6A23F0DF
:101BA000FF027B68013B13434B620C37BD465DF877
:101BB000047B70470046005080B483B000AF78606B
:101BC0000649064B9B6B23F003027B68013B1343E2
:101BD0008B630C37BD465DF8047B704700460050B0
:101BE00080B483B000AF0346FB71044AFB795360B5
:101BF0000C37BD465DF8047B704700BF00460050BF
:101C000080B485B000AF78607B681B0FFB607B6899
:101C100023F07043BB60FA6813465B0013449B00DB
:101C20001A46044B1344BA681A601437BD465DF86F
:101C3000047B70474846005080B485B000AF7860A0
:101C40007B681B0FFB607B6823F07043BB60FA6806
:101C500013465B0013449B001A46084B13441A6852
:101C6000BB681340002B14BF01230023DBB21846CE
:101C70001437BD465DF8047B704700BF40460050F6
:101C800080B400AF054A054B5B6923F4803323F031
:101C900002035361BD465DF8047B70471047005056
:101CA00080B483B000AF78603960284A274B5B6905
:101CB00043F00103536100BF244B1B6903F0010390
:101CC000002BF9D0214A214B5B6943F0100353618B
:101CD0001E493B68013B1A027B68013B1B0613430C
:101CE0004B611A4A194B5B6943F040035361174A31
:101CF000164B5B6923F010035361144A134B5B6965
:101D000043F48023536100BF104B1B6903F00403AD
:101D1000002BF9D00D4A0D4B5B6923F00103536191
:101D200000BF0A4B1B6903F00103002BF9D1074ADE
:101D3000064B5B6923F040035361054B0822DA60D0
:101D40000C37BD465DF8047B704700BF104700505C
:101D50006041005080B582B000AF0346FB710F4A6E
:101D60000E4B5B6843F480135360FB79012B0ED15B
:101D70000A4A0A4B5B6823F4801353606420FFF720
:101D800003FD064A054B5B6843F40023536064205F
:101D9000FFF7FAFC0837BD4680BD00BF1047005072
:101DA00080B400AF124B1B6803F00103002B09D174
:101DB0000F4B01225A6000BF0D4B1B6803F001035B
:101DC000002BF9D00B4B1B6803F40073002B0AD0D7
:101DD000084B4FF400729A6000BF064B1B6803F477
:101DE0000073002BF9D1BD465DF8047B704700BF3E
:101DF000004200500044005080B400AF064B1B6806
:101E000003F00803002B0CBF01230023DBB21846AC
:101E1000BD465DF8047B70470043005080B500AFBD
:101E20004FF40000FFF7DEFC174A174BDB6923F085
:101E30003003D36100BFFFF7C9FC034603F400037E
:101E4000002BF8D04FF40030FFF7CCFC0E4B0822EB
:101E50005A6000BFFFF7BAFC034603F40033002BBF
:101E6000F8D04FF40020FFF7BDFC074A064BDB68B3
:101E700043F00803D36000BFFFF7A8FC034603F458
:101E80000023002BF8D080BD00430050B0B500AF58
:101E90000F4A0F4B5B6823F4803353600D4D0D4B9D
:101EA0005B6823F4702424F0300402F029FF02461A
:101EB000094BA3FB02231B0D013B1B0423436B6057
:101EC000034A034B5B6823F400335360B0BD00BF8B
:101ED00010470050004700506BCA5F6B80B400AFE2
:101EE000074B1B6803F46073B3F5607F0CBF0123DD
:101EF0000023DBB21846BD465DF8047B704700BF87
:101F00001047005080B400AF054A054B5B6823F4CE
:101F1000803323F002035360BD465DF8047B7047B5
:101F20001047005080B400AF054A054B5B6843F48E
:101F3000803343F002035360BD465DF8047B704775
:101F40001047005080B586B000AFBA607B60034692
:101F5000FB810B467B73FB891846FFF759FD7B7BA2
:101F6000012B40F08B80FB89002B09D102F0C8FEC9
:101F70000246544BA3FB02239B0C9B057B6102E0B2
:101F80004FF0C0637B617B697A6802FB03F2BB6838
:101F9000B2FBF3F37B617B694B4AA2FB03231B0972
:101FA0009B0D3B61494A494B5B6843F00103536019
:101FB00000BF464B1B6803F00103002BF9D0434AD6
:101FC000424B5B6843F01003536040493F4B9A68B3
:101FD0003F4B13407A68013A12021A433B69013BB6
:101FE0001B041A43BB68013B1B0613438B60374A33
:101FF000364B5B6843F040035360344A334B5B68B5
:1020000023F010035360314A304B5B6843F4802364
:10201000536000BF2D4B1B6803F00403002BF9D065
:102020002A4A2A4B5B6823F00103536000BF274B09
:102030001B6803F00103002BF9D17B69254AA2FB41
:1020400003235B099B0D3B613A6A3B699A4202D2CA
:10205000386900F045F87B695B081F4AA2FB03233F
:102060005B099B0D3B613A6A3B699A4202D238692F
:1020700000F036F8386A00F033F81CE01349134BCF
:102080009B6823F07F023B6A013B13438B6000BFD8
:102090000E4B1B6803F01003002BF9D00B4A0B4BBF
:1020A0005B6843F00103536000BF084B1B6803F0FB
:1020B0000103002BF9D0094B0522DA601837BD4621
:1020C00080BD00BF83DE1B43ABAAAAAA1047005005
:1020D000FF8080F089888888B7600BB66041005027
:1020E00080B582B000AF78600B490B4B9B6823F43E
:1020F000FE027B68013B1B0413438B6000BF064B51
:102100001B6803F02003002BF9D03220FFF73CFBC3
:102110000837BD4680BD00BF1047005080B483B073
:1021200000AF78607B684FF48072DA600C37BD4690
:102130005DF8047B704700BF80B582B000AF786067
:102140007B68084A934203D10420FFF7D5FB06E0E1
:102150007B68054A934202D10820FFF7CDFB083780
:10216000BD4680BD00C000400000014080B582B087
:1021700000AF78607B68084A934203D10420FFF7E0
:102180003FFD06E07B68054A934202D10820FFF735
:1021900037FD0837BD4680BD00C00040000001404B
:1021A00080B582B000AF78601020FFF719FD786825
:1021B000FFF7DCFF7868FFF7BFFF0837BD4680BD3B
:1021C00080B584B000AF78600B46FB707868FFF78D
:1021D000E7FF7868FFF7A2FF7B681B68FB60FB687E
:1021E00023F44043FB60FB789B03FA681343FB60D6
:1021F0007B68FA681A601037BD4680BD80B483B032
:1022000000AF786039603B681A687B685A613B6848
:102210005B79C3F34013DBB21A057B685A603B68F5
:102220001B79C3F30303DBB21A467B685A623B682F
:102230005B79C3F30303DBB21A467B681A623B681F
:102240005B79C3F30013DBB21A467B689A613B6883
:102250001B79C3F30313DBB21A467B68DA620C37CF
:10226000BD465DF8047B704780B487B000AF7860EE
:102270000B46FB701346BB70FB780B2B36D801A2C4
:1022800052F823F0B5220208B5220208BF22020844
:10229000BF220208ED220208ED220208ED22020808
:1022A000ED220208C9220208D5220208E122020812
:1022B000E122020803233B6100237B611BE00C2326
:1022C0003B6102237B6116E04FF440733B610823BE
:1022D0007B6110E04FF440633B610A237B610AE0BD
:1022E0004FF440533B610C237B6104E000233B61CE
:1022F00000237B6100BF3B69002B13D07B68D3F8C0
:10230000A830FB603B69DB43FA681340FB60BA7896
:102310007B6902FA03F3FA681343FB607B68FA688F
:10232000C3F8A8201C37BD465DF8047B704700BF8A
:1023300080B483B000AF78607B68D3F86033184610
:102340000C37BD465DF8047B704700BF80B483B096
:1023500000AF78607B68D3F8E83218460C37BD468A
:102360005DF8047B704700BF80B483B000AF786035
:102370007B68D3F8F03218460C37BD465DF8047B15
:10238000704700BF80B483B000AF78607B68D3F83B
:10239000F83218460C37BD465DF8047B704700BF25
:1023A00080B483B000AF78607B68D3F80033184600
:1023B0000C37BD465DF8047B704700BF80B483B026
:1023C00000AF78607B68D3F8083318460C37BD46F9
:1023D0005DF8047B704700BF80B582B000AF7860C5
:1023E000786800F003F80837BD4680BD80B582B03C
:1023F00000AF78600648FFF703FC0548FFF77CFA5A
:102400007B680122C3F898230837BD4680BD00BF12
:102410001000002080B584B000AF78601E48FFF740
:1024200087FA0346002B14BF01230023DBB283F09D
:102430000103DBB2FB73FB7B03F00103FB73FB7B4C
:10244000002B0AD01448FFF7F7FB034683F0010383
:10245000DBB2002B01D0012300E00023FB73FB7BE8
:1024600003F00103FB73FB7B002B0FD0FB7B002BE6
:1024700006D07B68D3F89833002B01D0012300E00D
:102480000023FB73FB7B03F00103FB73FB7B18460C
:102490001037BD4680BD00BF1000002080B483B05F
:1024A00000AF78600B46FB701346BB700F480F4BB4
:1024B0009A68FB789B0019460F238B40DB431A4038
:1024C000BB78F97889008B40134383600749074B39
:1024D0001A69FB7803F00703012000FA03F31343A2
:1024E0000B610C37BD465DF8047B70470049005016
:1024F00080B483B000AF78600B46FB707B68D3F884
:10250000A023FB7822FA03F303F00103002B14BF8E
:1025100001230023DBB218460C37BD465DF8047B6F
:10252000704700BF80B586B000AFF8600B467A6098
:10253000FB72F868FFF76EFF0346002B00F0DB81AB
:10254000FB7AF8681946FFF7D3FF034683F00103CF
:10255000DBB2002B00F0CC81FB7A7A685268F96814
:10256000582000FB03F30B441A60FB7A7A689268E8
:10257000F968582000FB03F30B4408331A60FB7A18
:102580007A68D2681046FA68582101FB03F31344B5
:1025900010331860FB7A7A68128B1046FA6858215B
:1025A00001FB03F3134418335860FB7A7A6812680E
:1025B000F968582000FB03F30B4418331A60FB7AC8
:1025C0007A68D27E42F44062F968582000FB03F337
:1025D0000B4440331A60FB68A64A934216D1FB7A3B
:1025E000012B13D8FB7A7A681269F968582000FB2E
:1025F00003F30B4448331A60FB7A7A685269F9682E
:10260000582000FB03F30B4450331A607B681B8C8B
:10261000002B44D17B689B7803F07003DBB2102B56
:1026200006D07B689B7803F07003DBB2302B36D189
:102630007B6893F8223003F00703BB757B6893F83F
:1026400022301B097B75FB7AFA7AF968582000FB67
:1026500002F20A4440325168BA7DD2020A43F96854
:10266000582000FB03F30B4440335A60BA7D7B7D56
:10267000F86811461A46FFF711FFFB7AFA7AF968F3
:10268000582000FB02F20A444032126822F48062B1
:10269000F968582000FB03F30B4440331A607B6851
:1026A0009B8B002B42D17B689B7803F07003DBB2DD
:1026B000202B06D07B689B7803F07003DBB2302BB5
:1026C00034D17B689B7F03F00703BB757B689B7FDE
:1026D0001B097B75FB7AFA7AF968582000FB02F235
:1026E0000A4440325168BA7DD2010A43F968582041
:1026F00000FB03F30B4440335A60BA7D7B7DF868DE
:1027000011461A46FFF7CAFEFB7AFA7AF968582092
:1027100000FB02F20A444032126822F40062F968B7
:10272000582000FB03F30B4440331A60FB7AF8682F
:1027300019461F2200F00EF97B689B7E082B00F2E1
:10274000D38001A252F823F0E92802086D2702087D
:1027500093270208B9270208DF2702080528020884
:102760004F28020879280208C3280208FB7AFA7A5F
:10277000F968582000FB02F20A444032126842F025
:102780000042F968582000FB03F30B4440331A6001
:10279000ABE0FB7AFA7AF968582000FB02F20A44AF
:1027A0004032126842F08042F968582000FB03F37F
:1027B0000B4440331A6098E0FB7AFA7AF9685820A3
:1027C00000FB02F20A444032126842F04042F968CB
:1027D000582000FB03F30B4440331A6085E0FB7A7A
:1027E000FA7AF968582000FB02F20A44183212689B
:1027F00042F00062F968582000FB03F30B441833E1
:102800001A6072E0FB7AFA7AF968582000FB02F24B
:102810000A444032126842F08042F968582000FBB6
:1028200003F30B4440331A60FB7AFA7AF9685820B4
:1028300000FB02F20A441832126842F00062F968A2
:10284000582000FB03F30B4418331A604DE0FB7A69
:10285000FA7AF968582000FB02F20A44183212682A
:1028600042F08052F968582000FB03F30B44183300
:102870001A603AE000400150FB7AFA7AF968582071
:1028800000FB02F20A444032126842F00042F9684A
:10289000582000FB03F30B4440331A60FB7AFA7AAA
:1028A000F968582000FB02F20A441832126842F01C
:1028B0008052F968582000FB03F30B4418331A6068
:1028C00013E0FB7AFA7AF968582000FB02F20A4416
:1028D0001832126842F0C052F968582000FB03F326
:1028E0000B4418331A6000E000BF0023FB7504E0BE
:1028F0000223FB7501E00123FB75FB7D18461837A9
:10290000BD4680BD80B487B000AFF8600B467A60EA
:10291000FB7200237B6114E07B697A6822FA03F37F
:1029200003F00103002B09D07B695A00FB7A40F2C7
:1029300001119940FB68C43243F822107B690133CE
:102940007B617B69042BE7D91C37BD465DF8047BAE
:10295000704700BF80B487B000AFF8600B467A6064
:10296000FB7200237B6113E07B697A6822FA03F330
:1029700003F00103002B08D07B695A00FB7A012188
:102980009940FB68CE3243F822107B6901337B61AA
:102990007B69042BE8D91C37BD465DF8047B704782
:1029A00080B485B000AFF8600B467A60FB72FB7AAA
:1029B00004497A6841F823201437BD465DF8047B4A
:1029C000704700BFF417FF1F80B588B000AF786074
:1029D0007F4BBB617868FFF7ABFC78610023FB613C
:1029E0007B6903F01003002B2BD07868FFF7E6FC1F
:1029F000786121E00122FB6902FA03F33B617A6905
:102A00003B691340002B14D0FB69DBB27868194690
:102A10001022FFF79FFFFB699B00BA6913441B68F4
:102A2000FB60FB68002B03D0FB681020984707E091
:102A300006E0FB690133FB617B69002BDAD1C3E05F
:102A4000C2E07B6903F00103002B2BD07868FFF70D
:102A50007DFC786121E00122FB6902FA03F33B610E
:102A60007A693B691340002B14D0FB69DBB27868AC
:102A700019460F22FFF76EFFFB699B00BA691344EA
:102A80001B68FB60FB68002B03D0FB6801209847A4
:102A900007E006E0FB690133FB617B69002BDAD1BB
:102AA00092E091E07B6903F00203002B2BD0786861
:102AB000FFF75AFC786121E00122FB6902FA03F377
:102AC0003B617A693B691340002B14D0FB69DBB290
:102AD000786819460E22FFF73DFFFB699B00BA6933
:102AE00013441B68FB60FB68002B03D0FB680220CB
:102AF000984707E006E0FB690133FB617B69002B27
:102B0000DAD161E060E07B6903F00403002B2BD095
:102B10007868FFF737FC786121E00122FB6902FA4F
:102B200003F33B617A693B691340002B14D0FB69C6
:102B3000DBB2786819460422FFF70CFFFB699B00A3
:102B4000BA6913441B68FB60FB68002B03D0FB6869
:102B50000420984707E006E0FB690133FB617B69CD
:102B6000002BDAD130E02FE07B6903F00803002B63
:102B70002AD07868FFF714FC786121E00122FB6914
:102B800002FA03F33B617A693B691340002B14D0CE
:102B9000FB69DBB2786819460822FFF7DBFEFB69A8
:102BA0009B00BA6913441B68FB60FB68002B03D0D1
:102BB000FB680820984707E006E0FB690133FB61EA
:102BC0007B69002BDAD1FFE72037BD4680BD00BF0F
:102BD000F417FF1F80B500AF0648FFF711F805484E
:102BE000FEF78AFE00BF0348FEF7A2FE0346002B55
:102BF000F9D180BD0004002080B582B000AF7860BC
:102C0000FFF7E8FF194A7B681B68C2F80835174AC6
:102C10007B685B68C2F80C35144A144BB3F8023574
:102C20009BB243F480639BB2A2F802350F4A7B68E3
:102C30009B68C2F808350D4A7B68DB68C2F80C3522
:102C40000A4A0A4BB3F802359BB243F480639BB245
:102C5000A2F8023500BF054BB3F802359BB203F46E
:102C60008053002BF7D10837BD4680BD00000154CA
:102C700080B483B000AF78600649064BD3F80422D5
:102C80007B68DB431340C1F804320C37BD465DF866
:102C9000047B70470000015480B483B000AF03464A
:102CA000FB71FB79DB0003F1A84303F58433FA7968
:102CB000D20002F1A84202F58432D279D2B242F0B7
:102CC0000102D2B2DA710C37BD465DF8047B704761
:102CD00080B483B000AF78607B681B687A68526804
:102CE0009A607B681B687A6892689A61002318462C
:102CF0000C37BD465DF8047B704700BF80B500AF60
:102D00000648FEF77DFF0548FEF7F6FD044A044B32
:102D10001B6823F00103136080BD00BF400000204A
:102D20000000025080B487B000AFF860B9607A60EC
:102D30003B600023FB757B68002B04D07B6803F0AD
:102D40000303002B02D00223FB7513E00AE0FB68AB
:102D50001B68BA6812681A60BB680433BB607B6882
:102D6000043B7B607B68002BF1D1FB681B689A6990
:102D70003B681A60FB7D18461C37BD465DF8047B36
:102D8000704700BF80B483B000AF78600B46FB7023
:102D90001346BB707B685A6FFB785B0019460323B0
:102DA0008B40DB431A407B685A677B685A6FBB785D
:102DB000F97849008B401A437B685A670C37BD4647
:102DC0005DF8047B704700BF80B584B000AFF86049
:102DD000B9601346FB71F86800F08CF8BB685B794A
:102DE000002B15D1FB79002B12D0BB681B79002B6F
:102DF00007D0BB681B68F8681946022200F026F964
:102E000006E0BB681B68F8681946022200F0ACF8BF
:102E1000FB680F4A5A63FB684FF4A2629A63BB686F
:102E20005B79002B07D1BB689B7943F00B03DBB2C6
:102E30001A46FB68DA63FB684FF0FF32DA64BB685E
:102E40001B891A46FB681A641037BD4680BD00BF57
:102E500002013F0780B485B000AF78607B68D3F88B
:102E60000C3103F0E063002B03D17B685B6DFB81C9
:102E700003E07B68D3F81C31FB81FB8918461437CB
:102E8000BD465DF8047B704780B483B000AF7860C6
:102E900039607B681A6C3B6803F4FE331A437B6825
:102EA0001A647B68DA6B3B685B039BB21A437B68EE
:102EB000DA630C37BD465DF8047B704780B483B09D
:102EC00000AF786039607B681A6C3B6803F4FE33AE
:102ED000DB431A407B681A647B68DA6B3B685B03F0
:102EE0009BB2DB431A407B68DA630C37BD465DF862
:102EF000047B704780B582B000AF78607B68144A6D
:102F0000934203D07B68134A934203D1124800F0E6
:102F100039F90AE07B68114A934203D07B68104A72
:102F2000934202D10F4800F02DF97B680322DA604A
:102F300000BF7B68DB6803F00103002BF9D07B68DE
:102F40001B6C23F00F027B681A640837BD4680BDF6
:102F50000000034000020340080003400000024854
:102F6000000202480800024880B58EB000AFF86049
:102F7000B9607A60BB68632B5AD97B68002B57D045
:102F8000FEF7FAFC02462F4BA3FB02235B093B62D0
:102F9000BB682C4AA2FB03235B09BB604FF4806330
:102FA000FB620123BB6240F2FF337B624FF480631C
:102FB0003B6322E03B6A3A6B02FB03F2BB68796831
:102FC00001FB03F3B2FBF3F3FB61FB699B0ABB61FB
:102FD000FB69C3F309037B61BB69B3F5806F09D853
:102FE0007A697B6A9A4205D27B697B62BB69BB6264
:102FF0003B6BFB623B6B013B3B633B6B002BD9D1D3
:10300000FB6A013B43F40042FB681A61FB685A69A2
:103010000D4B13407A68013A92021A43BB6A013B96
:103020001B041A43FB685A61002387F8373002E01B
:10303000012387F8373097F8373018463837BD46C0
:1030400080BD00BF1F85EB51EF8000FC80B58CB0C8
:1030500000AFF860B9607A60FEF78EFC03463B6211
:10306000BB687A6802FB03F3FB610123FB623A6AE7
:10307000FB699A425FDD3A6AFB6992FBF3F3BB623C
:1030800010E0FB6A0133FB62BB687A6802FB03F362
:103090001A46FB6A03FB02F3FB613A6AFB6992FB87
:1030A000F3F3BB62BB6A40F2FE329342E9D83A6A5C
:1030B0007B68B96A01FB03F3F96A01FB03F3B2FB16
:1030C000F3F3BB613A6ABB6A0133796801FB03F32E
:1030D000F96A01FB03F3B2FBF3F37B61BA687B6926
:1030E000D31A83EAE372A2EBE372B968BB69CB1A25
:1030F000002BB8BF5B429A4202DABB6A0133BB6263
:10310000BB6AC3F58063BB62BB6A43F48042FB6861
:103110001A61FB685A690C4B13407A68013A9202B3
:103120001A43FB6A013B1B041A43FB685A610023E4
:1031300087F8273002E0012387F8273097F82730F7
:1031400018463037BD4680BDEF8000FC80B485B0A6
:1031500000AFF8600B467A60FB72FB689A69FB7AF5
:10316000072101FA03F3DB431A40FB7A796801FA7D
:1031700003F31A43FB689A611437BD465DF8047B7C
:10318000704700BF80B582B000AF78607B681B4A93
:10319000934218D14FF40060FEF732FD00BF4FF4A8
:1031A0000060FEF749FD0346002BF8D14FF40060A4
:1031B000FEF7A2FB00BF4FF40060FEF7B9FB034629
:1031C000002BF8D117E07B680D4A934213D10D48CC
:1031D000FEF716FD00BF0B48FEF72EFD0346002B41
:1031E000F9D10848FEF788FB00BF0648FEF7A0FBB0
:1031F0000346002BF9D10837BD4680BD08000340C7
:10320000080002488000001080B400AFBD465DF8A1
:10321000047B704780B483B000AF78600B46FB70CE
:10322000FB7801229A407B68DA600C37BD465DF876
:10323000047B704780B483B000AF78607B68012264
:10324000DA600C37BD465DF8047B704780B483B00C
:1032500000AF78607B6802221A610C37BD465DF8CA
:10326000047B704780B483B000AF78600B467B80EE
:103270007A887B685A630C37BD465DF8047B7047DB
:1032800080B483B000AF78600B467B807A887B681F
:10329000DA630C37BD465DF8047B704780B483B0B9
:1032A00000AF786039607B683A681A610C37BD46B8
:1032B0005DF8047B704700BF80B483B000AF7860D6
:1032C0000B46FB707B68D3F8A420FB78012101FA40
:1032D00003F31A437B68C3F8A4200C37BD465DF89E
:1032E000047B704780B584B000AF78600023FB7327
:1032F0007B6893F8263083F00103DBB2002B09D002
:103300007B6893F82130002B04D1786800F026F810
:103310000346FB73FB7B18461037BD4680BD00BFDC
:1033200080B584B000AF78607B6893F82630002BBE
:103330000CD07B6893F82130002B04D17B685B694B
:103340001846FFF777FF0023FB7301E00123FB73AF
:10335000FB7B18461037BD4680BD00BF80B584B0EA
:1033600000AF78607B681B69184600F001FE0346D9
:10337000FB737B681B699A687B681B7E1046194645
:10338000FFF748FF7B685A697B68DB69104619467E
:10339000FEF734FF786800F02DF87B6893F825304D
:1033A000002B0FD07B685A697B6893F82030104659
:1033B00000211A46FEF758FF7B685B69184600211A
:1033C000FFF77AFF7B685B691846FFF73FFF7B6872
:1033D000012283F826207B6893F82430002B04D048
:1033E0007B685B691846FFF725FFFB7B18461037A3
:1033F000BD4680BD80B582B000AF78607B685A69F9
:103400007B685B8C10461946FFF72CFF7B685B6975
:1034100018460021FFF734FF7B681B699A687B68B8
:10342000DB6810461946FFF739FF0837BD4680BDF7
:1034300080B483B000AF78600B46FB707B681B6C78
:1034400023F0C002FB789B01DBB21A437B681A644D
:103450000C37BD465DF8047B704700BF80B483B075
:1034600000AF78600B46FB70FB7840F201129A4087
:103470007B68C3F8A0230C37BD465DF8047B70471A
:1034800080B485B000AFF8600B467A60FB72FB7ABF
:10349000FA68582101FB03F313447A681A60143761
:1034A000BD465DF8047B704780B485B000AFF8601E
:1034B0000B467A60FB72FB7AFA68582101FB03F332
:1034C000134408337A681A601437BD465DF8047BEC
:1034D000704700BF80B485B000AFF8600B467A60DB
:1034E000FB72FB7AFA68582101FB03F3134418338B
:1034F0007A685A601437BD465DF8047B704700BF98
:1035000080B584B000AF78607B685B685B68984783
:103510000346FB73FB7B18461037BD4680BD00BFDA
:1035200080B586B000AFF860B9607A600123FB75A2
:10353000FB685B6893F88430012B06D1F868B968A2
:103540007A6800F007F80346FB75FB7D18461837CC
:10355000BD4680BD80B588B000AFF860B9607A60C4
:103560000423FB77FB689B687B61FB685B6893F8CF
:103570008430012B40F0BC807B6993F82030DBB2B3
:1035800083F00103DBB2002B00F0B080BB68002B9E
:1035900000F0A9807B68002B00F0A5807B68B3F564
:1035A000805F80F0A0807B697A685A607B69002226
:1035B0009A607B69012283F820207B6993F821308F
:1035C000DBB2002B29D0FB68DB681A68FB685B7FE5
:1035D0001946582303FB01F3134418331B683B615E
:1035E0003B6923F4C06343F480633B61FB68DB68A1
:1035F0001A68FB685B7F1946582303FB01F31344E9
:1036000018333A691A60FB689B681B7FDBB21A4665
:103610004FF6FB731340BB6125E07B69BA689A6182
:10362000FB68DB681A68FB685B7F1946582303FB5D
:1036300001F3134418331B683B613B6923F4C063F7
:103640003B61FB68DB681A68FB685B7F194658239F
:1036500003FB01F3134418333A691A60FB689B6853
:103660001B7FDBB2BB61FB681B6818464FF48061AF
:10367000FFF70AFCFB68DB681A68FB685B7F104693
:1036800019467A68FFF726FFFB68DB681968FB6854
:103690005A7F7B699B69084611461A46FFF7F0FE80
:1036A000FB681A687B691B7FDBB210461946FFF77F
:1036B000BFFEFB68DB681868FB68597FFB681A6807
:1036C000BB6920339B0013441A46FFF7EDFE00232D
:1036D000FB77FB68DB681A68FB685B7F104619465E
:1036E000FFF7BCFE04E00323FB7701E00223FB7736
:1036F000FB7F18462037BD4680BD00BF80B586B031
:1037000000AFF860B9607A603B600223FB75FB682C
:103710009B683B613B691B7FDBB2002B3FD1BB68E1
:10372000002B38D07B68002B35D03B68002B32D083
:103730003B69DB7FDBB283F00103DBB2002B29D0D6
:103740003B6993F82030DBB283F00103DBB2002B3E
:1037500020D03B690122DA773B697A685A613B697C
:10376000BA689A613B693A685A603B69002283F8FB
:1037700021203B69002283F82220FB685B6893F8D4
:103780008530012B06D1F868396800F00FF8034640
:10379000FB7503E002E00323FB7502E001E0012377
:1037A000FB75FB7D18461837BD4680BD80B584B0DB
:1037B00000AF786039607B689B68FB60FB68002223
:1037C0001A61FB683A68DA607B681B68184600F08B
:1037D00047F87B681B6818464FF44041FFF754FBDD
:1037E0007B68DB6819687B681A7FFB68DB680846C2
:1037F00011461A46FFF76EFE7B68DB6819687B6826
:103800001A7F7B681B685433084611461A46FFF737
:1038100037FE7B68DB6819687B681A7FFB685B6929
:10382000084611461A46FFF73FFE0023FB727B68ED
:10383000DB681A687B681B7F10461946FFF70EFE8F
:10384000FB689A69FB685B68786811461A46FFF75F
:1038500067FE0346FB72FB7A18461037BD4680BDF3
:1038600080B582B000AF78607868FFF7F3FA7868C7
:10387000FFF7F0FA0837BD4680BD00BF80B483B0C3
:1038800000AF78600B46FB701346BB70F878FB788E
:103890007A6806339B0013445B6823F00702BB7809
:1038A0001A437968831D9B000B445A600C37BD4650
:1038B0005DF8047B704700BF80B483B000AF7860D0
:1038C0000B46FB707B685B6B23F07062FB78013BFF
:1038D0001B061A437B685A630C37BD465DF8047BB0
:1038E000704700BF80B483B000AF78600B46FB70B8
:1038F0007B685B6B23F47C12FB78013B1B041A434F
:103900007B685A630C37BD465DF8047B704700BF87
:1039100080B483B000AF78607B689B6BDBB223F030
:103920007F03DBB218460C37BD465DF8047B704759
:1039300080B483B000AF786039603B684FF4803268
:103940009A407B689A660C37BD465DF8047B7047E9
:1039500080B485B000AFF860B9607A60FB685B69DD
:1039600023F05042BB681A437B681A43FB685A61D4
:103970001437BD465DF8047B704700BF80B483B048
:1039800000AF78600B46FB707B681B6C23F00F0266
:10399000FB781A437B681A640C37BD465DF8047BDC
:1039A000704700BF80B582B000AF7860396078683A
:1039B00039680122FFF708FA0837BD4680BD00BF0D
:1039C00080B582B000AF786078680121FFF7D6FF3C
:1039D0000837BD4680BD00BF80B483B000AF7860BB
:1039E0007B685B6B43F001027B685A630C37BD4612
:1039F0005DF8047B704700BF80B483B000AF78608F
:103A000039607B685B6923F4FE423B68013B9B02A3
:103A1000134343F480727B685A610C37BD465DF8EE
:103A2000047B704780B584B000AFF860B9607A60FD
:103A3000F868B9687A68FFF78BFF1037BD4680BD1C
:103A400080B582B000AF78600B46FB70FB78786879
:103A50001946FFF731FF0837BD4680BD80B582B0FB
:103A600000AF78600B46FB70FB7878681946FFF76B
:103A700039FF0837BD4680BD80B582B000AF7860A1
:103A80000B46FB701346BB70F878FB787A680633F8
:103A90009B0013445B6823F0500343F010027968E5
:103AA000831D9B000B445A60FA78BB7878681146F6
:103AB0001A46FFF7E3FE0837BD4680BD80B582B0E9
:103AC00000AF0023FB71394800F006FA0346FB7192
:103AD000FB79002B64D136480121364AFEF722FDDE
:103AE000334801210122FEF70DFF31480121324AFE
:103AF000FEF756FF2E480021304AFEF713FD2C48F2
:103B000000210122FEF7FEFE294800212C4AFEF783
:103B100047FF2C482C49FFF745FF2A48FFF75CFF79
:103B200028480821FFF78CFF26483021FFF796FF31
:103B3000244800210022FFF775FF22480221FFF7E9
:103B40005BFF22480421224AFDF760FD1D48002149
:103B50000022FFF791FF1B48FFF732FF1B480521AA
:103B60001C4AFDF753FD19480B211B4AFDF74EFD7A
:103B7000144804210022FFF7E9FA12480821012223
:103B8000FFF7E4FA0F480C210122FFF7DFFA0D4896
:103B900010210222FFF7DAFA0A480021FFF7C8FED7
:103BA000FB7918460837BD4680BD00BFB417FF1F1C
:103BB000004001502417FF1FDD3B02084817FF1F7C
:103BC000153C0208000002481817FF1F0080024839
:103BD0000417FF1FF016FF1F645B020880B582B058
:103BE00000AF0346FB71FB79012B0BD100BF0748E7
:103BF000FFF78EFE0346802BF9D0054B9B68002211
:103C000083F820200837BD4680BD00BF0000024871
:103C10009017FF1F80B582B000AF0346FB71FB79A0
:103C2000012B12D10A484FF44041FFF747F9094BE5
:103C30009B68002283F82120064B9B68012283F8B1
:103C40002220044B9B680022DA770837BD4680BDEE
:103C5000000002489017FF1F80B400AF044BDB68E0
:103C600003F4E0631B0A1846BD465DF8047B704709
:103C700000ED00E080B483B000AF0346FB7197F91C
:103C80000730002B0BDB084997F907305B09FA79FD
:103C900002F01F02012000FA02F241F823200C3743
:103CA000BD465DF8047B704700E100E080B483B05E
:103CB00000AF03463960FB7197F90730002B0ADB30
:103CC0000D4997F907303A68D2B29200D2B20B444C
:103CD00083F800230AE00949FB7903F00F03043B52
:103CE0003A68D2B29200D2B20B441A760C37BD4673
:103CF0005DF8047B704700BF00E100E000ED00E0EC
:103D000080B489B000AFF860B9607A60FB6803F0F6
:103D10000703FB61FB69C3F10703062B28BF0623DA
:103D2000BB61FB690633062B02D9FB69013B00E04E
:103D300000237B61BB69012202FA03F35A1EBB68B0
:103D40001A407B699A407B69012101FA03F3591EED
:103D50007B680B40134318462437BD465DF8047B4F
:103D6000704700BF80B582B000AF78607B681B7879
:103D70005BB21846FFF77EFF0837BD4680BD00BF27
:103D800090B583B000AF78607B681C78FFF764FF64
:103D900001467B685B781A467B689B78084611462B
:103DA0001A46FFF7ADFF024663B218461146FFF709
:103DB0007DFF7B68DB78002B02D07868FFF7D2FFAD
:103DC000002318460C37BD4690BD00BF80B400AF3D
:103DD000044BDB6803F4E0631B0A1846BD465DF83C
:103DE000047B704700ED00E080B483B000AF034671
:103DF000FB7197F90730002B0BDB084997F9073067
:103E00005B09FA7902F01F02012000FA02F241F880
:103E100023200C37BD465DF8047B704700E100E0CD
:103E200080B483B000AF03463960FB7197F9073067
:103E3000002B0ADB0D4997F907303A68D2B292009D
:103E4000D2B20B4483F800230AE00949FB7903F05E
:103E50000F03043B3A68D2B29200D2B20B441A76F6
:103E60000C37BD465DF8047B704700BF00E100E001
:103E700000ED00E080B489B000AFF860B9607A600E
:103E8000FB6803F00703FB61FB69C3F10703062B23
:103E900028BF0623BB61FB690633062B02D9FB69E9
:103EA000013B00E000237B61BB69012202FA03F3BE
:103EB0005A1EBB681A407B699A407B69012101FA4E
:103EC00003F3591E7B680B40134318462437BD4645
:103ED0005DF8047B704700BF90B583B000AF786099
:103EE0007B681B7A83F00103DBB2002B24D07B6854
:103EF0001B681846FEF770FA7B685C7AFFF766FF6E
:103F000001467B685B681B781A467B685B685B7858
:103F1000084611461A46FFF7ADFF024663B218463F
:103F20001146FFF77DFF7B685B7A5BB21846FFF7AF
:103F30005BFF7B6801221A72002318460C37BD46CE
:103F400090BD00BF80B500AF0148FEF73DFD80BDCC
:103F50000040015080B483B000AF78607B684FF4BC
:103F60008072DA600C37BD465DF8047B704700BF95
:103F700080B582B000AF78607B685B7B83F0010323
:103F8000DBB2002B0FD07B689A687B681B7B1046E6
:103F90001946FEF715F97B689B681846FFF7DAFFAC
:103FA0007B6801225A73002318460837BD4680BD3E
:103FB00080B483B000AF0346FB710949084B03F599
:103FC000805318331B6823F00F02FB791A4301F565
:103FD000805318331A600C37BD465DF8047B704778
:103FE0000010005880B400AF0749074B03F5805319
:103FF00018331B6823F4004201F5805318331A600C
:10400000BD465DF8047B70470010005880B400AFD7
:104010000749074B03F5805318331B6843F40042EC
:1040200001F5805318331A60BD465DF8047B704774
:104030000010005880B483B000AF786039607B68AE
:104040001B683A689A610C37BD465DF8047B70477F
:1040500080B584B000AF78600023FB727B681B786A
:1040600083F00103DBB2002B4CD0294B00225A60B5
:10407000284B00225A600120FFF79AFFFFF7C6FF86
:10408000FEF73CFE2448FEF723FE0023FB6005E01C
:10409000F86800F043F9FB680133FB60FB68032B11
:1040A000F6D90020FFF784FFFB7A002B25D100F022
:1040B0008BF90346FB72FB7A002B1ED1154B5B6814
:1040C000002B06D1134B00229A60124B134A1A6040
:1040D00013E000F0D1F90F4B1A680E4B5B68D31A4E
:1040E000B3F5805F01D00123FB720A4B1B680C4AB9
:1040F000934202D9074B094A1A60FFF773FF7B68A6
:1041000001221A70FB7A18461037BD4680BD00BFE9
:104110001418FF1FD017FF1F085C02080000010CD5
:10412000FFFF010C80B586B000AF03463960FB800D
:104130001346BB80FB880833124A13443B61BB889B
:10414000386939681A4600F0E9FF0346002B14BFAE
:1041500001230023FB730023FB820AE0FB8A3A69F8
:104160001344FA8A39680A4412781A70FB8A0133B8
:10417000FB82FA8ABB889A42F0D3FB7B1846183739
:10418000BD4680BD1418FF1F80B485B000AF034644
:104190003960FB801346BB80FB8808330C4A13440C
:1041A000BB600023FB810AE0FB893A681344FA896B
:1041B000B9680A4412781A70FB890133FB81FA89C5
:1041C000BB889A42F0D31437BD465DF8047B704734
:1041D0001418FF1F80B582B000AF0023FB71224B83
:1041E0009B6803F5405304339B033B601E4B1A68E6
:1041F0003B689A4211D11D4B5B68002B0DD01A4BC6
:104200005B6803F440439B0B174A9360164B0F22E5
:10421000DA6000F0D9F80346FB71FB79002B1DD161
:10422000124B5B680133114A536000F039F80346C2
:10423000FB71FB79002B03D10B4B1B680A4A5360BF
:10424000094B1B6803F58053074A1360064B1B6834
:10425000074A934202D9044B064A1A60FB79184672
:104260000837BD4680BD00BFD017FF1F1418FF1FC1
:10427000FFFF010C0000010C80B483B000AF0023ED
:10428000FB71064B5B68002B01D10123FB71FB79AD
:1042900018460C37BD465DF8047B7047D017FF1FEA
:1042A00080B584B000AF0023FB70184B1B68FB6027
:1042B000174BBB60174800F0C7F80246144B1A6052
:1042C00000237B601AE0FDF741F9F868B968FDF753
:1042D00051F9FDF741F902460F4B1340002B02D074
:1042E0000323FB700DE0BB6803F58073BB60FB68C4
:1042F00003F58073FB607B6801337B607B680F2B69
:10430000E1D9FB7818461037BD4680BDD017FF1F96
:104310001418FF1F1818FF1F0001008080B58AB015
:1043200000AF78607B6803F5405304339B03FB6167
:10433000FB6903F540537B6200233B627B6ABB61F0
:10434000BB695B687B617B69002B2ED01C4BDA68F4
:104350007B68012101FA03F31343194AD3603B6AD6
:10436000002B03D17B6A03F580533B62BB691B685A
:104370003B61BB690433184600F066F8F860FA68E0
:104380003B699A4211D10F4B5A687B699A420CD211
:104390000C4A7B6953600A4A7B689360084A7B6ACF
:1043A0005360074A3B6A136007E07B6AA3F58053BA
:1043B0007B627A6AFB699A42C0D22837BD4680BDCB
:1043C000D017FF1F1418FF1F80B584B000AF002363
:1043D000FB720023FB601B4B9A68FB689A4226D055
:1043E000184BDA68FB6822FA03F303F00103002B91
:1043F0001DD0FB6803F5405304339B037B60FDF73E
:10440000A5F87B681846FDF7E9F8FDF7A5F803461F
:10441000202B02D00423FB720FE00A4BDA68FB6802
:10442000012101FA03F3DB431340064AD360FB6822
:104430000133FB60FB68032BCDD9FB7A184610379C
:10444000BD4680BDD017FF1F80B584B000AF786037
:1044500008480021FFF7EEFD07F10C0305487968D5
:1044600040F6FC72FEF75EFCFB6818461037BD464E
:1044700080BD00BF085C020880B485B000AF0F4B60
:104480005B68BB600E4B7B600023FB600CE0FB684D
:104490009B007A681344FA689200B9680A4412686B
:1044A0001A60FB680133FB60FB68B3F5806FEED3E5
:1044B0001437BD465DF8047B704700BFD017FF1F5F
:1044C0001418FF1F80B584B000AF78600123FB6033
:1044D0007B681B681846FFF7BBFD0346FB60FB6863
:1044E000002B47D1FFF7C8FE0346002B0AD000205F
:1044F00023494FF40062FFF715FEFFF76BFE0346FA
:10450000FB6005E000201E494FF40062FFF73CFE0F
:10451000FB68002B2ED17B685B681846FEF7E2FE35
:104520000346FB60FB68002B24D17B689B68184620
:10453000FFF726FC0346FB60FB68002B1AD100F056
:104540003BF90346FB60FB68002B13D1FCF708FC2A
:104550000346FB60FB68002B0CD10A4B0A4A1A6029
:104560000A4B0B4A1A607B685B681846FEF7D8FE58
:104570000346FB60FB68DBB218461037BD4680BDC2
:10458000CC0BFF1FA429FF1FAD4A02083C28FF1FC8
:10459000194A020880B400AFBD465DF8047B70473D
:1045A00080B400AFBD465DF8047B704780B400AFB7
:1045B000044BDB6803F4E0631B0A1846BD465DF854
:1045C000047B704700ED00E080B483B000AF034689
:1045D000FB7197F90730002B0BDB084997F907307F
:1045E0005B09FA7902F01F02012000FA02F241F899
:1045F00023200C37BD465DF8047B704700E100E0E6
:1046000080B483B000AF0346FB7197F90730002BED
:1046100010DB0B4997F907305B09FA7902F01F02AA
:10462000012000FA02F2203341F82320BFF34F8F1C
:10463000BFF36F8F0C37BD465DF8047B704700BF3A
:1046400000E100E080B483B000AF03463960FB7145
:1046500097F90730002B0ADB0D4997F907303A68C4
:10466000D2B29200D2B20B4483F800230AE0094987
:10467000FB7903F00F03043B3A68D2B29200D2B246
:104680000B441A760C37BD465DF8047B704700BFBB
:1046900000E100E000ED00E080B489B000AFF86018
:1046A000B9607A60FB6803F00703FB61FB69C3F143
:1046B0000703062B28BF0623BB61FB690633062BC5
:1046C00002D9FB69013B00E000237B61BB69012249
:1046D00002FA03F35A1EBB681A407B699A407B6951
:1046E000012101FA03F3591E7B680B40134318465E
:1046F0002437BD465DF8047B704700BF80B485B0A9
:1047000000AF3B1D83E80700064A7B681360054A3B
:10471000BB685360034AFB6893601437BD465DF87D
:10472000047B7047B041005080B582B000AF786024
:104730000B467B8013463B807B8803F1A84303F53F
:1047400080333A887868194600F0F8FC0837BD468F
:1047500080BD00BF80B582B000AF78600B467B8023
:1047600013463B807B8803F1A84303F580333A88E6
:104770001846796800F0E2FC0837BD4680BD00BFEE
:1047800080B582B000AF78607B681B785BB218465A
:10479000FFF71AFF0837BD4680BD00BF80B582B065
:1047A00000AF78607B681B785BB21846FFF728FF84
:1047B0000837BD4680BD00BF80B588B000AF00237C
:1047C0003B6100237B610023BB618C4B8C4A1A60E8
:1047D00000233B713B1D8B4801211A46FCF716FF55
:1047E0003B1D894807211A46FCF710FF3B1D8648F0
:1047F00002211A46FCF70AFF3B1D834801211A4695
:10480000FCF704FF3B1D804800211A46FCF7FEFE22
:104810003B1D7E4809211A46FCF7F8FE3B1D7B48EC
:1048200001211A46FCF7F2FE3B1D794806211A4683
:10483000FCF7ECFE3B1D754800211A46FCF7E6FE2E
:1048400010233B713B1D734803211A46FCF7DEFE23
:104850003B7C6FF300033B74BB7C6FF38713BB742B
:10486000BB7C6FF30403BB747B7C6FF301037B742D
:104870007B7C6FF305137B743B7D012262F30103A4
:104880003B753B7D012262F383033B753B7D012237
:1048900062F305133B753B7D012262F387133B7581
:1048A0007B7D6FF305137B757B7D6FF383037B75D6
:1048B0007B7D012262F301037B75BB7D6FF30103F6
:1048C000BB75FB7D6FF30513FB75FB7D6FF38713E2
:1048D000FB753B7E43F003033B763B7E43F00C03CA
:1048E0003B763B7E43F030033B763B7E43F0C00398
:1048F0003B767B7E43F030037B767B7E43F00C037C
:104900007B767B7E43F003037B76BB7E012262F3E2
:104910000103BB76FB7E43F03003FB76FB7E6FF337
:104920008713FB7607F1100393E80700FFF7E6FE15
:104930003348FEF761F94FF48033BB6002233B73C9
:1049400088233B713B1D314802211A46FCF75EFE6D
:1049500088233B713B1D2D4808211A46FCF756FE63
:1049600088233B713B1D294807211A46FCF74EFE60
:1049700088233B713B1D254806211A46FCF746FE5D
:1049800088233B713B1D214803211A46FCF73EFE5C
:10499000A0233B713B1D1D480D211A46FCF736FE36
:1049A00098233B713B1D1A480A211A46FCF72EFE3C
:1049B0000023FB7706E0FB7F1846FEF76DF9FB7FCF
:1049C0000133FB77FB7F072BF5D94FF0FF30FEF764
:1049D0004FF9FFF7EBFD034618463F210022FFF792
:1049E0005BFE03466D201946FFF72CFE00F0B6F87B
:1049F000002318462037BD4680BD00BF9C29FF1FFD
:104A0000CC0BFF1F00840248008502480081024849
:104A100000820248008F024880B586B000AF7860FF
:104A200000237B8200237B617B68B3F5006F30D865
:104A30001B4B1B68002B2CD0194B1B68FB607B6841
:104A40005B00FA68134418464FF4A1610222FFF795
:104A50006BFE7B68072B04D07B6840F2FF329342E9
:104A600017D100200F494FF40062FFF75BFB0346AC
:104A7000002B0ED00C4B1B887B820B4A7B8AC3F326
:104A80000E039BB2138072B6FFF7A4FB03467B6153
:104A900062B67B699BB218461837BD4680BD00BF21
:104AA0009C29FF1FCC0BFF1F0205015480B584B069
:104AB00000AF0023FB81FB8903F4E0637B601B4BA9
:104AC0001B68BB60BB68B3F5006F26D8184B1B682A
:104AD000002B22D0164B1B683B60BB685B003A681A
:104AE000134418464FF4A1610822FFF733FEFB89F7
:104AF00023F4F043FB810F4AFB8913800D4B1B8885
:104B0000FB81FB8903F4E0637B60084B1B68BB609F
:104B10007B68B3F5806FE0D003E0FB8943F400537A
:104B2000FB81002318461037BD4680BD04050154A3
:104B30009C29FF1F0205015480B500AFFBF764FFFD
:104B400080BD00BF80B500AF034B1B680133024A34
:104B50001360FBF765FE80BD1828FF1F80B500AF0E
:104B6000FFF718FD6D20FFF72FFD0248FFF708FE45
:104B700080BD00BF045C020880B586B000AFEFF3D3
:104B800010833B613B69FB6072B6FB687B61FFF79A
:104B900007FD6D20FFF734FD0648FFF7FFFD7B6939
:104BA000BB60BB687B607B6883F310881837BD46A9
:104BB00080BD00BF045C020880B582B000AF7860A1
:104BC0007B6819687B681A7C7B6804330846114649
:104BD0001A46FCF71BFD7B6819687B681A7C7B68AA
:104BE0005B7C084611461A46FEF7CCF800231846AF
:104BF0000837BD4680BD00BF80B485B000AF786087
:104C00007B6803F00703FB600C4BDB68BB60BA6892
:104C10004FF6FF031340BB60FB681A02BB681343E7
:104C200043F0BF6343F40033BB60044ABB68D36006
:104C30001437BD465DF8047B704700BF00ED00E00F
:104C400080B582B000AF0120FFF7D6FF72B6214BCE
:104C5000214A9A60BFF34F8F62B61E4A1D4BD3F8AC
:104C6000883043F47003C2F888301C4B03F580533E
:104C700014331B687B607B6823F00F037B607B68C9
:104C800043F004037B60154B03F5805314337A68BB
:104C90001A60104A0F4B5B6923F0100353610D4AF1
:104CA0000C4B5B6923F0080353610A4A094B5B6AAA
:104CB00023F480335362074A064B5B6A23F40033C4
:104CC0005362044A034B5B6A23F480235362083720
:104CD000BD4680BD00ED00E0000000080010005857
:104CE00080B485B000AF78600023FB737B6801223D
:104CF0001A70FB7B18461437BD465DF8047B70477D
:104D000080B400AF024B1846BD465DF8047B704787
:104D100000366E0180B483B000AF78600649064B60
:104D20009B6B23F480327B6813438B630C37BD4647
:104D30005DF8047B704700BF00460050B0B586B0F8
:104D400000AF154B3C1D1D460FCD0FC42B682360D3
:104D50003B1D1846FCF754FD0020FCF779FE4FF48C
:104D60008030FCF72DFE0620FCF7FEFEFCF788FFE6
:104D700003203221FCF794FF0020FFF7CBFF022035
:104D8000FCF71AFF0020FCF72FFE0120FCF700FFC4
:104D90001837BD46B0BD00BF5C5C020880B582B06C
:104DA00000AF0023FB711948FFF79AFF0346FB7120
:104DB000FB79002B04D11648FFF7FEFE0346FB717A
:104DC000FB79002B04D11348FFF7F6FE0346FB7175
:104DD000FB79002B04D11048FFF7EEFE0346FB7170
:104DE000FB79002B04D10D48FEF78AFB0346FB71CB
:104DF000FB79002B04D10A48FFF764FB0346FB71E3
:104E0000FB7918460837BD4680BD00BF1C28FF1F30
:104E1000205C0208345C0208485C02089017FF1FFF
:104E2000145C020880B483B000AF78600B46FB705E
:104E3000FB7801229A407B685A600C37BD465DF8CA
:104E4000047B704780B483B000AF78600B46FB7082
:104E5000FB784FF480329A407B685A600C37BD462D
:104E60005DF8047B704700BF80B582B000AF78600A
:104E70007B681A687B681B7C10461946FFF7D2FFD7
:104E80000837BD4680BD00BF80B582B000AF7860F6
:104E90007B681A687B681B7C10461946FFF7D2FFB7
:104EA0000837BD4680BD00BF80B483B000AF7860D6
:104EB0007B689B6893F82030DBB218460C37BD4600
:104EC0005DF8047B704700BF80B483B000AF7860AA
:104ED0007B689B68DB7FDBB218460C37BD465DF80C
:104EE000047B704780B485B000AF78607B68322265
:104EF00002FB03F3FB6000BFFB685A1EFA60002B45
:104F0000FAD11437BD465DF8047B704780B586B092
:104F100000AFF860B9607A603B60FB68002B0BD093
:104F2000BB68002B08D07B68002B05D03B68002BAA
:104F300002D03B6A002B01D103231FE0B868FFF7C2
:104F4000A3FFF86879683A683B6AFEF7D7FB034627
:104F5000FB75FB7D002B0DD100BFF868FFF7A4FFA8
:104F60000346002BF9D100BFF868FFF7ADFF0346F9
:104F7000002BF9D1B868FFF777FFFB7D184618378B
:104F8000BD4680BD90B58DB002AFF860B9601346E4
:104F9000FB800023BB610023BB8300233B61002314
:104FA000BB8200237B62FB881B0A9BB2DBB203F04F
:104FB0000303DBB23B76FB88DBB27B7607F118029A
:104FC00007F1100406230093F868B9682346FFF739
:104FD0009DFF0346FB77FB7F002B01D000232DE0D4
:104FE0000520FFF77FFF00233B6208E007F118026E
:104FF0003B6A134400221A703B6A01333B623B6AEE
:10500000052BF3DD07F1180207F1100406230093C6
:10501000F868B9682346FFF779FF0346FB77FB7F03
:10502000002B0AD1BB7C1A06FB7C1B041A433B7D78
:105030001B0213437A7D13437B627B6A18462C372D
:10504000BD4690BD80B582B000AFFFF7A7FE034616
:10505000FB71FB79002B00D0FEE71748FFF714FF28
:105060001648FFF73FFF1448FFF7FEFE1348FFF70F
:1050700039FF1348FFF7F8FE4FF47A60FFF732FF6D
:10508000104811490022FFF77DFF38603B680F4A46
:1050900093420CD00848FFF7F7FE0848FFF722FFBD
:1050A0000548FFF7E1FE0548FFF71CFFF2E702485D
:1050B000FFF7EAFEFEE700BF205C0208400D030098
:1050C000345C02089017FF1F485C02083036343603
:1050D00070B50E4B0E4CE41AA41000251E46A542D6
:1050E00004D056F8253098470135F8E7FEF78CF8DC
:1050F000084C094BE41AA41000251E46A54204D012
:1051000056F8253098470135F8E770BDE017FF1FC6
:10511000E017FF1FE017FF1FE017FF1F10B50A443D
:10512000441E914208D014F8013F0878834201D010
:10513000181A10BD0131F4E7002010BD10B5431E50
:105140000A44914204D011F8014B03F8014FF8E7EB
:1051500010BD000005000800070007002000070040
:1051600007002000070007002000070007002000BC
:1051700007000700200007000700200007000700C5
:10518000200007000700200007000700200007009C
:10519000070020000700070020000700070020008C
:1051A00007000000527870646F2070726F6365733F
:1051B000732064617461206D617070696E67005363
:1051C0007562496E646578203030310053756249EC
:1051D0006E6465782030303200537562496E6465C4
:1051E000782030303300537562496E646578203022
:1051F000303400537562496E646578203030350074
:10520000537562496E64657820303036005375629C
:10521000496E6465782030303700537562496E649A
:1052200065782030303800537562496E64657820A7
:1052300030303900537562496E6465782030313002
:1052400000537562496E64657820303131005375C2
:1052500062496E6465782030313200FF0000000042
:1052600005000800070007002000070007002000D5
:1052700007000700200007000700200007000700C4
:10528000200007000700200007000700200007009B
:10529000070020000700070020000700070020008B
:1052A000070007002000070007002000070000009B
:1052B000547870646F2070726F63657373206461DB
:1052C0007461206D617070696E6700537562496E1C
:1052D0006465782030303100537562496E646578BA
:1052E0002030303200537562496E6465782030306A
:1052F0003300537562496E64657820303034005352
:105300007562496E646578203030350053756249A6
:105310006E6465782030303600537562496E64657E
:10532000782030303700537562496E6465782030DC
:10533000303800537562496E64657820303039002A
:10534000537562496E646578203031300053756260
:10535000496E6465782030313100537562496E645E
:1053600065782030313200FF0000000005000800A1
:10537000070006001000070053796E634D616E61EF
:1053800067657220322061737369676E6D656E7434
:1053900000FF0000050008000700060010000700DD
:1053A00053796E634D616E6167657220332061735E
:1053B0007369676E6D656E7400FF0000050008007C
:1053C00007000600100087000900C00087000600E3
:1053D000100087000900C000870006001000870049
:1053E0000900C00087000600100087000900C00007
:1053F00087000600100087000900C0008700060033
:10540000100087000900C000870000005478706415
:105410006F0052786C656E5F310052784461746140
:105420005F310052786C656E5F320052784461746F
:10543000615F320052786C656E5F33005278446170
:1054400074615F330052786C656E5F34005278444B
:105450006174615F340052786C656E5F350052781C
:10546000446174615F350052786C656E5F3600523E
:1054700078446174615F3600FF0000000500080099
:105480000700060010007F000900C0007F00060032
:1054900010007F000900C0007F00060010007F00A0
:1054A0000900C0007F00060010007F000900C00056
:1054B0007F00060010007F000900C0007F0006008A
:1054C00010007F000900C0007F0000005278706467
:1054D0006F0054786C656E5F31005478446174617C
:1054E0005F310054786C656E5F32005478446174AB
:1054F000615F320054786C656E5F330054784461AC
:1055000074615F330054786C656E5F340054784486
:105510006174615F340054786C656E5F3500547857
:10552000446174615F350054786C656E5F36005479
:1055300078446174615F3600FF00000005000800D8
:105540003F000900000107000900000107000900F1
:1055500000010700090000013F00070020000700CC
:10556000070020003F00070020003F000700200048
:105570003F00050008003F00050008003F0005004F
:1055800008003F00050008003F00090030003F0010
:10559000446576496E666F004E616D650048760021
:1055A000537600536E004275696C6454696D6500F2
:1055B00042525F63616E66645F6374726C00425254
:1055C0005F63616E66645F646174610042525F3460
:1055D00038350055736531323000557365343835D0
:1055E000005573654D6F6462757300537562496E43
:1055F0006465782030313200446576494400FF000C
:10560000050008000700060010003F00060010001B
:105610003F00060010003F00090000023F000600A6
:1056200010003F00060010003F00060010003F0081
:10563000090000023F00000053696D756C617465DC
:1056400043414E4644005478496E6465780054786E
:1056500049440054784C656E00547844617461008C
:105660005278496E64657800527849440052784C0B
:10567000656E0052784461746100FF0006001000FE
:105680003F000000506172616D20416374696F6E6C
:1056900000FF0000050008000700060010000700DA
:1056A00006001000070000004D6F64756C617220E9
:1056B0004465766963652050726F66696C65004960
:1056C0006E6465782064697374616E636520004D53
:1056D0006178696D756D206E756D626572206F669B
:1056E000206D6F64756C65732000FF00070020005B
:1056F0000700000044657669636520747970650071
:1057000005000800070000004572726F7220726584
:1057100067697374657200000900300007000000BB
:10572000446576696365206E616D65000900180047
:10573000070000004D616E75666163747572657275
:105740002048617264776172652076657273696F53
:105750006E00000009002000070000004D616E751A
:10576000666163747572657220536F6674776172D7
:10577000652076657273696F6E0000000500080091
:1057800007000700200007000700200007000700AF
:105790002000070007002000070000004964656E34
:1057A00074697479204F626A6563740056656E642B
:1057B0006F722049440050726F6475637420436FA8
:1057C0006465005265766973696F6E204E756D620F
