:020000040C00EE
:100000000008FF1F01020008990200089902000879
:1000100099020008990200089902000800000000F7
:10002000000000000000000000000000990200082D
:1000300099020008000000009902000899020008D7
:100040009902000899020008990200089902000824
:1000500099020008DD9D0208990200089902000833
:10006000E99D020800000000000000000000000000
:100070009902000800000000990200089902000897
:1000800099020008990200089902000899020008E4
:1000900099020008990200089902000899020008D4
:1000A000990200089902000800000000000000000A
:1000B0000000000000000000000000000000000040
:1000C0000000000000000000000000000000000030
:1000D0000000000000000000000000000000000020
:1000E00000000000000000009902000899020008CA
:1000F0009902000899020008990200089902000874
:1001000099020008719A02089902000899020008F1
:1001100000000000000000000000000000000000DF
:1001200000000000000000000000000000000000CF
:100130009902000899020008990200089902000833
:1001400000000000000000000000000000000000AF
:10015000000000000000000000000000000000009F
:10016000000000000000000000000000000000008F
:1001700099020008990200089902000899020008F3
:1001800099020008990200089902000899020008E3
:1001900099020008990200089902000899020008D3
:1001A00099020008990200089902000899020008C3
:1001B00099020008990200089902000899020008B3
:1001C000000000000000000000000000000000002F
:1001D000000000000000000099020008000000007C
:1001E00099020008F18D020899020008990200089E
:1001F00099020008659A0208000000000000000053
:10020000DFF874D01D4880471D4C1E4DAC4209DA02
:1002100021686268A368043BA2BFC858D050FAE7BF
:100220000C34F3E7184B194CA34208DA19685A68E2
:100230000020043AA4BF8850FBE70833F4E71448D1
:100240008047144880470000F0AB020C0008FF1FF5
:1002500098100000F0AB020C0008FF1F0000000027
:100260009818FF1FA41300000000002000000000E9
:1002700000000020000000000008FF1F010002082D
:1002800048020008600200086002000878020008C6
:10029000019E0208C99D0208FEE70000FFFFFFFF64
:1002A000FFFFFFFFFFFFFFFFFFFFFFFFFFFFFFFF5E
:1002B000FFFFFFFFFFFFFFFFFFFFFFFFFFFFFFFF4E
:1002C000FFFFFFFFFFFFFFFFFFFFFFFFFFFFFFFF3E
:1002D000FFFFFFFFFFFFFFFFFFFFFFFFFFFFFFFF2E
:1002E000FFFFFFFFFFFFFFFFFFFFFFFFFFFFFFFF1E
:1002F000FFFFFFFFFFFFFFFFFFFFFFFFFFFFFFFF0E
:020000040C02EC
:1000000098B500AF054A4FF0005314460FCB84E873
:100010000F0009F0ABFD09F027FE98BDC4FF0020DA
:1000200080B584B000AF2F4BDB6803F48033002B26
:100030003ED02D4BDB6803F00103002B02D02B4B8D
:10004000FB6002E009F0F2FDF860274B1B6803F04B
:100050000403002B20D0244B9B6803F070631B0E1D
:100060000133BB60204B9B6803F4FE431B0A013342
:100070007B601D4B9B6803F4FE031B0C01333B604C
:10008000BB683A6802FB03F3FA68B2FBF3F37A68E1
:1000900002FB03F3FB600DE0134B9B6803F07F034F
:1000A00001333B60FA683B68B2FBF3F3FB6001E0AD
:1000B0000E4BFB600B4BDB68DBB20133FA68B2FB23
:1000C000F3F3FB60074B1B6903F001030133FA688C
:1000D000B2FBF3F3FB60064AFB6813601037BD46C2
:1000E00080BD00BF004600501047005000366E0132
:1000F000C0FF002080B582B000AF78600B467B80E7
:1001000013463B807B8803F1A84303F580333A888C
:100110007868194609F0BAFE0837BD4680BD00BFB1
:1001200080B584B000AFBA607B600346FB810B46AC
:100130007B73FB8941F2F802934201D00B2316E056
:100140003B7E002B01D0052311E07B7B002B01D0EF
:1001500011230CE0BB68082B01D90F2307E000F046
:100160000DF878680449BA6809F090FE0023184633
:100170001037BD4680BD00BF9818FF1F80B582B004
:1001800000AF204B1B78002B2FD01F4BD3E900234F
:1001900013467B601D4B1B687B601B4BD3E9002320
:1001A0004FF000004FF0FF3100EA020001EA0301C6
:1001B0007B681A464FF0000342EA000243EA01035B
:1001C0001149C1E90023124B1B687A689A4208D290
:1001D0000D4BD3E90023003243F101030A49C1E981
:1001E00000230B4A7B68136005E007484FF4116158
:1001F0000822FFF77FFF074B00221A600837BD4631
:1002000080BD00BFA42AFF1F9818FF1F10090154CA
:10021000E828FF1FEC28FF1F80B400AF034B1B68CA
:100220001846BD465DF8047B704700BFA418FF1F49
:1002300080B400AF144B5B8D002B05D1124B1A8D8F
:10024000124B1B899A4204D90F4B012283F840209C
:1002500003E00D4B002283F840200D4B5B8D002BFB
:1002600005D10B4B1A8D094B1B899A4204D9084BB7
:10027000012283F8402003E0054B002283F8402050
:10028000BD465DF8047B70479C2BFF1FD013FF1FFA
:10029000582BFF1F80B582B000AF434B20221A803D
:1002A000414B00225A80404B00225A603E4B44F2A0
:1002B0001F029A813C4B3D4A1A613B4B00225A6116
:1002C000394B00229A83384B00221A62364B0022A7
:1002D0001A85354B00225A85334B002283F8402083
:1002E000334B20221A80324B00225A802E4B5B68FF
:1002F0002F4A53602C4B9A892D4B9A812C4B2B4AB9
:100300001A612B4B00225A61294B00229A83284BF9
:1003100000221A62264B00221A85254B00225A859C
:10032000234B002283F84020224B00221A7000F059
:1003300051F90346FB80FB88002B01D000F00AF93D
:100340001D4B00221A701D4B00221A701C4B0022FC
:100350001A801C4B00221A701B4B00221A601B4B88
:1003600000221A601A4B00221A601A4B00221A60EF
:1003700000233B60184B1B683B603B6803F008039D
:10038000002B03D0154B00221A7006E0134B0122FC
:100390001A70134B1B68134A1360134B4FF47A62A5
:1003A0001A600837BD4680BD9C2BFF1F48E801003E
:1003B000582BFF1FE02BFF1F002CFF1F012CFF1FDE
:1003C000322CFF1F342CFF1F102CFF1FEC2BFF1FA4
:1003D000FC2BFF1F142CFF1F08000154A42AFF1F31
:1003E00010090154E828FF1FEC28FF1F80B485B0D6
:1003F00000AF78607B68002B62D0354B1B68002B08
:100400000CD1334A7B681360314B1B6800225A6061
:100410002F4B1B6800221A60002352E02C4B1B68F4
:100420001A897B681B899A420FD97B6800221A605F
:10043000274B1A687B685A60254B1B687A681A60DC
:10044000234A7B68136000233BE0214B1B68FB6061
:1004500033E0FB681A897B681B899A4201D101232A
:100460002FE0FB681A897B681B899A4213D9FB68C5
:100470001A687B681A607B68FA685A60FB681B68B8
:10048000002B03D0FB681B687A685A60FB687A68A7
:100490001A60002315E0FB685B68002B0AD1FB683B
:1004A0007A685A607B68FA681A607B6800225A6032
:1004B000002306E0FB685B68FB60FB68002BC8D18B
:1004C000012318461437BD465DF8047B704700BF12
:1004D000A418FF1F80B487B000AF0346FB801C4BFD
:1004E0001B687B612BE07B691B89FA889A4223D1C8
:1004F0007B691B683B617B695B68FB603B69002B28
:1005000002D03B69FA685A60FB68002B02D0FB6896
:100510003A691A607B6900221A607B6900225A607E
:100520007B691A890A4B1B681B899A4203D1084AC6
:10053000FB68136006E005E07B695B687B617B69B3
:10054000002BD0D11C37BD465DF8047B704700BF3F
:10055000A418FF1F80B582B000AF0C4B1B687B60F6
:1005600000237B8009E07B681B897B807B685B685C
:100570007B607B881846FFF7ADFF7B68002BF2D1CC
:10058000024B00221A600837BD4680BDA418FF1F29
:1005900080B584B000AF78600023FB817B68BB60CE
:1005A0000CE0B868FFF722FF0346FB81FB89002BB4
:1005B00001D0FB8909E0BB682833BB60BB681B899D
:1005C0004FF6FF729342ECD1FB8918461037BD46B7
:1005D00080BD00BF80B582B000AF0023FB800B4B15
:1005E00000221A600A48FFF7D3FF0346FB80FB880E
:1005F000002B01D0FB8805E00648FFF7C9FF034642
:10060000FB80FB8818460837BD4680BDA418FF1F35
:10061000F009FF1F0008FF1FB0B584B002AF002330
:10062000FB712F4B1B68002B57D02D4B1C682D4B9B
:1006300018882D4B19782D4B1A682D4B1D682D4BA2
:100640001B7800932B46A0470346FB71FB79FF2BD9
:1006500043D0294B1B78013B032B29D801A252F828
:1006600023F000BF8D060208750602089B060208EB
:100670009B060208214B1B68002B07D01F4B1B68F1
:10068000184609F0EBFB1D4B00221A60FB79184657
:100690000021002205F0E6FC0AE0144B1A68144B16
:1006A0001B68F979084611461A4605F0DBFC00BFC5
:1006B000114B00221A700B4B00221A800A4B0022A9
:1006C0001A700A4B00221A60094B00221A60094B6B
:1006D00000221A70024B00221A600837BD46B0BDD6
:1006E000FC2BFF1F322CFF1F342CFF1F102CFF1F71
:1006F000EC2BFF1F012CFF1F002CFF1F142CFF1FD2
:1007000080B400AF044BD3F820329BB21846BD46EC
:100710005DF8047B704700BF0000015480B582B0D3
:1007200000AF78600B467B8013463B807B8803F1EB
:10073000A84303F580333A887868194609F0A6FB88
:100740000837BD4680BD00BF80B582B000AF78607D
:100750000B467B8013463B807A883B88786811463D
:100760001A46FFF7DBFF0837BD4680BD80B582B073
:1007700000AF78600B467B8013463B807B8803F19B
:10078000A84303F580333A881846796809F07EFB60
:100790000837BD4680BD00BF80B582B000AF78602D
:1007A0000B467B8013463B807A883B8878681146ED
:1007B0001A46FFF7DBFF0837BD4680BD80B500AFA6
:1007C000FFF79EFF0346184680BD00BF80B500AF0F
:1007D000FFF7F4FF0346184680BD00BF80B582B026
:1007E00000AF00237B60FFF7F1FF03467B801B4BCC
:1007F0009B8B03F00103002B05D1194B9B8B03F05E
:100800000103002B03D0002000F046F97860154862
:1008100004F064FE144B1A88144B1B8811481146CF
:100820001A46FFF7B9FF0D4B9B8B03F00103002B1A
:1008300005D10B4B9B8B03F00103002B0BD0786889
:1008400000F02AF97860064B5A697B689A4202D216
:10085000034A7B6853610837BD4680BD9C2BFF1F50
:10086000582BFF1FC829FF1FC22AFF1FAA2AFF1FDC
:1008700080B582B000AF00237B60214B9B8B03F0DF
:100880000103002B05D11F4B9B8B03F00103002BB1
:100890000ED0002000F000F978601B4A7B681360DE
:1008A0001A4B01221A701A4B00221A6000F0B4F899
:1008B000184B1A88184B1B88184811461A46FFF720
:1008C00043FF164804F01CFE0D4B9B8B03F0010305
:1008D000002B05D10B4B9B8B03F00103002B0BD09E
:1008E000786800F0D9F87860054B5A697B689A42BD
:1008F00002D2034A7B6853610837BD4680BD00BF02
:100900009C2BFF1F582BFF1FC429FF1FF828FF1F18
:100910001429FF1F8A2AFF1F7E2AFF1F1829FF1F85
:1009200080B500AF324B1B78002B0DD0314B1B88AC
:100930001BB2002B08DD2F4B1B889BB29BB2013BE7
:100940009BB29AB22B4B1A8002F08CFA2A4B1B886E
:10095000002B18D0294B1B8801339AB2274B1A80E1
:10096000254B1A88254B1B889A420CD8224B002213
:100970001A80224B00221A80214B1B68002B02D0C8
:100980001F4B1B6898471F4B1B7883F00103DBB29A
:10099000002B11D11C4BD3E900234FF0FF304FF057
:1009A000000102EA000203EA010318484FF00001C7
:1009B000994208BF90420CD3134BD3E9002314484B
:1009C0004FF00001121843EB01030F49C1E9002366
:1009D00007E00C4B1B78002B03D00E4B4FF47A62D0
:1009E0001A600C4B1B6801330A4A136080BD00BFBC
:1009F000A82AFF1FB22AFF1F702AFF1FB429FF1F5A
:100A0000F028FF1FA42AFF1F9818FF1F40FBE1FFDB
:100A100040420F00EC28FF1F80B500AF1A4B1B7837
:100A200083F00103DBB2002B2DD0184B1B68002B89
:100A300023D0164B1B68184600F02EF80246134BC5
:100A40001A60134B5B68002B05D0114B5A680F4B93
:100A50001B689A4203D90D4B1B680D4A53600D4B1E
:100A60005B68002B05D00B4B5A68084B1B689A42F9
:100A700003D9064B1B68074A5360002000F00CF8AE
:100A80000246024B1A6080BDB42AFF1FFC28FF1FDC
:100A90009C2BFF1F582BFF1F80B485B000AF7860E0
:100AA0000023BB600023FB60154B1B68BB60BB6869
:100AB000002B0DD07A68BB689A4204D8BA687B686C
:100AC000D31AFB6004E0BA687B68D31A013BFB6071
:100AD0007B68002B0CD00B4B1A68FB689A4205D23E
:100AE000084B1B68FA68D31AFB6001E00023FB6027
:100AF000FB6818461437BD465DF8047B704700BF9D
:100B0000100901540C29FF1F80B582B000AF0023EB
:100B1000FB71FFF75BFE0346BB80BB8803F0080355
:100B2000002B03D000F074F90123FB714D4B1B78AF
:100B3000002B00F08180BB8803F48063002B39D048
:100B4000494B1B78002B06D0484B1B78002B02D05A
:100B5000474B00221A80474B1B8D002B05D0454B7D
:100B60001B8D013B9AB2434B1A85424B1A8D424B67
:100B70001A85424B01221A70414B1B78002B02D080
:100B8000FFF776FE16E03F4B1B8803F1A84303F501
:100B900080331B78DAB23C4B1A703A4B1B881A46EA
:100BA0003A4B1B8813441A46394B13441B78DAB26C
:100BB000354B1A702F4B5B88012B01D100F06CFA7A
:100BC000344B1B78002B0DD0334B1B88002B09D0E6
:100BD000294B5B88012B03D0274B5B88222B01D14B
:100BE000FFF7FCFDFFF7F2FD0346BB80BB8803F473
:100BF0008063002B20D01F4B5B8D01339AB21D4BBD
:100C00005A851C4B5A8D1C4B5A851E4B1B8803F171
:100C1000A84303F580331B78DAB21B4B1A70194BCB
:100C20001B881A46194B1B8813441A46184B134449
:100C30001B78DAB2144B1A70BB8803F00403002B44
:100C400003D000F02DF80123FB71FB79002B04D0B9
:100C500000233B60114B1B683B60FFF7E9FA083744
:100C6000BD4680BDBB2AFF1F982AFF1FB42AFF1F65
:100C7000BE2AFF1F9C2BFF1F582BFF1FB02AFF1FF0
:100C8000B52AFF1F8A2AFF1F942AFF1F7E2AFF1FF3
:100C9000FFFF0054BA2AFF1FAA2AFF1F8C09015424
:100CA00080B582B000AF4E4B00221A804D4B1B78AE
:100CB000002B00F090800023FB714B4B1B78002B26
:100CC0001BD04A4B1B88002B17D0494B1B88002B8D
:100CD00013D0464B1A88474B1B889A4205D9454B7F
:100CE0001B8801339AB2434B1A80404B1A88414B00
:100CF0001B889A4201D10123FB713F4B1B88002BBB
:100D00005BD03E4B1A883C4B1B889A4223D93C4B04
:100D10001B88002B0BD03B4B1A8D3B4B1B899A42F7
:100D200005D8384B1B8D03339AB2364B1A85304B9E
:100D30001B88002B0FD0324B1B88002B0BD1334B61
:100D40001A8D314B1B899A4205D8304B1B8D0333CA
:100D50009AB22E4B1A852A4B1B88002B21D1244B8B
:100D60001B88002B1DD0FFF731FD0346BB80BB88DD
:100D700003F40063002B0CD1204B1A881E4B1B88F8
:100D80009A420DD81D4B1B8801339AB21B4B1A8017
:100D900013E01A4B00221A801C4B00221A850CE02B
:100DA0000BE0164B1A88144B1B889A4205D8134B3C
:100DB0001B8801339AB2114B1A8000F06DF9FB7950
:100DC000002B08D0FFF70AFD084B1B88012B02D12E
:100DD000084B00221A80FFF72BFA0837BD4680BD6A
:100DE000842AFF1FB42AFF1FBA2AFF1FA62AFF1F4B
:100DF000AA2AFF1F862AFF1FAC2AFF1FBE2AFF1F39
:100E00007E2AFF1F9C2BFF1FD013FF1F582BFF1F95
:100E100080B500AF0C4B00221A800C4B1B78002BC6
:100E20000DD00B4B1B88002B09D00A4B5B88032B82
:100E300005D1094B1B88002B01D1FFF7CFFC074BD5
:100E400000221A8080BD00BFB62AFF1FBA2AFF1FEA
:100E5000AA2AFF1F582BFF1FA62AFF1F862AFF1F43
:100E600080B586B000AF0023FB81394B394A1A6048
:100E7000394B00221A60394B00221A60384B00228D
:100E80001A60384B00221A60374B00221A60374B29
:100E900000221A60364B00221A6002F0CBF8FFF7EE
:100EA000F9F9344B01221A70334B00221A70334B7C
:100EB00000221A60324B00221A60324B00221A6064
:100EC0000023BB6000237B6100233B6126E02E4BA7
:100ED0001B68BB602C4B1B683B61BA683B699A423C
:100EE00004D83A69BB68D31A3B6104E03A69BB682D
:100EF000D31A013B3B61234B1B68002B03D1214AD2
:100F00003B69136007E01F4B1A683B699A4202D99C
:100F10001C4A3B6913607B6901337B617B69B3F5D4
:100F20007A7FD4D30023FB80184B1B88FB80FB887F
:100F300003F04003002B03DD154B08221A8002E06A
:100F4000134B04221A80FB8918461837BD4680BD12
:100F5000642AFF1FD00BFF1F0029FF1F0429FF1F5A
:100F60006C2AFF1FF028FF1FF428FF1FB829FF1F5E
:100F7000BC29FF1FA818FF1FF828FF1FFC28FF1F10
:100F8000C429FF1F0C29FF1F100901540205015439
:100F9000B629FF1F80B582B000AF354B1B7883F0B8
:100FA0000103DBB2002B00D05EE0324B1B7883F0F4
:100FB0000103DBB2002B06D12F4B1B7883F001031A
:100FC000DBB2002B3CD02D4B1B7883F00103DBB24E
:100FD000002B35D0274B1B7883F00103DBB2002BAD
:100FE0001ED0FFF7EBFB0346FB80FB8803F4806316
:100FF000002B09D0204B01221A70214B1B78002BAB
:101000000ED0FFF735FC0BE01E4B1B88002B07D1E1
:10101000FB8803F40063002B02D0174B01221A70E7
:1010200008F040FD00F038F8174B1B78002B05D076
:10103000164B1B88002B01D0FFF7D0FB08F024FDD6
:10104000134B1B68B3F57A6F01D3FFF797F802F0E3
:1010500099F8FFF7E1FA01F099FF0E4B1B68002B9E
:1010600002D00C4B1B6898470837BD4680BD00BFB7
:10107000A818FF1FBB2AFF1FB02AFF1FB42AFF1F9B
:10108000B52AFF1F7E2AFF1FBA2AFF1FAA2AFF1FA9
:10109000EC28FF1FBC29FF1F80B500AF0A4B9B8BBC
:1010A00003F00103002B05D1084B9B8B03F00103D8
:1010B000002B05D0064B1B88002B01D1FFF7ACFCA1
:1010C00004F030FA80BD00BF9C2BFF1F582BFF1F80
:1010D0007E2AFF1F80B588B000AF0023FB8200236B
:1010E000FB838E4B1B88FB83FB8B1BB2002B80F298
:1010F0001281FB8B03F4E0633B61894B1B68BB618E
:10110000FB8B23F4E043FB833B69B3F5807F0DD079
:10111000B3F5807F03D8002B00F0F480EDE0B3F549
:10112000007F33D0B3F5806F61D0E6E07D4B1B6864
:10113000002B0DD07B4B1B68B86998470346FB8298
:10114000FB8A002B21D0FB8B43F40053FB83DAE0B6
:10115000BB69B3F5006F13D8734B1B68002B0FD01E
:10116000714B1B68FB60BB695B00FA681A446F4BEC
:101170001B8810464FF4A1611A46FFF7F7FA04E006
:10118000FB8B43F40053FB83BDE0BCE0684B1B6862
:10119000002B0DD0664B1B68B86998470346FB824D
:1011A000FB8A002B1ED0FB8B43F40053FB8319E01A
:1011B000BB69B3F5006F11D85B4B1B68002B0DD0DA
:1011C000594B1B68BB60BB695B00BA681344184687
:1011D0004FF4A1610222FFF7A1FA03E0FB8B43F475
:1011E0000053FB83534B4FF47A721A808BE04F4BC2
:1011F0001B88082B50D1BB69B3F5006F04D9FB8B5A
:1012000043F40053FB8346E0464B1B68002B0DD094
:10121000444B1B68B86998470346FB82FB8A002B46
:1012200021D0FB8B43F40053FB8334E0BB69B3F55F
:10123000006F13D83C4B1B68002B0FD03A4B1B6838
:101240007B60BB695B007A681A44384B1B88104688
:101250004FF4A1611A46FFF789FA04E0FB8B43F4CF
:101260000053FB8317E0FB8B23F4F043FB83FB8BE2
:101270007B802A4A7B881380284B1B88FB83FB8B4F
:1012800003F4E0633B61264B1B68BB613B69B3F52C
:10129000806FB0D030E02FE0274B1B68002B11D0BF
:1012A000254B1B6898470346FB82FB8A002B04D022
:1012B000FB8B43F40053FB831EE0FB8B23F40063A2
:1012C000FB8320E008F088FB0346FB82FB8A002BAF
:1012D00003D1154B1B68002B04D1FB8B43F4006337
:1012E000FB8309E0154A104B1B681B891380FB8B9D
:1012F00023F40063FB8306E005E0FB8B43F400531B
:10130000FB8300E000BF0E4B00221A80FB8B3B806A
:10131000024A3B8813802037BD4680BD0205015438
:10132000040501540029FF1F642AFF1FB629FF1F6F
:101330000429FF1F702AFF1F6C2AFF1F0805015494
:10134000B429FF1F80B400AF044B00221A60044B85
:1013500000221A80BD465DF8047B7047742AFF1F87
:10136000082CFF1F80B584B000AF78600023FB73AA
:101370007B68DB881B0B9BB2013B072B21D801A2AA
:1013800052F823F0BD130208A5130208BD1302088A
:10139000BD130208BD130208BD130208BD130208E5
:1013A000B1130208786804F071FB0346FB730BE08D
:1013B000786804F04FFF0346FB7305E00423FB73DA
:1013C00002E00523FB7300BFFB7B18461037BD46C8
:1013D00080BD00BF80B582B000AF7860134B1B6842
:1013E000002B0CD0114B1B681846022102F008FBA1
:1013F0000346002B15D10D4B00221A6011E080200E
:1014000008F024FD03467B607B68002B01D1072395
:1014100008E0786806490E2208F038FD786804F084
:1014200019FF002318460837BD4680BD742AFF1FE8
:101430001C2CFF1F80B400AF044BD3F820329BB2AA
:101440001846BD465DF8047B704700BF000001549C
:1014500080B582B000AF78600B467B8013463B803E
:101460007B8803F1A84303F580333A8878681946EE
:1014700008F00CFD0837BD4680BD00BF80B500AF49
:10148000FFF7D8FF0346184680BD00BF80B584B083
:1014900000AF0346FB80084B1B88FB81FA89FB8861
:1014A0001340FB8108F0FEFA034AFB89138008F021
:1014B000EBFA1037BD4680BD0402015480B584B0FC
:1014C00000AF0346FB80084B1B88FB81FA89FB8831
:1014D0001343FB8108F0E6FA034AFB89138008F006
:1014E000D3FA1037BD4680BD0402015480B483B0E6
:1014F00000AF0023FB800C4B1B88FB80FB8803F4B0
:101500000063002B04DCFB8803F48053002B03DD15
:10151000064B00221A7002E0044B01221A700C37AD
:10152000BD465DF8047B704702050154AA18FF1FF1
:1015300080B582B000AF0346FB71FB7903F5807381
:101540009BB2DB009BB2054819460822FFF780FFDB
:10155000024B18460837BD4680BD00BF9C2AFF1FBE
:1015600080B485B000AF0346FB7101237B73FB7928
:101570009BB2DB009BB203F60703FB81FB8903F1FF
:10158000A84303F580337A7BD2B21A70FB8903F14A
:10159000A84303F580331B78DBB27B737B7BDBB224
:1015A00003F00103002BF1D01437BD465DF8047B36
:1015B000704700BF80B485B000AF0346FB710023C5
:1015C0007B73FB799BB2DB009BB203F60703FB81C5
:1015D000FB8903F1A84303F580337A7BD2B21A70FA
:1015E000FB8903F1A84303F580331B78DBB27B73DF
:1015F0007B7BDBB203F00103002BF1D11437BD4636
:101600005DF8047B704700BF80B586B000AF03462D
:10161000FB710023BB750023BB8200237B829F4BA1
:101620001B8842F6FE72934211D99C4B1B8842F6EE
:10163000FE7293420BD9994B1B8842F6FE7293427D
:1016400005D9964B1B8842F6FE72934201D81423AB
:10165000A5E10020FFF76CFFF860FB689A78DB7863
:101660001B021343BB82FB681A785B781B0213438F
:101670007B82FB689B7903F00103002B02D11623C8
:10168000BB752AE0FB681B7903F00C03042B02D026
:101690001623BB7521E0FB681B7903F00203002BC6
:1016A00002D11623BB7518E0BB8A232B02D8162360
:1016B000BB7512E0BB8A802B02D91623BB750CE0E8
:1016C0007B8AB3F5805F02D21623BB7505E07B8A67
:1016D000B3F5405F01D31623BB75BB7D002B43D10F
:1016E0000120FFF725FFF860FB689A78DB781B0282
:1016F0001343BB82FB681A785B781B0213437B821F
:10170000FB689B7903F00103002B02D11623BB7504
:101710002AE0FB681B7903F00C03002B02D0162390
:10172000BB7521E0FB681B7903F00203002B02D19B
:101730001623BB7518E0BB8A232B02D81623BB7572
:1017400012E0BB8A802B02D91623BB750CE07B8A82
:10175000B3F5805F02D21623BB7505E07B8AB3F533
:10176000405F01D31623BB75BB7D002B71D1FB7984
:10177000032B6ED94A4B01221A700320FFF7D8FEC3
:10178000F860FB689A78DB781B021343BB82FB6826
:101790001A785B781B0213437B82FB689B7903F00A
:1017A0000103002B05D0BB8A002B02D10323BB759C
:1017B0004AE0FB689B7903F00103002B3BD0394BD7
:1017C0001B88BA8A9A4206D1364B1B88002B02D05E
:1017D000BB8A9C2B02D90123BB7535E0FB681B79C2
:1017E00003F00C03002B23D12F4B1B78022B07D1C6
:1017F0007B8AB3F5805F03D37B8AB3F5405F08D360
:10180000294B1B78022B0FD0284B1B887A8A9A42CF
:101810000AD1FB681B7903F00203002B03D0204B95
:1018200000221A7003E002E00223BB750CE00BE01B
:101830000323BB7508E0BB8A002B03D1194B1B881F
:10184000002B01D00123BB75BB7D002B01D01E23D3
:10185000BB75BB7D002B40F08A80FB79022B40F2E8
:1018600086800220FFF764FEF860FB689A78DB78D8
:101870001B021343BB82FB681A785B781B0213437D
:101880007B82FB689B7903F00103002B10D0BB8A9D
:10189000002B0DD10323BB7564E000BFAE2AFF1FF0
:1018A000782AFF1FAA2AFF1F7D2AFF1FC22AFF1FB7
:1018B000FB689B7903F00103002B4AD03A4B1B884D
:1018C000BA8A9A4241D1384B1B88002B3DD0BB8A43
:1018D0009C2B3AD8FB681B7903F00C03042B30D106
:1018E000324B1B78022B07D17B8AB3F5805F03D381
:1018F0007B8AB3F5405F08D32C4B1B78022B1CD09E
:101900002B4B1B887A8A9A4217D1FB681B7903F00C
:101910004003002B03D0274B01221A7002E0254B15
:1019200000221A70FB681B7903F00203002B03D01E
:10193000214B00221A7003E002E00223BB7503E092
:1019400002E00323BB7503E002E00123BB7509E05D
:1019500008E0BB8A002B03D1134B1B88002B01D05E
:101960000123BB75BB7D002B01D01D23BB75BB7D47
:10197000002B13D1FB79FB750BE0FB7D1846FFF7BD
:10198000D7FDF860FB689A790C4B1A70FB7D013328
:10199000FB750B4B1B78FA7D9A42EED3BB7D184644
:1019A0001837BD4680BD00BF7E2AFF1F7D2AFF1F5E
:1019B0008A2AFF1FBC2AFF1F782AFF1FA918FF1FB2
:1019C000C02AFF1F80B590B000AF0023BB86002364
:1019D0007B860023FB620023BB62002387F83F3035
:1019E0000323BB8703237B8700233B870023FB86DE
:1019F0004FF6FF73FB849E4B9A89FB8C1340FB844C
:101A00009C4B9A89FB8C1340FB849B4B00221A80D1
:101A10009A4B00221A700220FFF78AFD38623B6A57
:101A20001B889AB2964B1A803B6A1B7903F002031B
:101A3000002B01D001237B870320FFF779FD38625B
:101A40003B6A1B889AB28F4B1A803B6A1B7903F062
:101A50000203002B01D00123BB878A4B1B881A4647
:101A6000894B1B881946BB8F03FB01F31344874A3C
:101A7000128893420ADD834B1B881A46834B1B88CE
:101A80001946834B1B880B449A4218DB7D4B1B88FD
:101A90001A467D4B1B881946BB8F03FB01F3134489
:101AA0007C4A128893420CDD764B1B881A46794B90
:101AB0001B881946784B1B880B449A4201DA1E2377
:101AC00042E36F4B1B881A46744B1B8819467B8F69
:101AD00003FB01F313446D4A128893420ADD684BFD
:101AE0001B881A46694B1B881946694B1B880B4497
:101AF0009A4231DB624B1B881A46684B1B88194699
:101B00007B8F03FB01F31344624A128893420ADD80
:101B10005B4B1B881A465F4B1B8819465E4B1B8824
:101B20000B449A4218DB564B1B881A465B4B1B88AA
:101B300019467B8F03FB01F31344524A12889342E8
:101B40000CDD4F4B1B881A464E4B1B8819464E4BDB
:101B50001B880B449A4201DA1D23F5E2504B1B7897
:101B6000FB77504B1B68FB624F4B1B68BB62404BC3
:101B70005B883B873F4B5B88FB86FB7F03F0090359
:101B8000002B5CD0FB7F03F00603002B01D1302338
:101B9000DAE2FB7F03F00203002B06D1FB7F03F0A8
:101BA0000403002B01D03023CEE2FB8C002B15D098
:101BB000FB8C03F00403002B04D1FB7F03F0020332
:101BC000002B09D1FB8C03F00803002B06D1FB7F0F
:101BD00003F00403002B01D03023B5E2334BBB618B
:101BE000234B1B69BB61FB6A002B09D0FA6ABB69F6
:101BF0009A4203D3FB6A2E4A934201D93623A3E2C9
:101C0000FB7F03F00203002B0ED0FB7F03F00403E5
:101C1000002B09D0BB6A002B06D0BA6AFB6A9A4235
:101C200002D3012387F83F3097F83F30002B06D0CE
:101C3000FB8C03F01003002B01D1302384E21D4BF9
:101C40001B78002B52D0FB7F03F00903002B33D10C
:101C50003B8F022B09D03B8F032B06D0FB8E022B30
:101C600003D0FB8E032B40F0858030236CE200BF55
:101C70009C2BFF1F582BFF1F962AFF1FB02AFF1F08
:101C80008A2AFF1FC22AFF1FAA2AFF1F462BFF1FF7
:101C90003C2BFF1F342BFF1F4E2BFF1F7E2AFF1FE5
:101CA00081090154A0090154A409015448E8010024
:101CB000000050C3E02BFF1FFB7F03F00403002B49
:101CC00007D13B8F032B02D0FB8E032B01D1302396
:101CD0003AE2FB7F03F00203002B4BD13B8F022B38
:101CE00002D0FB8E022B45D130232DE2FB7F03F087
:101CF0000903002B1DD1954B1B88002B0BD0012312
:101D00003B87934B1B88002B02D02223FB8631E0BC
:101D10000023FB862EE08E4B1B88002B04D0002373
:101D20003B870123FB8625E000233B870023FB86BE
:101D300020E0864B1B88002B09D097F83F30002B02
:101D400002D003233B8704E002233B8701E000230A
:101D50003B877F4B1B88002B0AD0FB7F03F00403DB
:101D6000002B02D00323FB8604E00223FB8601E064
:101D70000023FB863B8F032B0CD1764AFB6A536210
:101D8000744AFB6A5360744AFB6A5362724AFB6A84
:101D900053600EE03B8F022B0BD16E4AFB6A5362FD
:101DA0006C4AFB6A53606C4AFB6A53626A4AFB6A7C
:101DB00053606A4B1B7883F00103DBB2002B07D022
:101DC0003B8F002B02D0FB8E002B01D12923BBE1DE
:101DD0003B8F002B02D1FB8E002B02D0604B0122E7
:101DE0001A705F4B1B78002B10D0584B1B88002BB0
:101DF00004D05C4B4FF480621A8007E0544B1B8880
:101E0000002B03D0574B4FF400621A803B8F022BFC
:101E100008D03B8F032B05D0FB8E022B02D0FB8E0C
:101E2000032B09D1504B01221A70484B1B88002B01
:101E300002D14C4B00221A80464A3B8F5380464ABF
:101E4000FB8E5380494B00221A80494B00221A8096
:101E5000484B00221A80484B00221A8097F83F30E6
:101E6000002B3BD0BA6AFB6A13447B61BA6AFB6AF7
:101E70009A4217D37A69FB6AB2FBF3F39AB23D4BED
:101E80001A807B69FA6AB3FBF2F2F96A01FB02F28B
:101E90009B1A002B09D1374B1B8801339AB2354B63
:101EA0001A8002E0334B01221A807A69FB6AB2FB86
:101EB000F3F39AB22D4B1A807B69FA6AB3FBF2F204
:101EC000F96A01FB02F29B1A002B06D0274B1B88F4
:101ED00001339AB2254B1A800CE00BE03B8F022BAA
:101EE00002D1244B01221A80FB8E032B02D01F4B00
:101EF00001221A80214B00221A80214B1B887B86ED
:101F0000124B1B88002B49D07B8E002B46D01D4BDB
:101F10001B88BB86BB8E002B3AD0BB8E02333B6145
:101F20007A8E3B6902FB03F33B613B6903F5C343D4
:101F300027333B613B69DB08134AA2FB03231B0ADF
:101F40003B613B699AB2114B1A802CE07E2AFF1F3D
:101F5000AA2AFF1F9C2BFF1F582BFF1F782AFF1F49
:101F6000BB2AFF1F962AFF1FB42AFF1FA62AFF1FA6
:101F7000862AFF1FAC2AFF1FBE2AFF1FE42BFF1F6C
:101F8000200401540004015489B5F814B82AFF1F35
:101F900000237B866E4B00221A8004E00023BB8660
:101FA0006B4B00221A806A4B1B88002B03D1694BB4
:101FB0001B78002B0AD1664B1B88002B08D0654B81
:101FC0001B7883F00103DBB2002B01D01F23BBE0A1
:101FD000614B1B78002B0AD0604B1B88002B06D06E
:101FE0005F4B1B8843F480639AB25D4B1A805D4B54
:101FF00000221A805C4B00221A805C4B00221A805F
:102000005B4B00221A805B4B00221A705A4B002255
:102010001A705A4B00221A800023FB73584B1B780E
:10202000FB73FB7B03F00803002B06DD4C4B1B8886
:1020300043F004039AB24A4B1A80FB7B03F08003FF
:10204000002B06DD464B1B8843F008039AB2444B35
:102050001A804C4B00221A854A4B00225A85494B64
:10206000002283F84020484B00221A85464B00226C
:102070005A85454B002283F84020FB7F03F0020382
:10208000002B50D0FB6A002B03D1364B00221A8064
:1020900018E0FB6A5B093D4AA2FB0323DB09BB6036
:1020A000BB68042B03D82F4B01221A800AE0BB68BF
:1020B0009BB25B009BB2364AA2FB0323DB089AB2B9
:1020C000284B1A80FB7F03F00403002B2BD0BA6A45
:1020D000FB6A9A4204D2234B1A88254B1A8022E0CD
:1020E000BA6AFB6A13445B09284AA2FB0323DB0993
:1020F0007B607B68042B03D81D4B01221A8008E00B
:102100007B685B00224AA2FB0323DB089AB2184BD0
:102110001A80144B1B885B089AB2154B1B8813441A
:102120009AB2134B1A800D4B1B88002B02D0022051
:10213000FFF740FA174B1B88002B02D00320FFF754
:1021400039FAFEF74BFB002318464037BD4680BDE9
:10215000B82AFF1FBC2AFF1FBB2AFF1F7E2AFF1FB2
:10216000962AFF1F8C2AFF1F842AFF1FB62AFF1FF3
:10217000922AFF1F982AFF1FB12AFF1F902AFF1FD4
:1021800051010154582BFF1F9C2BFF1FC55A7C0A7D
:10219000CDCCCCCCAA2AFF1F80B483B000AFFF23E4
:1021A000FB801D4B1B7803F00F03012B11D01A4B42
:1021B0001B7803F00F03022B0BD0174B1B7803F097
:1021C0000F03042B05D0144B1B7803F00F03082BCF
:1021D00002D1124B1B8818E0114B1B78002B05D045
:1021E000104BC8221A80104B00221A800F4B00227D
:1021F0001A850E4B002283F840200D4B00221A85D1
:102200000B4B002283F84020FB8818460C37BD4654
:102210005DF8047B704700BF822AFF1F802AFF1FE2
:10222000B42AFF1F902AFF1F882AFF1F9C2BFF1F25
:10223000582BFF1F80B400AF044B00221A70044BD0
:1022400000221A70BD465DF8047B7047B02AFF1F5C
:10225000B52AFF1F80B582B000AF344B1B88002B1E
:1022600002D00220FFF77CF9314B1B88002B02D0F3
:102270000320FFF775F90C23FB80FB8843F4806390
:10228000FB80FB8843F40063FB80FB88DB439BB24D
:102290001846FFF7FBF8274B00221A70264B002246
:1022A0001A70264B00221A70254B00221A70254BFB
:1022B00000221A70244B00221A80244B00221A801C
:1022C000234B00221A80234B00221A80224B00222B
:1022D0001A80224B00221A80214B00221A80214BA7
:1022E00000221A80204B00221A851F4B00225A859B
:1022F0001D4B002283F840201C4B00221A851B4BEB
:1023000000225A85194B002283F84020184B0022E6
:102310001A80184B00221A70174B00221A70174BA4
:1023200000221A700837BD4680BD00BF7E2AFF1FFD
:10233000AA2AFF1FB02AFF1FBB2AFF1FB42AFF1FB4
:10234000982AFF1FB12AFF1FAC2AFF1FBE2AFF1FBA
:102350008C2AFF1F842AFF1FB62AFF1F922AFF1F05
:10236000A62AFF1F862AFF1F9C2BFF1F582BFF1F2B
:10237000902AFF1FBC2AFF1FBA2AFF1FE02BFF1F56
:1023800080B400AF034B00221A70BD465DF8047B99
:10239000704700BFE02BFF1F80B485B000AF03463D
:1023A0000A46FB711346BB80BB88FB81264B1B781A
:1023B000FA799A4202D0244AFB791370BB884FF60F
:1023C000FF72934202D0214AFB8913801E4B1B7877
:1023D000FB811F4AFB891380BB88002B04D0FB794B
:1023E00003F01003002B03D11A4B00221A701AE0DD
:1023F000BB882D2B09D0BB881A2B06D0BB88322B6B
:1024000003D0154B1B78002B03D0124B01221A70FE
:1024100009E0BB881B2B03D10E4B02221A7002E08D
:102420000C4B0D221A700B4B1B7843F01003DAB2E1
:10243000084B1A70094B074A12781A701437BD46B8
:102440005DF8047B704700BF7D2AFF1F34010154F3
:1024500030010154C12AFF1F822AFF1F3901015494
:1024600080B584B000AF03460A46FB711346BB80BB
:102470000023FB8100237B73D34B4FF6FF721A803E
:10248000D24B01221A70FB7903F01003002B09D004
:1024900001237B73CE4B1B7823F01003DAB2CC4BB5
:1024A0001A7012E0CA4B1B7803F01003002B05D002
:1024B000FB7903F00F03012B00D040E3C44B1B78E2
:1024C00003F00F03DAB2C24B1A70FB7903F00F036B
:1024D000FB71BF4B1B783B733B7B1B013B733A7B10
:1024E000FB7913443B733B7B442B29D0442B0BDCFF
:1024F000222B15D0222B02DC122B11D028E0242B0A
:1025000014D0422B0CD023E0822B09D0822B02DC8A
:10251000482B15D01CE0842B12D0882B10D017E04C
:102520000220FFF771F80346FB8111E0A948AA4990
:1025300002F01EFF0346FB81FB89002B00D007E061
:10254000A64B1B781846FFF75FF80346FB8100BFD8
:10255000FB89002B40F02082A14B00221A803B7B9C
:10256000113B772B00F2148201A252F823F000BF36
:102570004729020861270208512702088B2902080F
:102580009129020891290208912902088B29020841
:10259000912902089129020891290208912902082B
:1025A000912902089129020891290208912902081B
:1025B000352902084B2902088B290208EF27020857
:1025C0009129020891290208912902088B29020801
:1025D00091290208912902089129020891290208EB
:1025E00091290208912902089129020891290208DB
:1025F000572702088B290208912902088B29020813
:102600009129020891290208912902088B290208C0
:1026100091290208912902089129020891290208AA
:10262000912902089129020891290208912902089A
:1026300017290208E92802088B2902084B290208F9
:1026400091290208912902089129020849280208C3
:10265000912902089129020891290208912902086A
:10266000912902089129020891290208912902085A
:10267000912902089129020891290208912902084A
:10268000912902089129020891290208912902083A
:10269000912902089129020891290208912902082A
:1026A000912902089129020891290208912902081A
:1026B000912902089129020891290208912902080A
:1026C00091290208912902089129020891290208FA
:1026D00091290208912902089129020891290208EA
:1026E00091290208912902089129020891290208DA
:1026F00091290208912902089129020891290208CA
:1027000091290208912902089129020891290208B9
:1027100091290208912902089129020891290208A9
:102720009129020891290208912902089129020899
:10273000F9280208CB2802088B290208BB280208C6
:102740009129020891290208912902084B290208BF
:102750001323FB811FE11323FB81FFF711FE1AE115
:10276000FEF7C4FE1F4B1B7883F00103DBB2002B86
:1027700001D05123FB81FB89002B37D100F0FEFEF5
:102780000346FB81FB89002B0CD1104B00221A70F1
:1027900002F0BAFD0346FB81FB89002B02D1124BEC
:1027A00001221A70FB89002B20D0FB89FF2B1DD042
:1027B000064B1B7883F00103DBB2002B01D002F043
:1027C000ABFD00F05BFFE6E0B22AFF1F7C2AFF1F93
:1027D0007D2AFF1FAA2AFF1F7E2AFF1FC02AFF1F74
:1027E0007A2AFF1FAA18FF1F322BFF1FD3E0FFF723
:1027F000E9F80346FB81FB89002B12D1A84B00228C
:102800001A70A84802F090FD0346FB81FB89002B5B
:1028100007D1A44B1B881846FEF750FEA24B01229D
:102820001A70FB89002B0ED0FB89FF2B0BD09C4B21
:102830001B7883F00103DBB2002B01D002F080FD96
:10284000FFF708FDA7E0A6E07B7B002B0ED0974B9F
:102850001B88002B03D00220FEF7ACFE06E0944B51
:102860001B88002B02D00320FEF7A4FEFFF794FC88
:102870000346FB81FB89002B0CD1894B00221A7087
:1028800002F066FD0346FB81FB89002B02D1894BD8
:1028900001221A70FB89002B0ED0FB89FF2B0BD075
:1028A0007F4B1B7883F00103DBB2002B01D002F0D9
:1028B00057FDFFF7BFFC6EE06DE002F051FDFFF742
:1028C000B9FC774B00221A7065E002F049FD03461F
:1028D000FB81FFF7AFFC724B00221A70FB89002BC3
:1028E00000D058E042233B7302F02AFDFFF7B2FC10
:1028F0006B4B00221A704EE002F032FD0346FB8162
:10290000FFF798FC664B00221A70FB89002B00D061
:1029100041E041233B7302F013FD0346FB81FFF7C7
:1029200099FC5F4B00221A70FB89002B00D032E02B
:1029300021233B7300F0A2FE02F0EEFC0346FB8174
:10294000FFF71EFD27E0FFF71BFD7B7B002B04D06C
:102950003B7B9BB2184602F0CDFC574B1B7803F033
:102960000C03002B0ED0514B1B88002B03D00220F0
:10297000FEF720FE06E04E4B1B88002B02D0032002
:10298000FEF718FEFE23FB8105E01123FB8102E028
:102990001223FB8100BF24E0474B1B78042B08D097
:1029A000082B02D0022B08D01BE002F0D9FCFFF765
:1029B00041FC02F0C5FCFFF74DFCFB89162B0DD145
:1029C00000F05CFE02F0A8FC0020FEF7C9FD01202B
:1029D000FEF7C6FD384B01221A7002E0364B022288
:1029E0001A70FB89FF2B35D1344B01221A703B7BC7
:1029F0009AB2334B1A80324B1B88242B0DD0242BD8
:102A000003DC123B012B0DD802E0482B05D009E076
:102A10002C4B4FF4FA621A8008E02A4B42F228321B
:102A20001A8003E0274BC8221A8000BF254B1B8861
:102A30009AB2244B1B881BB2234981FB03018910E6
:102A4000DB17CB1A9BB29BB2D31A9BB29AB21D4B27
:102A50001A8074E0FA79184B1B7803F00F039A423E
:102A600064D0FB89002B02D1BB88002B35D0124BE0
:102A70001A78FB791343DBB203F00803002B2CD048
:102A80000C4B1B78002B03D002F06AFCFFF7D2FB43
:102A9000064B1B88002B19D00220FEF761FD1CE0BD
:102AA0007C2AFF1F962AFF1FBA2AFF1F7E2AFF1FBC
:102AB000AA2AFF1FB52AFF1F7D2AFF1FA82AFF1F72
:102AC0007A2AFF1FB22AFF1F676666661D4B1B88A6
:102AD000002B02D00320FEF743FDFB89002B0ED014
:102AE000194B1B78082B02D1174B04221A70164B76
:102AF0001B7843F01003DAB2134B1A700BE0BB885B
:102B0000002B05D0BB88FB81FB7943F01003FB71E0
:102B10000D4AFB7913700D4B00221A700A4B1A787C
:102B2000FB8910461946FFF737FC08E0074B0022E7
:102B30001A70054B1B7818460021FFF72DFC103743
:102B4000BD4680BDAA2AFF1F7D2AFF1FA82AFF1F9E
:102B500080B582B000AFA54B1B78002B00F07C81C4
:102B600000237B800023FB710023BB80A04B1B88CC
:102B7000002B40F09A809F4B1B881B099BB2FB7176
:102B80009C4B1B88242B21D0242B04DC123B012BD3
:102B900000F24F8102E0482B30D04AE1964B1B787F
:102BA00083F00103DBB2002B01D002F0B5FB00F093
:102BB00065FD924B1B7803F00F03012B03D1904B63
:102BC0001B88BB8070E00123BB806DE08A4B1B78C3
:102BD00083F00103DBB2002B01D002F0B1FBFFF761
:102BE00039FB864B1B7803F00F03022B03D1844B78
:102BF0001B88BB8058E00123BB8055E0814B1B78CC
:102C0000002B29D0804B1B7883F00103DBB2002B13
:102C100002D02D23BB8037E07C4B1B7883F001036F
:102C2000DBB2002B06D07A4B1B88002B02D01B2373
:102C3000BB8029E0774B1B7883F00103DBB2002BCC
:102C400002D01A23BB801FE00823FB710023BB8046
:102C5000714B01221A7017E06D4B1B88002B02D0BC
:102C60001B23BB8010E0654B1B7803F00F03042B84
:102C700003D1634B1B88BB8006E00823FB71002354
:102C8000BB80654B01221A70BB88002B0BD05A4BBE
:102C90001B7883F00103DBB2002B01D002F060FB54
:102CA000FFF7C8FAFFE700BFC3E0524B1B88242B95
:102CB0002AD0242B04DC123B012B00F2BA8002E064
:102CC000482B3FD0B5E04C4B1B78002B1BD04A4B18
:102CD00000221A7002F018FB03467B807B88002BD1
:102CE00009D14E4B01221A70424B1B88DBB203F014
:102CF0000F03FB7107E07B88FF2B04D002F00CFB75
:102D000000F0BCFC95E094E03B4B1B78002B18D006
:102D1000394B00221A70424802F006FB03467B80C2
:102D20007B88002B05D13F4B01221A700423FB71D5
:102D300007E07B88FF2B04D002F002FBFFF78AFA42
:102D400077E076E02C4B1B78002B71D02D4B1B7855
:102D5000002B2AD0344B1B881BB2002B68DD324B72
:102D60001A88324B1B8812B21BB29A4260DC2E4B7F
:102D700000221A802D4B00221A801F4B00221A704D
:102D800002F0E6FA03467B807B88002B05D1224BBC
:102D900001221A700823FB714AE07B88FF2B47D081
:102DA00002F0DEFAFFF746FA42E0194B1B88002BCF
:102DB00003D0164B1B78002B3AD00F4B00221A7011
:102DC00002F0C6FA03467B807B88002B05D1124BAC
:102DD00001221A700823FB712AE07B88FF2B27D081
:102DE00002F0BEFAFFF726FA22E000BFA82AFF1F72
:102DF000B22AFF1F7A2AFF1F7C2AFF1F822AFF1F89
:102E0000802AFF1FB42AFF1F982AFF1FB02AFF1F26
:102E10007E2AFF1FB12AFF1FB52AFF1F322BFF1F7B
:102E2000962AFF1FBA2AFF1F902AFF1F882AFF1F1A
:102E300000BFFB79002B0FD0094B00221A70BB8812
:102E4000002B03D0FB7943F01003FB71FA79BB88A8
:102E500010461946FFF7A0FA0837BD4680BD00BFEF
:102E6000A82AFF1F80B400AF3C4B1B78002B71D009
:102E70003B4B1B78002B6DD03A4B1B88002B09D0A5
:102E8000394B1A88374B1B889A4203D3374B0022A1
:102E90001A700EE0344B1A88324B1B889A4205D2C6
:102EA000314B1B8801339AB22F4B1A802F4B0122D2
:102EB0001A702E4B1B78002B13D02D4B1B88002B28
:102EC0000FD02C4B1A882A4B1B889A4206D2294BCA
:102ED0001B8801339AB2274B1A8002E0234B002251
:102EE0001A70224B1B78002B2DD0234B1B89002BF3
:102EF00005D0224B1A8D204B1B899A4212D2204BAF
:102F000001221A701F4B1B881BB2002B09DD1E4BC0
:102F10001B889BB29BB201339BB29AB21A4B1A80A8
:102F200010E00FE0164B1B78002B13D0144B00223F
:102F30001A70144B1B881BB2002B0BDD124B0022A6
:102F40001A8007E006E00E4B1B78002B02D00C4BDA
:102F500000221A70BD465DF8047B7047B42AFF1F3B
:102F6000BA2AFF1F8C2AFF1F842AFF1F982AFF1FDF
:102F7000922AFF1FB62AFF1FD013FF1F9C2BFF1F93
:102F8000B12AFF1F902AFF1F882AFF1F80B582B039
:102F900000AF204B1B88002B19D00023FB801E4B59
:102FA0001B88FB80FB8803F00103002B0FD11B4B18
:102FB0001B88002B0BD01A4B1B78002B04D004204D
:102FC0001B21FFF74DFA22E0164B00221A70164B18
:102FD0001B78002B1BD0124B1B78002B17D0134BE8
:102FE0001B7883F00103DBB2002B04D004202C21DA
:102FF000FFF736FA0BE00E4B1B7883F00103DBB2D0
:10300000002B04D004201A21FFF72AFA00BF08374A
:10301000BD4680BDB82AFF1F400401547E2AFF1F11
:10302000B52AFF1FB02AFF1FB42AFF1F982AFF1FCF
:10303000B12AFF1F80B582B000AF394B1B78DAB2DE
:10304000384B1A70384B1B889AB2384B1A80374B62
:103050001B889B029BB203F6FF739AB2334B1A8014
:10306000FEF744FA0023FB7106E0FB791846FEF7F1
:1030700077FAFB790133FB712A4B1B78FA799A4274
:10308000F3D300F001FA2A4B00221A70294B0022D8
:103090001A70294B00221A70284B00221A70284BF4
:1030A00000221A70274B00221A70274B00221A8028
:1030B000264B00221A80264B00221A80254B002224
:1030C0001A80254B00221A80244B00221A70244BB0
:1030D00000221A70234B00221A80234B00221A80F0
:1030E000224B00221A80224B00221A80214B0122FF
:1030F0001A70204B1B7818460021FFF74DF91E4B24
:1031000000221A801D4B00221A701D4B00221A70DB
:10311000FEF718F90020FEF7B9F90837BD4680BD63
:1031200005000154C02AFF1F06000154AE2AFF1FEC
:103130007C2AFF1FA82AFF1FB02AFF1FB52AFF1FE6
:10314000BA2AFF1FBC2AFF1FB82AFF1F842AFF1FAD
:103150008C2AFF1FB62AFF1F922AFF1FB42AFF1FC7
:10316000822AFF1F802AFF1F962AFF1F7E2AFF1F29
:10317000AA2AFF1F7D2AFF1F7A2AFF1FC12AFF1FCD
:10318000BB2AFF1F80B582B000AF00237B800123E4
:103190007B7100233B7100F0CFFD5C4B1B78002B53
:1031A00005D05B4B1B787B715A4B1B783B71FEF74C
:1031B00065F90346FB80FB8803F02003002B01D058
:1031C000FDF788FFFB8803F00103002B14D0524B5E
:1031D0001B7883F00103DBB2002B0DD04F4B1B7823
:1031E000DBB27B80FB8823F01103FB807B88DBB2A2
:1031F00018460021FFF734F9FB8803F01003002B79
:103200001FD0454B1B7883F00103DBB2002B18D095
:10321000434B1B7803F01003002B12D1404B1B785B
:1032200023F01003012B0CD0FB8823F01003FB804C
:103230003B4B1B7803F00F03DBB218460021FFF76E
:103240000FF9354B1B78002B01D0FFF781FC2F4B7A
:103250001B78002B56D07B7903F00103002B08D19B
:103260002F4B1B7803F00F03DBB218460021FFF74A
:10327000F7F83B7903F00803002B16D1294B1B7894
:10328000002B12D0284B00221A70284B1B8803F108
:10329000A84303F58033244A1278D2B21A70FB880F
:1032A00023F40073FB8000F0FBFA7B7903F0020348
:1032B000002B06D01E4B1B7883F00103DBB2002BE2
:1032C00008D17B7903F00203002B0CD1184B1B783B
:1032D000002B08D000F052FB7B7903F002037B71D6
:1032E000144A7B791370FEF7C9F80346FB80FB880C
:1032F00003F48073002B05D0FB8823F48073FB80DC
:1033000000F0E8FB0837BD4680BD00BF322BFF1F31
:103310000E0801540D080154A82AFF1F2001015472
:103320007D2AFF1F312BFF1F942AFF1F462BFF1FF3
:10333000502BFF1F0F08015480B582B000AF78609A
:103340000B467B8013463B807B8803F1A84303F543
:1033500080333A887868194606F098FD0837BD46EC
:1033600080BD00BF80B582B000AF78600B467B8027
:1033700013463B807A883B88786811461A46FFF7E7
:10338000DBFF0837BD4680BD80B582B000AF7860F6
:103390000B467B8013463B807B8803F1A84303F5F3
:1033A00080333A881846796806F070FD0837BD46C4
:1033B00080BD00BF80B582B000AF78600B467B80D7
:1033C00013463B807A883B88786811461A46FFF797
:1033D000DBFF0837BD4680BD80B485B000AF7860A4
:1033E00039603B685B880133FB813B689B88FA89C5
:1033F0009A4201D10023FB813B681B88FA899A42DB
:1034000001D107230BE03B685B881A463B68023218
:10341000796843F822103B68FA895A8000231846DD
:103420001437BD465DF8047B704700BF80B485B09B
:1034300000AF78607B681A887B685B889A4219D0F5
:103440007B681B887B817A897B68023253F8223043
:10345000FB607B8901337B817B687A891A807B687A
:103460001A887B689B889A4203D17B6800221A8065
:1034700002E001E00023FB60FB6818461437BD46FC
:103480005DF8047B704700BF80B483B000AF294B68
:1034900024221A80284B80221A80284B4FF4805215
:1034A0001A80274B4FF480521A80264B00221A8034
:1034B000244B00225A80234B0A229A80224B00225E
:1034C0001A80214B00225A801F4B0A229A801F4BE0
:1034D00000221A601E4B00221A601E4B00221A6046
:1034E0001D4B00221A601D4B00221A700023FB7135
:1034F0001B4B1B78FB71FB7923F00203FB71184A0D
:10350000FB791370174B00221A70174B00221A70A8
:10351000164B00221A70164B00221A70154B00220F
:103520001A70154B00221A700C37BD465DF8047BEB
:10353000704700BF4E2BFF1F3C2BFF1F342BFF1F7C
:10354000462BFF1FFC2AFF1FC82AFF1F482BFF1F07
:10355000542BFF1F402BFF1F382BFF1F502BFF1F2B
:103560000F080154322BFF1F312BFF1F442BFF1F6D
:103570004D2BFF1F4C2BFF1FC42AFF1F80B582B0AD
:1035800000AF0023FB800020FDF7D2FF38603B68CE
:103590005B889AB2334B1A803B681B889AB2324BD5
:1035A0001A800120FDF7C4FF38603B685B889AB23F
:1035B0002E4B1A803B681B889AB22D4B1A802A4BDF
:1035C0001B881A46274B1B881344294A12889342AA
:1035D0000CDD254B1B881A46254B1B881946234BAF
:1035E0001B880B449A4201DA162337E00020FDF7CE
:1035F000E1FF0120FDF7DEFF1A4B1B88184606F09D
:1036000025FC03461A461B4B1A601A4B1B68002BFD
:1036100018D1194B01221A700A2006F017FC034634
:103620001A46144B1A60134B1B68002B01D102235E
:10363000FB80104B1B68184606F010FC0D4B002257
:103640001A600AE00C4B00221A700A4B1B681846DD
:1036500006F004FC074B00221A60FB881846083766
:10366000BD4680BD4E2BFF1F342BFF1F3C2BFF1F81
:10367000462BFF1F482BFF1F302BFF1F80B582B04A
:1036800000AF3F4B00221A700020FDF769FF0120B8
:10369000FDF766FF3B4B1B68002B04D0394B1B68C2
:1036A000184606F0DBFB384B1B68002B0AD0364B64
:1036B0001A68344B1B689A4204D0334B1B68184677
:1036C00006F0CCFB314B1B68002B10D02F4B1A6837
:1036D0002C4B1B689A420AD02C4B1A682A4B1B6849
:1036E0009A4204D0294B1B68184606F0B7FB02F03B
:1036F0004BFD274B00221A60224B00221A60234BFD
:1037000000221A60204B00221A60224B00221A70FD
:103710000023FB71204B1B78FB71FB7923F0020324
:10372000FB711D4AFB7913701C4B00221A701C4B55
:1037300000221A701B4B00221A701B4B00221A70B9
:103740001A4B00221A701A48FFF770FE38603B6867
:10375000002B02D0386806F081FB3B68002BF2D1C9
:103760001448FFF763FE38603B68002B02D03868CE
:1037700006F074FB3B68002BF2D10837BD4680BDD4
:10378000322BFF1F542BFF1F382BFF1F402BFF1F17
:10379000482BFF1F502BFF1F0F080154312BFF1F19
:1037A000442BFF1F4D2BFF1F4C2BFF1FC42AFF1F55
:1037B000FC2AFF1FC82AFF1F80B584B000AF7860C5
:1037C0007B685B7903F00F03032B05D17868FDF765
:1037D000C9FD0346FB7302E00223FB7300BFFB7BC2
:1037E00018461037BD4680BD80B584B000AF786004
:1037F0000023FB737B685B791B09BB737B681B88A9
:10380000BB81BB89802B14D97B6804221A807B681A
:103810005B7923F00F03DAB27B685A717B6801226F
:10382000DA807B6808221A817868002100F0E8F8C5
:103830002FE0BB7B002B04D0174B1B78BA7B9A423E
:1038400022D0154ABB7B137078681449FFF7C4FD7A
:103850000346FB73FB7B002B15D07B6804221A8088
:103860007B685B7923F00F03DAB27B685A717B685F
:103870000122DA80FB7B9AB27B681A81786800218A
:1038800000F0BEF805E004E0786806F0E7FA0023EF
:103890007B601037BD4680BD4C2BFF1FFC2AFF1FED
:1038A00080B582B000AF2E4B00221A702D4B1B68E2
:1038B000002B11D02C4B1B68002B0DD12B4B1A6801
:1038C000284B1B689A4207D0264B1B68184606F007
:1038D000C5FA244B00221A60244B1B68214A13604E
:1038E000214B1B68002B08D01F4B1B68184600F0AB
:1038F00095F91D4B00221A6009E01D48FFF796FD5F
:1039000078607B68002B02D0786800F087F9194B4B
:103910001B78002B20D0174B1B7803F00203002BE1
:103920001AD00023FB70134B1B7823F00203DAB28A
:10393000104B1A70104B1B681846FDF74BFD0346E1
:10394000FB70FB78002B07D00A4B1B7843F0020377
:10395000DAB2084B1A70FFE70837BD4680BD00BFDA
:10396000312BFF1F542BFF1F382BFF1F402BFF1F36
:10397000C82AFF1F4D2BFF1F482BFF1F80B582B0A9
:1039800000AF1A4B1B68002B1DD0184B1B687B60C7
:10399000174B1B78002B10D0164B1B68002B0CD13B
:1039A0000120FDF7DDFD144B1B68124A1360012056
:1039B000FDF700FE0E4B00221A70786800F02EF919
:1039C0000A4B00221A600D4B1B78002B14BF0123F9
:1039D0000023DBB283F00103DBB203F00103DAB2B0
:1039E000064B1A700837BD4680BD00BF542BFF1F21
:1039F000312BFF1F382BFF1F402BFF1F502BFF1FAA
:103A000080B584B000AF78600B46FB700023FB7379
:103A10002C4B1B7803F00F03012B01D1F0234DE059
:103A20007B685B7903F00F03DAB27B685A71264B2F
:103A30001B7803F00703002B02D1234B01221A70DD
:103A40007B685B79DAB2204B1B781B01DBB2134336
:103A5000DBB2DAB27B685A71786800F0DFF80346AF
:103A6000002B14D078681949FFF7B6FC0346FB73A6
:103A7000FB7B002B04D0FB7863F07F03FB700CE032
:103A8000114B1B780133DAB20F4B1A7005E00E4B65
:103A90001B780133DAB20C4B1A70FB785BB2002B47
:103AA0000BDAFB7803F07F03DAB2094B1B78DBB249
:103AB0001343DBB2DAB2064B1A70FB7B18461037A1
:103AC000BD4680BD7D2AFF1FC42AFF1FC82AFF1FD5
:103AD0004D2BFF1F80B584B000AF464B1B885B08A1
:103AE0009BB25B0003F1A84303F580331B88FB8185
:103AF000414B1B78002B23D00A2006F0A7F9034680
:103B0000BB60BB68002B1BD0B86800210A2206F0FE
:103B1000C8F9BB6804221A80BB685B7923F00F03E5
:103B2000DAB2BB685A71BB680122DA80BB6807222F
:103B30001A81B8680021FFF763FFB86806F08EF9B4
:103B4000FB890633FB812D4B1B78002B03D12C4BBB
:103B50001B78002B03D02B4B01221A7046E0294B17
:103B600000221A70284B1B88FA899A4202D9264BE8
:103B70001B88FB81244B1B88184606F067F9034617
:103B80001A46224B1A60214B1B68002B03D11D4B98
:103B900001221A702AE01D4B1968164B1A88FB89FE
:103BA000084611461A46FFF7DDFB0023FB71184B50
:103BB0001B78DBB2FB71FB79DBB203F00803002B4F
:103BC0000FD0144B00221A700A4B1B881A460E4B5A
:103BD0001B8813441A46104B13441B78DAB20D4B62
:103BE0001A700A4B1B681846FFF7FEFD1037BD46DA
:103BF00080BD00BF342BFF1F302BFF1F312BFF1F59
:103C00004D2BFF1F442BFF1F4E2BFF1F482BFF1F69
:103C100005080154942AFF1FFFFF005480B584B0AB
:103C200000AF78603A4B1B7803F00F03012B01D1F2
:103C3000F02369E0374B1B7883F00103DBB2002BE4
:103C400001D0F02360E0344B1B78002B01D0072318
:103C50005AE07B681B88BB81304B1A88BB891344B0
:103C60009BB20633FB812D4B1A882D4B1B881344C6
:103C70007B817B89013B7B812A4B00221A700BE000
:103C8000FB8903F1A84303F58033264A1278D2B2A8
:103C90001A70FB890133FB81FA897B899A42EFD341
:103CA0001E4B1A88BB8906339BB2786811461A46A8
:103CB000FFF780FB00237B721B4B1B78DBB27B7210
:103CC0007B7ADBB203F00803002B0FD1154B0022E7
:103CD0001A70124B1B881A46114B1B8813441A4644
:103CE000124B13440F4A1278D2B21A70104B1B6851
:103CF000002B02D00F4B00221A600D4A7B68136024
:103D0000054B01221A70002318461037BD4680BDAE
:103D10007D2AFF1F322BFF1F312BFF1F462BFF1F5A
:103D20003C2BFF1F942AFF1F0D080154FFFF005476
:103D3000402BFF1F482BFF1F80B582B000AF002330
:103D40003B600023FB711848FFF770FB38603B684D
:103D5000002B04D03868FFF72FFD0346FB71FB7979
:103D6000002B14D03B6804221A803B685B7923F057
:103D70000F03DAB23B685A713B680122DA80FB79A3
:103D80009AB23B681A8138680021FFF739FE3B6818
:103D9000002BD6D1054B1B78002B01D0FFF79AFEE4
:103DA0000837BD4680BD00BFFC2AFF1F442BFF1F04
:103DB00080B584B000AF0346FB80FCF72DFAF860B5
:103DC00009E0FB681B89FA889A4201D1FB6806E08A
:103DD000FB685B68FB60FB68002BF2D10023184690
:103DE0001037BD4680BD00BF80B485B000AF3A60DB
:103DF0001A460346FB800B467B7113463B713B68BA
:103E00009B8903F470631B127B723B689B893B7236
:103E10000023FB603B79002B44D07B7A072B01D138
:103E2000002368E07B7A082B18D13B689B691B88CC
:103E30003B723B681B6906335B881A463B7A03FB7F
:103E400002F3FB60FB680733DB08FB607B79002B28
:103E500002D1FB680233FB60FB684CE001237B81ED
:103E60000FE03B6819697A8913465B0013445B00D5
:103E70000B445B881A46FB681344FB607B89013363
:103E80007B813B7A9BB27A899A42EAD9FB680733F5
:103E9000DB08FB607B79002B02D1FB680233FB60FF
:103EA000FB6828E07B7A072B05D13B681B695B88A0
:103EB0000733DB101FE07B79002B01D101231AE0CF
:103EC0007B7A082B06D13B681B6906335B88073376
:103ED000DB1010E03A7A7B799A4201D200230AE0A3
:103EE0003B6819697A7913465B0013445B000B4405
:103EF0005B880733DB1018461437BD465DF8047B3A
:103F0000704700BF90B484B000AF78600B46FB7080
:103F10007B68023330221A707B681A78FB781C4960
:103F2000A1FB03135B09DBB21344DAB27B681A709E
:103F3000FB78174AA2FB03125209642101FB02F22B
:103F40009B1AFB737B6801337A6801321178FA7B24
:103F50001048A0FB0202D208D2B20A44D2B21A70B0
:103F60007B68981C7B6802331C78FA7B094BA3FBA7
:103F70000213D9080B469B000B445B00D31ADBB23B
:103F80002344DBB203701037BD4690BC704700BFBE
:103F90001F85EB51CDCCCCCC80B586B000AF0346AD
:103FA000FB71FB79202202FA03F3BB81FCF734F9A1
:103FB000786100237B8232E07B691B89B3F5805FE7
:103FC0002AD3FB797B747B7C002B1FD07B699B8978
:103FD000FB720023FB8111E0FB89DBB27869194693
:103FE00000F034F903469A88BB8913409BB2002B3A
:103FF00001D000237B74FB890133FB817B7C002B88
:1040000004D0FB7A9BB2FA899A42E5D97B7C002BDB
:1040100002D17B8A01337B827B695B687B617B6930
:10402000002BC9D17B8A18461837BD4680BD00BF1A
:1040300080B588B000AFB9607B600346FB81134652
:10404000BB81FB89202202FA03F3FB82BB681B8839
:10405000B3F5805F0CD1FCF7DFF8F861FB69002B4A
:1040600009D1BB6A002B06D0BB6A1B221A7002E082
:104070002D4B1B68FB61FB69002B40D039E0FB69CD
:104080001B89B3F5805F31D3FB897B837B8B002B4E
:104090001FD0FB699B897B7500233B8311E03B8B21
:1040A000DBB2F869194600F0D1F803469A88FB8A1A
:1040B00013409BB2002B01D000237B833B8B013349
:1040C0003B837B8B002B04D07B7D9BB23A8B9A4247
:1040D000E5D97B8B002B09D1FB691A897B681A8093
:1040E0007B6802337B60BB89023BBB81FB695B68F9
:1040F000FB61FB69002B02D0BB89012BBFD8FB6998
:10410000002B04D0FB691A89BB681A8003E0BB68E6
:104110004FF6FF721A80044AFB691360BB89184688
:104120002037BD4680BD00BF042CFF1F90B58DB069
:1041300000AFBA607B600346FB810B467B730023B4
:10414000FB85BB685B697B62BB689B8903F470631A
:104150001B1287F823307B7B002B03D097F823308A
:10416000072B0FD1786A05F04FFF0346FB857B686C
:10417000002B06D0FB8D7868796A1A4605F086FE1A
:104180005DE05CE097F82330092B3AD10123BB8531
:104190007B7B3B84786A05F037FF034601337A6AFC
:1041A0001344BB6221E0BA8D3B8C9A4212D1B86AAB
:1041B00005F02AFF0346FB857B68002B09D0FB8DA9
:1041C000002B06D0FB8D7868B96A1A4605F05EFEB2
:1041D00017E016E0BB8D0133BB85B86A05F014FF0C
:1041E00003460133BA6A1344BB62BA8D3B8C9A42D0
:1041F00007D8BB6A1B78FF2B03D0BB6A1B78FE2B4A
:10420000D1D1FB8D002B1AD10C23FB857B68002BB1
:1042100015D00D4B07F110040FCB07C4237007F125
:10422000100303F109027B7B10461946FFF76AFE73
:1042300007F11003786819460D2205F027FEFB8D63
:1042400018463437BD4690BDDC13FF1F80B485B0DF
:1042500000AF78600B46FB707B689B8903F470634A
:104260001B12FB72FB7A082B0BD1FB78002B03D1BE
:104270007B681B69FB600DE07B681B690633FB6094
:1042800008E07B681969FA7813465B0013445B0009
:104290000B44FB60FB6818461437BD465DF8047B91
:1042A000704700BF80B483B000AF78607B680A338A
:1042B00018460C37BD465DF8047B704780B487B064
:1042C00000AF03463960FB710023BB823B689B89CA
:1042D00003F470631B12FB73FB79002B02D0BB8AC3
:1042E0001033BB82FB7B072B01D10023A9E0012304
:1042F000FB829FE0FB7B082B04D13B681B690633E4
:104300003B6108E03B681969FA8A13465B00134475
:104310005B000B443B613B691B88152B6BD0152B55
:104320000FDC082B08DC072B43DA042B41D0062BCB
:1043300020D0032B1ED06EE00B2B1BD0112B5AD09C
:1043400069E02E2B16D02E2B06DC1F2B12D0202B33
:104350002FD01B2B4FD05EE0B3F5187F0AD0B3F5FA
:10436000187F02DC2F2B24D055E0A3F26223012B0F
:1043700051D81EE0BB8A0F339BB223F00F03BB82E0
:10438000FB799BB2FA8A9A4212D23B691B880B2BAB
:1043900004D03B691B88B3F5187F05D13B695A8867
:1043A000BB8A1344BB8203E0BB8A1033BB823EE06E
:1043B0003DE0BB8A1F339BB223F01F03BB82FB7916
:1043C0009BB2FA8A9A4215D23B691B8840F262225C
:1043D000934205D03B691B8840F26322934205D18A
:1043E0003B695A88BB8A1344BB8203E0BB8A2033F3
:1043F000BB821CE01BE0BB8A1F339BB223F01F0370
:10440000BB82FB799BB2FA8A9A4203D2BB8A4033C1
:10441000BB820CE00BE0FB799BB2FA8A9A4205D290
:104420003B695A88BB8A1344BB82FFE700BFFB8A03
:104430000133FB82FB799BB2FA8A9A427FF65AAF2C
:10444000BB8A18461C37BD465DF8047B704700BF29
:1044500080B483B000AF03460A46FB801346BB809E
:10446000BB88222B00F2BB8001A252F823F000BFD0
:10447000FD4402080145020873450208A9450208E7
:10448000DF450208DF450208DF450208DF45020874
:10449000DF450208DF450208DF450208DF45020864
:1044A000DF450208DF450208DF450208DF45020854
:1044B000DF450208DF450208DF450208DF45020844
:1044C000DF450208DF450208DF450208DF45020834
:1044D000DF450208DF450208DF450208DF45020824
:1044E000DF450208DF450208DF450208DF45020814
:1044F000DF450208DF4502084F45020800236FE050
:10450000FB8841F6324293420BD1384B1B88002B7B
:1045100007D0374B9B8903F00203002B01DD0023FA
:104520005EE0FB8841F6334293420FD1314B9B89C9
:1045300003F00203002B09DD2C4B1B88002B05D157
:104540002D4B1B88002B01D0002349E047E0FB885E
:1045500041F6334293420BD1264B9B8903F0020371
:10456000002B05DD214B1B88002B01D0002337E0F9
:1045700035E0FB8841F63242934207D11C4B9B89C0
:1045800003F00403002B01DD002329E0FB8841F642
:104590003342934207D1174B9B8903F00403002B4E
:1045A00001DD00231CE01AE0FB8841F63242934211
:1045B00007D10F4B9B8903F00803002B01DD00237B
:1045C0000EE0FB8841F63342934207D1094B9B89A9
:1045D00003F00803002B01DD002301E000BF1223DC
:1045E00018460C37BD465DF8047B70477E2AFF1FD6
:1045F0009C2BFF1F582BFF1FAA2AFF1F90B591B0BD
:1046000002AFBA607B600346FB810B467B737B7B0A
:10461000FB867B689B8903F470631B1287F82A3042
:104620007B689B89DBB2BB867B7B7B8697F82A30D5
:10463000072B08D0FB89B3F5805F04D37B689B69A7
:104640001B88DBB2BB8697F84C30002B0CD097F858
:104650002A30072B03D0FB89B3F5805F01D20523F5
:10466000B0E2BB8E7B862DE07B7B9BB2BA8E9A42FA
:1046700001D21123A6E2FB8EDBB278681946FFF760
:10468000E5FD78627B6A9B88002B19D07B6A9B884A
:10469000DBB203F00703DBB25B00DBB21A46A74BC9
:1046A0001B7803F00F031340002B0BD17B6A9B8810
:1046B00003F00703002B01D1062383E21A2381E2D2
:1046C00005237FE29E4B1B68002B0BD09C4B1B6885
:1046D00097F84C20002A14BF01220022D2B2F88998
:1046E000797B98477B68DB69002B0DD07B68DC69A0
:1046F000F9897A7B97F84C30009308461146BA68DE
:10470000BB6CA04703465DE2FB89B3F5805F32D204
:104710007B7B002B2FD07B689B693B627B7B78681F
:104720001946FFF793FD78627B6A5B880733DB10DD
:10473000FB833B6ABB617B7B03F18043013B9B00B6
:10474000BA6913441B683B623B6A1A88BB6C1A80C7
:10475000BB6C02333A6A52881A80BB6C0433BB6468
:104760003B6A04333B62FB8B043BB86C396A1A46E4
:1047700005F08CFB25E2002387F83130002387F811
:1047800030307B7BFB8610E27B689B697B6100237A
:10479000FB85FB8E002B0BD0FB89B3F5805F07D325
:1047A000FB8EDBB218467968FFF788FD0346FB8570
:1047B000FB8D1B099BB25B007A6913447B61FB8E06
:1047C000DBB278681946FFF741FD78627B6A9B8807
:1047D000DBB203F00703DBB25B00DBB21A46574BD8
:1047E0001B7803F00F031340002B00F097817B7BB5
:1047F0009BB2FA8E9A420AD097F84C30002B00F008
:104800008C817B7B9BB2FA8E9A42C0F08681FB8EB4
:10481000002B0AD197F82A30072B06D0BB6CBA8E32
:104820001A80BB6C0233BB6477E17B6A1B88BB8553
:104830007B6A1B88B3F5E06F15D37B6A5B88082B16
:1048400004D87B6A5B882F33BB850CE07B6A5B886E
:10485000102B02D10623BB8505E07B6A5B88202BE9
:1048600001D10723BB85BB8D112B00F0E280112BFA
:104870001EDC052B68D0052B0DDC022B04DC012B84
:1048800062DA002B3BD042E1032B00F0AF80042B17
:1048900000F0BB803BE1082B03DC072B80F2B580E6
:1048A000A4E0092B00F00B810B2B00F33081DEE03C
:1048B0002D2B49D02D2B11DC1E2B45D01E2B06DCB9
:1048C000152B00F0B6801B2B00F0B3801FE11F2BCF
:1048D00000F08C80202B00F0988018E1372B08DC4A
:1048E000302B31DA2E2B00F081802F2B00F08D80C1
:1048F0000DE1A3F51873032B00F20981B7E097F8D7
:104900004C30002B1ED07B6A5B8803F00F03002B1A
:104910000ADDFB8D7A6A5288134403F00F03002BE3
:1049200002D1BB6C0233BB647B6A5B8803F0F0038B
:104930001B115B00BA6C1344BB64EAE07D2AFF1FC5
:10494000F428FF1F18233DE100237B827B6A5B88EC
:104950001A469E4B33F812301A46FB8D03F00F03B4
:1049600002FA03F33B827B691B887B82FB8D03F099
:104970000F03002B02D1BB6C00221A80BB6C1A887B
:10498000BB6C1A8097F84C30002B0AD0BB6C1A888D
:10499000798A3B8A0B409BB213439AB2BB6C1A8054
:1049A00013E0BB6C1B8899B27A8A3B8A13409BB296
:1049B0001A46FB8D03F00F0342FA03F39BB20A463B
:1049C00013439BB29AB2BB6C1A80BB6C1A88BB6C47
:1049D0001A80FB8D7A6A5288134403F00F03002B70
:1049E00003D1BB6C0233BB6493E092E0FB8D03F018
:1049F0000F03002B01D00523E4E07B691A88BB6C10
:104A00001A80BB6C0233BB6483E0FB8D03F00F03A1
:104A1000002B01D00523D5E07B691A88BB6C1A8076
:104A2000BB6C02337A6952881A80BB6C0433BB6456
:104A30006FE0FB8D03F00F03002B01D00523C1E0D5
:104A40007B691A88BB6C1A80BB6C02337A69528806
:104A50001A80BB6C04337A6992881A80BB6C063367
:104A60007A69D2881A80BB6C0833BB6451E0FB8D35
:104A700003F00F03002B01D00523A3E07B6A5B88C2
:104A80000733DB10B86C79691A4605F0FFF97B6AC9
:104A90005B8823F00F030F331B115B00BA6C1344C8
:104AA000BB647B6A5B8803F00F03002B06D0BB6CF2
:104AB0001B88DBB29AB2BB6C1A802AE029E0FB8D1E
:104AC00003F00F03002B01D005237BE07B6A5B889A
:104AD0000733DB10B86C79691A4605F0D7F97B6AA1
:104AE0005B8823F00F030F331B115B00BA6C134478
:104AF000BB647B6A5B8803F00F03002B06D0BB6CA2
:104B00001B88DBB29AB2BB6C1A8002E001E018236A
:104B100058E0012387F8313044E043E0002387F870
:104B20002B30FB8D03F00F03002B02D1BB6C002256
:104B30001A807B6A5B8803F00F03002B0DDDFB8D71
:104B40007A6A5288134403F00F03002B05D1BB6C23
:104B50000233BB64BB6C00221A80002387F82B3021
:104B60000AE0BB6C0233BB64BB6C00221A8097F86E
:104B70002B30013387F82B3097F82B207B6A5B882A
:104B800003F0F0031B119A42EBDB7B6A9B8803F076
:104B90000703002B03D1062387F8303002E01A23E5
:104BA00087F83030FB8E0133FB86FA8E7B8E9A427B
:104BB0007FF6EAAD97F83130002B02D197F830300C
:104BC00000E0002318463C37BD4690BD10AA0208FD
:104BD00090B591B002AFBA607B600346FB810B4693
:104BE0007B737B7BFB867B689B8903F470631B1262
:104BF00087F823300023BB867B689B89DBB23B842C
:104C0000002387F833307B7B3B8697F82330072BD4
:104C100028D07B689B691B88DBB2BB86BB8E002BD0
:104C200020D1FB8941F60F42934204D9FB8941F61A
:104C30002F42934214D9FB89B3F5B05F03D3FB89AC
:104C4000B3F5C05F0CD3FB89B3F5D05F03D3FB8909
:104C5000B3F5E05F04D3FB894FF23002934201D1F8
:104C60003B8CBB8697F84C30002B12D097F8233042
:104C7000072B01D1052337E37B7B002B06D1BB68D3
:104C8000002B03D0BB6C1B88DBB2BB86BB8E3B8684
:104C90002AE07B7B9BB2BA8E9A4201D2112323E396
:104CA0007B7B78681946FFF7D1FAF861FB699B882E
:104CB00003F038039B10DBB21A469D4B1B7803F0C0
:104CC0000F031340002B0FD1FB699B8803F03803BF
:104CD000002B07D1FB699B88002B01D1052303E33F
:104CE000072301E31A23FFE27B7B002B29D0FB89FA
:104CF00041F60F42934204D9FB8941F62F42934279
:104D000014D9FB89B3F5B05F03D3FB89B3F5C05F5A
:104D10000CD3FB89B3F5D05F03D3FB89B3F5E05F18
:104D200004D3FB894FF2300293420AD17B689B691E
:104D30001B88DBB27B837B8B002B02D0012387F89F
:104D400033307B681B6A002B24D000237B767B6882
:104D50001C6AF9897A7B97F84C3000930846114613
:104D6000BA68BB6CA04703467B767B7E002B0FD1D5
:104D7000704B1B68002B0BD06E4B1B6897F84C20B8
:104D8000002A14BF01220022D2B2F889797B984709
:104D90007B7EA9E2002387F82F30072387F82E3087
:104DA000BB68002B01D100239EE27B7BFB867EE269
:104DB0007B689B69BB620023FB82FB8EDBB2786859
:104DC0001946FFF743FAF861FB8EDBB218467968A3
:104DD000FFF774FA0346FB82FB699B8803F03803F4
:104DE0009B10DBB21A46524B1B7803F00F031340A3
:104DF000002B00F03682FB8E002B06D0FB8A1B09AD
:104E00009BB25B00BA6A1344BB627B7B9BB2FA8E97
:104E10009A420AD097F84C30002B00F045827B7BF9
:104E20009BB2FA8E9A42C0F03F82FB8E002B15D1C6
:104E300097F82330072B11D0BB6C1B887B747B7CCD
:104E40009BB23A8C9A4201D213234DE2BB6C1A8872
:104E5000BB6A1A80BB6C0233BB64FEE1FB691B8832
:104E6000FB84FB691B88B3F5E06F15D3FB695B8896
:104E7000082B04D8FB695B882F33FB840CE0FB69AB
:104E80005B88102B02D10623FB8405E0FB695B885D
:104E9000202B01D10723FB84FB8C112B00F07D819B
:104EA000112B1EDC052B68D0052B0DDC022B04DC3E
:104EB000012B62DA002B3FD0CDE1032B00F0B7804D
:104EC000042B00F04281C6E1082B03DC072B80F2A3
:104ED0003C81ACE0092B00F07E810B2B00F3BB8101
:104EE0009EE12D2B49D02D2B11DC1E2B45D01E2BE6
:104EF00006DC152B00F051811B2B00F04E81AAE13E
:104F00001F2B00F09480202B00F01F81A3E1372B92
:104F100008DC302B31DA2E2B00F089802F2B00F0AB
:104F2000148198E1A3F51873032B00F2948177E1C3
:104F30007D2AFF1FB829FF1F97F84C30002B1AD08D
:104F4000FB695B8803F00F03002B0ADDFB8AFA691B
:104F50005288134403F00F03002B02D1BB6C0233C1
:104F6000BB64FB695B8803F0F0031B115B00BA6C48
:104F70001344BB6471E11823B6E10023BB84FB69D1
:104F80005B881A46A14B33F812301A46FB8A03F0AD
:104F90000F0302FA03F3BB82BB6A1B88BB84BB8A84
:104FA000DB439AB2BB8C13409BB2BB8497F84C3066
:104FB000002B08D0BB6C1A88BB8A13409AB2BB8CFA
:104FC0001343BB8423E0BB6C1B881A46FB695B88D8
:104FD00019468E4B33F81130DB431340002B01D0C0
:104FE000122381E1BB6C1A88FB695B881946874BE9
:104FF00033F8113013409BB21A46FB8A03F00F03BB
:1050000002FA03F39AB2BB8C13439BB2BB84BB6A14
:10501000BA8C1A80FB8AFA695288134403F00F0392
:10502000002B03D1BB6C0233BB6416E115E1FB8A94
:1050300003F00F03002B01D0052355E1BB6C1B8847
:105040007B8297F83330002B06D0BB6A1B887A8AA4
:105050009A4201D01C2347E1FB8941F60F4293425B
:1050600019D9FB8941F62F42934214D87B8AB3F5B4
:10507000B05F03D37B8AB3F5C05F0CD37B8AB3F5F3
:10508000D05F03D37B8AB3F5E05F04D37B8A002B28
:1050900001D0122328E1FB8941F63242934204D029
:1050A000FB8941F63342934248D1FB8E012B17D145
:1050B000BB6A1B887A8A9A420FD0FA897B8A10468B
:1050C0001946FFF7C5F9034687F82E3097F82E30BA
:1050D000002B02D097F82E3006E14D4B01221A70BA
:1050E000FB8E082B2AD14B4B00225A61494B4A4A6E
:1050F0001A61484B00225A60484B00225A61474BC4
:10510000454A1A61454B00225A607B8A03F002032C
:10511000002B13D03F4B00225A853E4B00221A85AC
:105120003C4B002283F840203C4B00225A853B4BED
:1051300000221A85394B002283F84020BB6A7A8A04
:105140001A80BB6C0233BB6487E0FB8A03F00F0359
:10515000002B01D00523C7E097F83330002B0FD088
:10516000BB6A1A88BB6C1B889A4207D1BB6A0233A0
:105170001A88BB6C02331B889A4201D01C23B3E00F
:10518000BB6C1A88BB6A1A80BB6A0233BA6C52883D
:105190001A80BB6C0433BB645FE0FB8A03F00F032F
:1051A000002B01D005239FE0BB6C1A88BB6A1A80D4
:1051B000BB6A0233BA6C52881A80BB6A0433BA6C79
:1051C00092881A80BB6A0633BA6CD2881A80BB6C8C
:1051D0000833BB6441E0FB8A03F00F03002B01D0CE
:1051E000052381E0FB695B880733DB10B86AB96C83
:1051F0001A4604F04BFEFB695B8823F00F030F3364
:105200001B115B00BA6C1344BB6426E010AA0208B1
:10521000E02BFF1F9C2BFF1F48E80100582BFF1FAE
:10522000FB8A03F00F03002B01D005235CE0FB6930
:105230005B880733DB10B86AB96C1A4604F026FEA7
:10524000FB695B8823F00F030F331B115B00BA6C03
:105250001344BB6401E0182346E0012387F82F3094
:1052600022E0FB8E002B03D1BB6C0233BB6418E041
:10527000FB695B8803F00F03002B0ADDFB8AFA69E8
:105280005288134403F00F03002B02D1BB6C02338E
:10529000BB64FB695B881B099BB25B00BA6C13445F
:1052A000BB64182387F82E30FB8E0133FB86FA8E01
:1052B0003B8E9A427FF67CAD97F82F30002B02D1BF
:1052C00097F82E3010E00A4B1B68002B0BD0084BD0
:1052D0001B6897F84C20002A14BF01220022D2B28A
:1052E000F889797B9847002318463C37BD4690BD26
:1052F000B829FF1F80B483B000AF0346FB800C3792
:10530000BD465DF8047B704780B400AF00231846AB
:10531000BD465DF8047B704780B400AF002318469B
:10532000BD465DF8047B704780B483B000AF786001
:10533000002318460C37BD465DF8047B704700BF5C
:1053400080B400AF00231846BD465DF8047B70476B
:1053500080B400AF00231846BD465DF8047B70475B
:1053600080B400AF00231846BD465DF8047B70474B
:1053700090B589B000AF786039600023FB830023CB
:10538000BB8300237B8300233B8300233B610023FB
:10539000FB810023BB600023FB8200233B833AE0B8
:1053A0003B8B4C4A5B0013445B881846FEF700FDBC
:1053B00038613B69002B26D03B699B691B88FB81C8
:1053C0000023FB821AE03B699C69FB8ADBB2013354
:1053D000DBB218463969FEF771FF03461B099BB221
:1053E0005B002344BB60BB681B689BB2DBB29AB214
:1053F0007B8B13447B83FB8A0133FB82FA8AFB8914
:105400009A42E0D304E000237B832523FB8307E05B
:105410003B8B01333B832F4B1B883A8B9A42BFD384
:105420007B8B0733DB107B83FB8B002B42D100236C
:105430003B833AE03B8B284A5B0013445B88184669
:10544000FEF7B6FC38613B69002B26D03B699B69AF
:105450001B88FB810023FB821AE03B699C69FB8A65
:10546000DBB20133DBB218463969FEF727FF03468A
:105470001B099BB25B002344BB60BB681B689BB2EB
:10548000DBB29AB2BB8B1344BB83FB8A0133FB8232
:10549000FA8AFB899A42E0D304E00023BB832423E9
:1054A000FB8307E03B8B01333B830B4B1B883A8B21
:1054B0009A42BFD3BB8B0733DB10BB837B68BA8BAD
:1054C0001A803B687A8B1A80FB8B18462437BD46BE
:1054D00090BD00BF5414FF1F5814FF1F80B582B049
:1054E00000AF78607B68002B04D0786803499C2269
:1054F00004F0CCFC0837BD4680BD00BF5E14FF1F22
:1055000080B582B000AF78607B68002B04D004487F
:1055100079689C2204F0BAFC0837BD4680BD00BF04
:10552000FE14FF1F80B400AFBD465DF8047B7047DA
:10553000B0B588B002AF78600023FB7500233B61F3
:105540007B681B7A03F01003864A1278934202D1DB
:105550000123FB75BBE0844B1B88093BFB817B6807
:105560001B7A03F01003DAB27E4B1A707F4B1B6874
:10557000002B00F0AA807E4B1A687E4B1B68D31A62
:105580003B617B681B7A03F00103002B2CD0FA8966
:105590003B699A4225D37B681B88BB81BB89033B4F
:1055A0001A463B699A420CD37B681B7A03F00E03C0
:1055B0005B109BB2C3F107039BB21A463B699A4248
:1055C00008D03B69072B09D9BB89033B1A463B69C5
:1055D0009A4203D1684B00221A7011E00E23FB752A
:1055E0000EE00E23FB750BE0634B01221A70FA8963
:1055F0003B699A4202D30E23FB7501E0FB893B61B4
:10560000FB7D002B63D1594B1A685A4B1B681A4417
:105610007B680933104619463A6904F037FC564B4B
:105620001B78002B53D1554B1888554B1978504B8C
:105630001D68544B1C684D4B1A68534B1B780092E5
:1056400001932A462346FFF7C3FA0346FB75FB7D09
:10565000FF2B31D14D4B02221A704B4B1B78002B84
:1056600014BF01230023DAB2494B1A70444B1A7855
:10567000484B1A70414B1A88474B1A803C4B1B68A9
:10568000464A1360394B1B68454A13603D4B1B6803
:105690001B6A444A1360444B01221A70434A7B68D8
:1056A0001360354B00221A70414B00221A70314BA7
:1056B00000221A60FF2351E02C4B1B68184604F0AF
:1056C000CDFB2A4B00221A6001E00323FB75FB7D12
:1056D000002B2DD17B680A221A807B68DB88C3F3FC
:1056E0000B039AB27B68DA807B68DB8843F4405313
:1056F0009AB27B68DA801B4B1B78002B03D07B6847
:1057000030221A7202E07B6820221A721A4B1B7830
:10571000012B06D1174B1A683B691344154A1360D5
:105720001BE0144B00221A60214B00221A7014E077
:10573000114B00221A701E4B00221A700B4B1B6873
:10574000002B07D0094B1B68184604F087FB074B5A
:1057500000221A60074B00221A60FB7D184618379A
:10576000BD46B0BD022CFF1F4E2BFF1F142CFF1F88
:10577000F82BFF1FF02BFF1FF52BFF1F182CFF1F0F
:10578000302CFF1F2C2CFF1FF42BFF1F002CFF1FA2
:10579000012CFF1F342CFF1F322CFF1F102CFF1F6A
:1057A000EC2BFF1FFC2BFF1FAE18FF1F0C2CFF1F45
:1057B000032CFF1F80B586B000AF78600023FB7517
:1057C0007B68FB607B681B7A03F010034C4A1278FD
